:100000000C9438070C947F070C947F070C947F079F
:100010000C947F070C947F070C947F070C947F0748
:100020000C947F070C947F070C94282C0C94FA2CCA
:100030000C94101E0C947F070C947F070C947F0780
:100040000C947F070C947F070C947F070C947F0718
:100050000C947F070C94691E0C947F070C947F0707
:100060000C947F070C947F070C947F070C947F07F8
:100070000C947F070C947F070C947F070C947F07E8
:100080000C947F070C947F070C947F070C947F07D8
:100090000C947F070C947F070C947F070C947F07C8
:1000A0000C947F070C947F070C947F072D132D135E
:1000B0005F135F13AC13CA13EB14EB14D5136A145C
:1000C0007B147B14DB14EB14EB14E41499159915D1
:1000D000AB15AB15A215AB15AB15AB15991599154D
:1000E000A715AB15AB15A715B924A724C024452324
:1000F00095259525A42495259525ED24952501255F
:1001000075259525952595259525312595259525A3
:100110001E259525D924952595258F258F258F2555
:100120008F258F258F258F258F258F259125952527
:10013000B9249C24952595259525952595259525C6
:100140009525952595259525912595259525A424D5
:1001500095258D258D258D258D258D258D258D2507
:100160008D258D259125672D8E2D862E8E2D862E03
:10017000DA2DFD2D862E542E632E14001A00080051
:100180001500170000001C0018000C0012001300DE
:1001900004001600070009000A0000000B000D0013
:1001A0000E000F0033001D001B00060019000500A3
:1001B0002A0011001000360037003800E000E2008D
:1001C0002B00E100E30028002C0001512D00340039
:1001D00029001F02240025002600550000002302EC
:1001E0002F0230022F0030002402210022002300C1
:1001F000570000005000510052004F001E026700DF
:100200001E001F00200031002A00210226022702C2
:1002100035023100125035002700E100E3002800CC
:100220002C00010037004C00490049004A005200F0
:100230004D004B00000052004000410042004300CE
:100240004C00500051004F004E00000051003D0096
:100250003E003F0044000000800000000000005C01
:100260002A0000003A003B003C0045001050AA0064
:10027000E000E100E30028002C0001000000000085
:10028000135000001E001F0020002100000022006B
:1002900000000000000000002B0014001A000800FD
:1002A0001500000017000000000000000000E10041
:1002B000040016000700090000000A00000000000A
:1002C00000000000E00000000000E1002C00000041
:1002D0000000000000000000105044454255473A1D
:1002E0002064697361626C65642E0A00444542555E
:1002F000473A20656E61626C65642E0A000A00252B
:1003000030313662003A200025303258000A722F10
:100310006320303132333435363738394142434443
:1003200045460A00556E69636F646520696E707595
:1003300074206D6F64652073657420746F3A202596
:10034000750A00556E69636F646520696E70757417
:10035000206D6F646520696E697420746F3A202582
:10036000750A000A002530325820006B6579626FEB
:100370006172645F7265706F72743A20000A0025C2
:10038000303258006B6579626F6172645F736574B7
:100390005F6C65643A200064656C5F6B65795F62D1
:1003A00069743A2063616E27742064656C3A202575
:1003B0003032580A006164645F6B65795F6269740A
:1003C0003A2063616E2774206164643A20253032DC
:1003D000580A00290A002575002F002575005D28A0
:1003E0000025640020002564002000256400200012
:1003F0002564007C0025303258006D6F7573656B85
:100400006579205B62746E7C782079207620685D47
:10041000287265702F61636C293A205B006D6B5FF9
:10042000776865656C5F74696D655F746F5F6D613A
:1004300078203D2025640A006D6B5F776865656CE8
:100440005F6D61785F7370656564203D2025640A87
:10045000006D6B5F74696D655F746F5F6D617820AF
:100460003D2025640A006D6B5F6D61785F73706578
:100470006564203D2025640A006D6B5F696E7465BC
:100480007276616C203D2025640A006D6B5F6465A7
:100490006C6179203D2025640A006D6B5F7768658B
:1004A000656C5F74696D655F746F5F6D6178203D29
:1004B0002025640A006D6B5F776865656C5F6D6110
:1004C000785F7370656564203D2025640A006D6B5C
:1004D0005F74696D655F746F5F6D6178203D202585
:1004E000640A006D6B5F6D61785F73706565642091
:1004F0003D2025640A006D6B5F696E7465727661DC
:100500006C203D2025640A006D6B5F64656C617929
:10051000203D2025640A000A00257500363A207720
:100520006865656C5F74696D655F746F5F6D617838
:100530003A20000A00257500353A20776865656C19
:100540005F6D61785F73706565643A20000A00250D
:100550007500343A2074696D655F746F5F6D617802
:100560003A20000A00257500333A206D61785F73E8
:10057000706565643A20000A00257500323A2069EA
:100580006E74657276616C286D73293A20000A00DA
:10059000257500313A2064656C6179282A31306D07
:1005A00073293A20000A092D2056616C7565732065
:1005B0002D0A004D3E004D25643E20003F0073652E
:1005C000742064656661756C740A00433E20007790
:1005D000686572652064656C74613A206375727336
:1005E0006F723D25642C20776865656C3D25640A33
:1005F00053656520687474703A2F2F656E2E776985
:100600006B6970656469612E6F72672F77696B69BA
:100610002F4D6F7573655F6B6579730A000A092D3D
:10062000204D6F7573656B6579202D0A4553432FF7
:10063000713A09717569740A313A0964656C6179B6
:10064000282A31306D73290A323A09696E7465724D
:1006500076616C286D73290A333A096D61785F738E
:10066000706565640A343A0974696D655F746F5F1B
:100670006D61780A353A09776865656C5F6D6178F8
:100680005F73706565640A363A09776865656C5F03
:1006900074696D655F746F5F6D61780A0A703A09FD
:1006A0007072696E742076616C7565730A643A09BC
:1006B0007365742064656661756C74730A75703A4D
:1006C000092B310A646F776E3A092D310A7067750C
:1006D000703A092B31300A7067646F776E3A092DD2
:1006E00031300A0A7370656564203D2064656C745E
:1006F00061202A206D61785F7370656564202A200F
:1007000028726570656174202F2074696D655F744F
:100710006F5F6D6178290A003F004D3E2000433E27
:1007200020004C25640A0074696D65725F72656112
:1007300064333228293A202530346C580A006B651E
:10074000796D61705F636F6E6669672E6E6B726F35
:100750003A2025580A006B6579626F6172645F699F
:10076000646C653A2025580A006B6579626F617286
:10077000645F70726F746F636F6C3A2025580A0063
:10078000686F73745F6B6579626F6172645F6C65CB
:10079000647328293A2025580A000A092D20537429
:1007A00061747573202D0A004743433A20352E3477
:1007B0002E30204156522D4C4942433A20322E30A1
:1007C0002E30204156525F415243483A20617672A2
:1007D000350A004F5054494F4E533A204C5546412C
:1007E000204D4F5553454B45592045585452414B88
:1007F000455920434F4E534F4C4520434F4D4D419B
:100800004E44204E4B524F20343039360A00425568
:10081000494C443A20223030643632642220283158
:10082000353A34373A3133204A756C20323620322B
:10083000303230290A005649443A2030783132307B
:100840003928546563686E6F6D616E637929205035
:1008500049443A20307841314535284174726575F4
:100860007329205645523A203078303030380A000B
:100870000A092D2056657273696F6E202D0A000AD1
:10088000092D20436F6E736F6C65202D0A4553430D
:100890002F713A09717569740A6D3A096D6F757334
:1008A000656B65790A000A092D204D61676963202F
:1008B0002D0A443A094465627567204D657373617A
:1008C000676520546F67676C650A583A094D617413
:1008D000726978204465627567204D6F64652054A5
:1008E0006F67676C65202D2053686F77206B657983
:1008F0007072657373657320696E206D61747269BF
:100900007820677269640A4B3A094B6579626F61B6
:10091000726420446562756720546F67676C652058
:100920002D2053686F77206B657970726573732023
:100930007265706F72740A4D3A094465627567207A
:100940004D6F75736520546F67676C650A563A0979
:1009500056657273696F6E0A533A09537461747500
:10096000730A433A09416374697661746520436F81
:100970006E736F6C65204D6F64650A46312D46318C
:10098000303A0953776974636820746F204C617939
:10099000657220302D392028463130203D204C30E2
:1009A000290A302D393A0953776974636820746FC6
:1009B000204C6179657220302D390A4752415645E5
:1009C0003A0953776974636820746F204C617965C4
:1009D0007220302028616C7465726E617465290A1A
:1009E000423A094A756D7020746F20426F6F746CC3
:1009F0006F616465720A4553433A094A756D702008
:100A0000746F20426F6F746C6F616465722028612F
:100A10006C7465726E617465290A453A0950726991
:100A20006E7420454550524F4D2053657474696E65
:100A300067730A4253504143453A09436C656172FA
:100A400020454550524F4D0A4E3A094E4B524F20C9
:100A5000546F67676C650A000A002575002E6E6B7F
:100A6000726F3A20000A002575002E737761705F5F
:100A70006261636B736C6173685F6261636B7370F7
:100A80006163653A20000A002575002E7377617056
:100A90005F67726176655F6573633A20000A0025BF
:100AA00075002E6E6F5F6775693A20000A00257524
:100AB000002E737761705F72616C745F7267756925
:100AC0003A20000A002575002E737761705F6C6113
:100AD0006C745F6C6775693A20000A002575002EFA
:100AE000737761705F7263746C5F726775693A20C7
:100AF000000A002575002E737761705F6C63746C5B
:100B00005F6C6775693A20000A002575002E6361E5
:100B100070736C6F636B5F746F5F636F6E74726F13
:100B20006C3A20000A002575002E737761705F63B0
:100B30006F6E74726F6C5F636170736C6F636B3A2E
:100B400020000A0025303258006B65796D61705FB6
:100B5000636F6E6669672E7261773A20000A00251E
:100B600075002E6D6F7573653A20000A00257500BB
:100B70002E6B6579626F6172643A20000A002575F8
:100B8000002E6D61747269783A20000A00257500A4
:100B90002E656E61626C653A20000A00253032587D
:100BA0000064656275675F636F6E6669672E726168
:100BB000773A20000A0025750064656661756C74DB
:100BC0005F6C617965723A20003F004E4B524F3A9C
:100BD000206F66660A004E4B524F3A206F6E0A0035
:100BE0000A6D6F7573653A206F66660A000A6D6F4D
:100BF0007573653A206F6E0A000A6B6579626F61E2
:100C000072643A206F66660A000A6B6579626F61EA
:100C100072643A206F6E0A000A6D61747269783AE4
:100C2000206F66660A000A6D61747269783A206FF7
:100C30006E0A000A64656275673A206F66660A008C
:100C40000A64656275673A206F6E0A000A0A4A757F
:100C50006D70696E6720746F20626F6F746C6F6166
:100C60006465722E2E2E2000433E2000436C656189
:100C700072696E6720454550524F4D0A00656563A5
:100C80006F6E6669673A0A005B735D004B65796257
:100C90006F6172642073746172742E0A005B575D19
:100CA000005B535D005B525D005B445D005B435D38
:100CB000000403300000000E034100740072006560
:100CC000007500730000001803540065006300689D
:100CD000006E006F006D0061006E0063007900001F
:100CE000000403090409025B00030100A0FA0904DF
:100CF000000001030101000921110100012240004F
:100D00000705810308000A0904010001030000002F
:100D100009211101000122BC000705820320000AFD
:100D20000904020002030000000921110100012250
:100D300022000705830320000107050303200001AB
:100D400012011001000000080912E5A108000102CB
:100D500003010631FF0974A1010975150026FF0082
:100D60009520750881020976150026FF00952075EB
:100D7000089102C005010902A10185020901A10033
:100D8000050919012905150025019505750181023F
:100D90009501750381010501093009311581257F10
:100DA00095027508810609381581257F950175081A
:100DB0008106050C0A38021581257F950175088189
:100DC00006C0C005010980A101850319012AB700E9
:100DD000150126B700950175108100C0050C0901A9
:100DE000A101850419012AA002150126A00295017E
:100DF00075108100C005010906A1018505050719C7
:100E0000E029E715002501950875018102050719FC
:100E10000029EF1500250195F075018102050819DB
:100E2000012905950575019102950175039101C090
:100E300005010906A101050719E029E715002501AB
:100E40009508750181029501750881010507190052
:100E500029FF150026FF0095067508810005081971
:100E6000012905950575019102950175039101C050
:100E700011241FBECFEFDAE0DEBFCDBF04B603FE04
:100E800027C080919C0290919D02A0919E02B091FA
:100E90009F028730904BA740B04BD1F410929C0238
:100EA00010929D0210929E0210929F0214BE84B76F
:100EB000877F84BF0FB6F894A89580916000886101
:100EC00080936000109260000FBEE0E0F8E30995A7
:100ED00011E0A0E0B1E0EEE6FEE502C005900D9263
:100EE000A03AB107D9F722E0A0EAB1E001C01D9213
:100EF000AC39B207E1F70E944E290C94352F0C94BF
:100F00000000FF93EF93E091A001F091A1013097D1
:100F100009F00995EF91FF910895FC0185918030CA
:100F200011F0EFDFFBCF0895FF27E0E230E247FF4B
:100F30000CC0419597FF09C0EDE2609570958095D2
:100F40009095611D711D811D911D27FF02C0219586
:100F500030E350E2AA27660F771F881F991FAA1F48
:100F6000A41710F0A41B63955A95A9F7AA3008F0AE
:100F7000A95FA05DAF93F39561157105810591059A
:100F800041F7ED3211F4EF93F395F21718F43F9314
:100F9000F395FBCF8F91B5DFFA95E1F70895E991CD
:100FA000F9918591803021F0853219F0AADFF9CFCF
:100FB000089520E0E89455915532C1F3503311F46F
:100FC000689455915A3348F4505390F3220F022EEF
:100FD000220F220F200D250FF4CF0EF421958991B9
:100FE0009991533619F3533729F1533559F1BC010F
:100FF00088279927E8945C3621F48991999168941F
:101000005591543639F446EF7EF077FF0DC08FEFDF
:101010009FEF0AC055374AE039F0583540E121F0DA
:10102000523642E009F00895FF93EF937DDFEF9190
:10103000FF91B7CFFF93EF93FC0181918030B9F31B
:1010400060DFFBCFFF93EF9368DFF1CFDF93CF93A8
:10105000CDB7DEB72596A3DFCF91DF9108959C0130
:101060003A9521153F4138F5DC01AA27B270AC0151
:10107000442754709C012227387094FF0FC090FFC2
:1010800002C080E101C080E0AB2B09F08062452BFB
:1010900009F08064232B69F080680BC0892F817070
:1010A000AB2B09F08260452B09F08460232B09F0FB
:1010B0008860FB0109940895CF93DF93EC01805E73
:1010C0009109089710F0209719F469EE72E102C0B7
:1010D0006FE575E1CE010E942F088C2FDF91CF9133
:1010E0000C94BF11CF93DF93EC010E946E12CE01DE
:1010F000805E9109089710F0209719F460EF72E173
:1011000002C066E675E1CE01DF91CF910C942F0805
:10111000CF93DF93EC010E945C08CE01DF91CF9169
:101120000C94720881E0089581E008950C9494086D
:1011300008950C9498081F93CF93DF9300D000D0AC
:101140001F92CDB7DEB749835A836B833091B801C4
:1011500089819A81311114C0662359F0222349F004
:101160000E94D21A182F682F89819A810E947B1AB7
:1011700003C00E94A61A182F69817A81812F04C0AA
:101180000E94D21A69817A810F900F900F900F9070
:101190000F90DF91CF911F910C947F09FC01262FB6
:1011A000408151816281738184810C949B08CF932B
:1011B000DF93EC0160E00E94CE08BE01DF91CF9189
:1011C0000C9499080E94311C811102C00E94D11C0C
:1011D0000E94270D0C94E40B0C94E00B282F2F7029
:1011E00041F0822F90E02A3010F44D960895069732
:1011F000089587E290E0089508950C94FC0881E03A
:1012000008950C94FF08CF93C82F0E94FD088C2FDF
:101210000E940109CF91089508950E9487150E94A8
:101220000C092FEF84E39CE0215080409040E1F7CF
:1012300000C000000C948F1E0F931F93CF93DF9379
:10124000EC0161E00E94CE088C01BE010E9496086C
:10125000882309F449C0BE01C8010E94C40D882337
:1012600009F442C0BE01C8010E94540E8823E1F176
:10127000BE01C8010E94950E8823B1F1BE01C801CC
:101280000E94C00F882381F18A81882331F10130C7
:101290008CE5180751F00E3D8CE51807D9F00115C3
:1012A0001C45D9F40E940D091FC080913C02C82F33
:1012B000C095C170C0FB80F980933C02CC2329F01B
:1012C0008CEE92E00E948D070FC08AED92E00E94A2
:1012D0008D070BC00E94D11C07C0CE01DF91CF91BA
:1012E0001F910F910C949208C0E08C2FDF91CF9149
:1012F0001F910F91089580E090E0089508952CE2E9
:10130000829FC0011124FC012BE0729FE00DF11DB2
:101310001124E60FF11DEE0FFF1FE658FE4F8591D9
:1013200094910895880F991FFC01E350FD4F85911A
:1013300094910895CF93DF930E947F090E94B20A8F
:10134000EC018115904508F041C0C11580E4D80733
:1013500008F0D1C0C83ED10510F5C03ED10508F057
:10136000FDC0C83AD10578F4C53AD10508F0A2C04D
:10137000C130D10509F4F2C008F4EEC0C430D10583
:1013800008F0ECC0E9C0CF3BD10508F49BC0C03CDD
:10139000D10508F4E1C0CE01805C91099EC0C11561
:1013A00090E2D90758F4C11521E0D20708F0D6C061
:1013B000C03FD10508F4D0C0D065D0C0C11580E3CE
:1013C000D80708F08EC0CE019F7087C0C11595E583
:1013D000D90708F043C0C11524E5D20708F0A2C020
:1013E000C11582E5D80708F5C11591E5D90708F0C0
:1013F00085C0CE0174E0969587957A95E1F7837064
:101400009C2F937021E030E002C0220F331F9A9589
:10141000E2F73C68382BCF70C695C69580E2C89F2E
:10142000E0011124C22BD32B99C09E0123703327D6
:101430008C2F86958695C115D34508F064C0C1E010
:10144000D0E002C0CC0FDD1F2A95E2F720E2829F98
:10145000C0011124C82BD92BDC6880C0C11529E537
:10146000D207A0F4C11588E5D80708F060C0C115FF
:1014700096E5D90708F070C08C2F0E94460B8F713B
:10148000C82FD0E0DC2FCC27D06268C0C1152AE578
:10149000D20708F451C0CE0190568115904208F051
:1014A0005BC08D2F8F710E94460BDD27D0628F713C
:1014B000D82B54C0C55AD0E0CD5BDE4FC881D0E0F8
:1014C000D0644CC0C85AD0E0CC0FDD1FCB5EDE4FDD
:1014D0000990D881C02DD46441C00E949209EC01CA
:1014E0003DC0CE019927D3FF03C0EC01D86C36C0B4
:1014F000EC01D06C33C0DF70D06A30C0DC2FCC2759
:10150000C16FD06A2BC0C1E0D0E002C0CC0FDD1F9C
:101510002A95E2F720E2829FC0011124C82BD92B23
:10152000DA681CC0DC2FCC27C46FD06A17C0DC2F50
:10153000CC27C06FD06A12C08C2F8F700E94460BD0
:1015400094E0D695C7959A95E1F7CF70D0E0DC2F5F
:10155000CC27D069C82B02C0C0E0D0E0CE01DF911B
:10156000CF9108958238910569F1B0F481339105E6
:1015700009F46DC048F48932910509F463C08A32D8
:10158000910509F469C008958533910509F455C0A2
:1015900089339105B9F00895833E910569F138F4D6
:1015A000803E9105B1F0823E910509F10895863E95
:1015B0009105A9F1873E9105B9F1843E910509F0A5
:1015C00064C023C020918D0220FD4FC021FD4DC07D
:1015D000089580918D0280FD44C080918E0280FF2D
:1015E00044C080918D0284FD42C083EE4DC0809145
:1015F0008D0282FF38C0F5CF80918D0282FD33C00D
:1016000080918E0280FD31C0ECCF80918E0281FFEF
:1016100032C080918D0284FD2AC087EE35C0809152
:101620008D0283FF26C0F5CF80918D0283FD21C0FE
:1016300080918E0281FD1FC0ECCF80918D0285FDCF
:101640001CC01DC080918D0285FD19C016C08091FF
:101650008D0286FD16C017C080918D0286FD13C0D5
:1016600010C089E311C082EE0FC080EE0DC080E093
:101670000BC086EE09C084EE07C089E205C085E391
:1016800003C08AE201C081E390E0089590918D0249
:1016900092FF0DC0282F2871283019F4877F8460AD
:1016A00006C0282F2471243011F48B7F886093FFAB
:1016B0000DC0282F2871283119F4877E846106C057
:1016C000282F2471243111F48B7E886120918E02A1
:1016D00020FF0DC0382F3871383019F4877F8160B2
:1016E00006C0382F3171313011F48E7F886021FFB0
:1016F0000DC0282F2871283119F4877E816106C01A
:10170000282F2171213111F48E7E886194FD877E0E
:101710000895E82FF0E0EE0FFF1FE458FD4F8081A1
:1017200091810895CF92DF92EF92FF920F931F93D2
:10173000CF93DF938DE093E00E948D078CE7E82E36
:1017400082E0F82EC0E0D0E098E0C92E93E0D92ED8
:101750000FEF12E0DF93CF93DF92CF920E94260823
:1017600085E093E00E948D07F701819191917F01BF
:101770000E941E1C9F938F931F930F930E94260815
:101780008DEF92E00E948D0721968DB79EB7089647
:101790000FB6F8949EBF0FBE8DBFC430D105D1F6F1
:1017A000DF91CF911F910F91FF90EF90DF90CF903D
:1017B000089580EA8A95F1F7089508950C94DD0B59
:1017C0000C94DE0B0C94DD0B0C94E20BCF93DF93A7
:1017D000A1E5B1E045E551E061E070E08D91E82FD1
:1017E000E295EF70F0E021A18F70EB0102C0CC0F09
:1017F000DD1F8A95E2F7CE019C2F9095922391A34D
:1018000092A1892B82A34A175B0741F7A6E4B1E0B6
:1018100041E050E08D91E82FE295EF70F0E021A1DA
:101820008F70BA0102C0660F771F8A95E2F7CB016D
:10183000962F9095922391A392A1892B82A371E078
:10184000A135B70739F71092750210927402109201
:101850007D0210927C021092770210927602109212
:101860007F0210927E0210927902109278021092FA
:1018700081021092800210927B0210927A021092E2
:1018800083021092820284E00E94D70CDF91CF91F4
:101890000C94E2086F927F928F929F92AF92BF92C8
:1018A000CF92DF92EF92FF920F931F93CF93DF932C
:1018B00081E5C82E81E0D82E04E712E09CE7A92E2E
:1018C00092E0B92E712C88248394912CF601819199
:1018D0006F01C82FC295CF70D0E099A18F707401AD
:1018E00001C0EE0C8A95EAF7892F8E2989A38AA177
:1018F0006E2C609486218AA30E94D90BE6E4F1E065
:1019000040E050E020E030E06191A62FA295AF705A
:10191000B0E090968C9190E06F7002C0959587959D
:101920006A95E2F780FD08C0C401042E02C0880F4A
:10193000991F0A94E2F702C080E090E0282B392B2F
:101940004F5F5F4F4B305105F9F689A1682269A2BC
:101950008AA1E82AEAA2F801808191812817390733
:1019600021F03183208381E001C080E0782A0E5F7E
:101970001F4FA016B10609F0A9CF272D44E06CE750
:1019800072E084E792E00E94D80C0E94EC08872D58
:10199000DF91CF911F910F91FF90EF90DF90CF904B
:1019A000BF90AF909F908F907F906F900895089513
:1019B000FF920F931F93CF93DF93F82E092F162FCB
:1019C000D72FC42F222349F081E08093A4010E94E5
:1019D000421E9093A3018093A2018091A4018823C9
:1019E000D9F08091A2019091A3010E945A1E0697FE
:1019F00098F0EF2DF02FA12FBD2F80E090E04C2F1D
:101A000050E08417950734F4219131912D933D9343
:101A10000196F7CF1092A401DF91CF911F910F9102
:101A2000FF900895CF93DF9397FF0DC0FB012281B4
:101A3000222349F0EC010E94660DCE019F770E949F
:101A4000A70D0E94900D81E0DF91CF9108958CE069
:101A500090E00E94F32E90E0A0E0B0E0809384023A
:101A600090938502A0938602B093870280913C02F6
:101A700080FF0EC0809184021F928F9383E493E0D5
:101A80009F938F930E9426080F900F900F900F90B6
:101A90000895609184028CE090E00C94012F809373
:101AA00084020E94490D80913C0280FF0EC080910B
:101AB00084021F928F9384E293E09F938F930E94FE
:101AC00026080F900F900F900F9008950E94531BBF
:101AD000809388020E94661B80918402813071F09D
:101AE00048F0823081F08430A1F486EE0E94D61254
:101AF00088E10DC082EE0E94BF110BC088E193E027
:101B00000E94880806C082EE0E94BF1187E50E94ED
:101B1000D6128FE39CE90197F1F700C00000089509
:101B200080918402813039F040F0823031F084308D
:101B300051F488E206C08CE204C082EE0E946E126C
:101B400002C00E94D612809188020C94631B0F93EE
:101B50001F93CF93DF938C01CCE0D0E0C8010C2E13
:101B600002C0969587950A94E2F78F700E94EE085E
:101B70000E94D6122497CC3F8FEFD80779F7DF91D8
:101B8000CF911F910F9108950F931F93CF93DF93E0
:101B9000EC018B01FB018281882351F00E94531BD1
:101BA000CE01815E9C458530910510F40E944F0D59
:101BB000B801CE01DF91CF911F910F910C94120DBE
:101BC0000F931F93CF93DF93C62FD42F122FFC01B7
:101BD00082818823C9F06093A7010E94421E9093DE
:101BE000A6018093A50180E28C0F883008F057C0D1
:101BF000C77081E001C0880FCA95EAF7DF91CF91E5
:101C00001F910F910C94E9128091A701681330C0C5
:101C10008091A5019091A6010E945A1E883C9105D1
:101C200038F500E20D0FCD17B9F080E28C0F883047
:101C300040F4C77081E001C0880FCA95EAF70E949E
:101C4000F012083028F581E09D2F977001C0880FB1
:101C50009A95EAF70E94E912812F0E94D612083065
:101C6000F0F4D77081E001C0880FDA95EAF70AC076
:101C700080E28C0F883098F4C77081E001C0880F33
:101C8000CA95EAF7DF91CF911F910F910C94F01252
:101C9000812FDF91CF911F910F910C94D612DF917C
:101CA000CF911F910F9108959C01CB01233F4CE5EB
:101CB0003407F9F078F4283DFCE53F07B9F0293DF9
:101CC0004CE5340711F1273D3C4531F526E241EE64
:101CD00061EE1EC0253FFCE53F0799F070F0263FFE
:101CE0003C45D1F427E245EE66EE12C027E245EE10
:101CF0000EC026E241EE60EE0BC027E245EE64EE38
:101D000007C026E241EE62EE03C028E241E065EE44
:101D10000E94E00D80E00895FC018281882319F083
:101D20001092A701089581E00895CF93DF93EC010D
:101D3000FB018281882309F41FC1C230FCE5DF0763
:101D400008F41BC1C6319CE5D90738F09E012A5F13
:101D50003C452930310508F010C10E94441C909385
:101D60008E0280938D02C031ECE5DE0709F4C3C01A
:101D700008F041C0C8308CE5D80709F49AC0F0F4E7
:101D8000C430ECE5DE0709F487C068F4C2308CE5A6
:101D9000D80709F477C0C330DC4509F0E3C080916F
:101DA0008D02826076C0C630ECE5DE0709F46EC0B5
:101DB00008F07BC080918D0288606BC0CC308CE5D0
:101DC000D80709F485C068F4CA30ECE5DE0709F4E9
:101DD00074C008F079C00E94871580918D028068D8
:101DE00058C0CE308CE5D80709F476C008F07FC023
:101DF00080918D028BC0CB3FECE5DE0709F44FC02C
:101E000018F5C3318CE5D80709F47DC078F4C131E9
:101E1000ECE5DE0709F473C0C231DC4509F0A2C06D
:101E20000E94871580918D028F7733C0C5318CE574
:101E3000D80709F472C008F486C0CA3FDC4509F02F
:101E400091C080918E023EC0CF3FFCE5DF0709F4D0
:101E50005FC058F4CD3F9CE5D90709F444C008F4AD
:101E60003FC080918E0282602DC0C130FDE5DF074A
:101E700009F475C008F45DC0C230DD4509F072C0D8
:101E800080E06EC080918D02816003C080918D02E0
:101E9000806180938D0266C080918D0211C0809117
:101EA0008E02826080938E025DC080918D0280627E
:101EB000F0CF80918D028064ECCF80918D0288609C
:101EC0008460E7CF8160EECF80918D028E7FE1CF7D
:101ED00080918D028D7FDDCF80918D02877FD9CF5C
:101EE00080918E0218C080918E028D7FDBCF809111
:101EF0008D028F7ECECF80918D028F7DCACF809153
:101F00008D028F7BC6CF80918D02877F8B7FC1CF63
:101F100080918E028D7F8E7FC5CF80918D0282FB56
:101F2000222720F991E0922790FB82F990FB83F918
:101F3000B0CF80918E02982F909591708E7F892BD3
:101F400090FB81F9AFCF0E94871580918D0287FBAE
:101F5000222720F991E0922790FB87F99ACF81E020
:101F60000E94D31C80918D0290918E020E94551C7C
:101F70000E94871580E001C081E0DF91CF91089534
:101F8000CF93DF9386319C4541F5EB010E94531BB3
:101F9000982F8A812091000130910101882379F0E6
:101FA0009A7A81E009F480E08093A801911102C03F
:101FB00069E201C065E3C9010E94901D0AC08091D9
:101FC000A801811102C069E201C065E3C9010E9454
:101FD0009B1D0E94A41B80E001C081E0DF91CF9196
:101FE00008959093AE018093AD010895E091AD0105
:101FF000F091AE01309721F00190F081E02D09942D
:1020000080E00895EF92FF921F93CF93DF93FC013E
:10201000A091AD01B091AE01109709F442C080913A
:102020001401882341F080918D0287FF04C08081D4
:10203000818385E08083EF011296ED91FC911397E7
:10204000CE01099580913C0282FF2BC080FF04C025
:102050008BE693E00E948D0718E085E6E82E83E08A
:10206000F82E80913C0280FF0BC088811F928F93D5
:10207000FF92EF920E9426080F900F900F900F9002
:10208000115021961111EDCF80913C0280FF09C0C3
:1020900083E693E0DF91CF911F91FF90EF900C9436
:1020A0008D07DF91CF911F91FF90EF900895E09100
:1020B000AD01F091AE01309739F022E0DC012C93B4
:1020C0000480F581E02D099408952091AB013091B1
:1020D000AC012817390771F09093AC018093AB01E4
:1020E000E091AD01F091AE01309721F00680F781CB
:1020F000E02D099408952091A9013091AA01281793
:10210000390771F09093AA018093A901E091AD0184
:10211000F091AE01309721F00084F185E02D099413
:10212000089585B7806885BF85B7806885BF0895A5
:1021300008950C9498100C9499100C9498100C9489
:1021400098100E9491100E949D100C949B1081E0A9
:1021500008950C94A7100E94391E0E94E60B0E945D
:10216000A01E0C949F10CF93C82F80913C0282FF39
:102170001EC080FF04C084E893E00E948D07809118
:102180003C0280FF0CC01F92CF938FE793E09F9398
:102190008F930E9426080F900F900F900F908091C0
:1021A0003C0280FF04C08DE793E00E948D078C2FD6
:1021B000CF910C9403097F928F929F92AF92BF921E
:1021C000CF92DF92EF92FF920F931F93CF93DF9303
:1021D000CDB7DEB72A970FB6F894DEBF0FBECDBFDE
:1021E0000E944A0C0E94A910811111C08FEF8983AF
:1021F0008A831B820E94421E8160782F9D838C837C
:1022000049815A816B818D810E948B114FC040EBB7
:10221000A42E41E0B42E00E010E0702E802F0E942A
:10222000890B6C01F501819091905F0188269926B8
:102230008114910431F40F5F1F4F0430110569F7C9
:10224000D5CF80913C0281FD0E94920B80E0EE246C
:10225000E394F12C94012E213F21232B09F18E834D
:102260007F82CE20DF2081E0CD2809F480E08887BE
:102270000E94421E8160782F9A8789874E815F81F4
:1022800068858A850E948B11000F111FF801E055A7
:10229000FE4F80819181E826F926F182E08206C016
:1022A0008F5FEE0CFF1C8B30A9F6C5CF0E94B420C7
:1022B0000E94F60F9091AF018917C9F00E94F60FA6
:1022C0008093AF012A960FB6F894DEBF0FBECDBF44
:1022D000DF91CF911F910F91FF90EF90DF90CF9002
:1022E000BF90AF909F908F907F900C94B3102A96E0
:1022F0000FB6F894DEBF0FBECDBFDF91CF911F9117
:102300000F91FF90EF90DF90CF90BF90AF909F9094
:102310008F907F900895CF93DF93CDB7DEB72B9743
:102320000FB6F894DEBF0FBECDBF4F8358876987C5
:102330007A878B87DE01119686E0FD0111928A95DE
:10234000E9F785E0FE01379601900D928A95E1F755
:1023500049815A816B817C818D819E810E944018C8
:102360002B960FB6F894DEBF0FBECDBFDF91CF9195
:102370000895FC01808191810E94141B0895CF93E0
:10238000882309F4A9C0C82F8238C1F40E94F60F2F
:1023900081FDA2C069E380910001909101010E943A
:1023A000901D0E94A41B2FEF81EE94E021508040ED
:1023B0009040E1F700C0000069E319C0833801F5DF
:1023C0000E94F60F80FD88C063E580910001909126
:1023D00001010E94901D0E94A41B2FEF81EE94E04A
:1023E000215080409040E1F700C0000063E58091FB
:1023F0000001909101010E949B1DCF910C94A41BA0
:102400008438C1F40E94F60F82FD66C067E48091B3
:102410000001909101010E94901D0E94A41B2FEFCA
:1024200081EE94E0215080409040E1F700C0000030
:1024300067E4DDCF8CEF8C0F813AF8F48C2F0E948B
:10244000AD25811149C06C2F80910001909101014F
:102450000E94EE1C882349F06C2F8091000190911E
:1024600001010E949B1D0E94A41B6C2F8091000102
:10247000909101010E94901DC0CF80E28C0F8830A6
:1024800048F4C77081E001C0880FCA95EAF70E943E
:10249000561BB3CFEBE5EC0FE33040F4F0E0ED5723
:1024A000FE4F808190E0CF910C946510E8E5EC0F31
:1024B000E73150F4F0E0EE0FFF1FEB5AFE4F808142
:1024C0009181CF910C947B10C03F30F08C2F0E94F3
:1024D0003A1FCF910C942720CF910895882309F4B7
:1024E00064C0823879F40E94F60F81FF5EC069E310
:1024F00080910001909101010E94901D0E94A41BF7
:1025000069E310C08338B1F40E94F60F80FF4DC01C
:1025100063E580910001909101010E94901D0E944D
:10252000A41B63E580910001909101010E949B1D15
:102530000C94A41B843879F40E94F60F82FF35C0F6
:1025400067E480910001909101010E94901D0E941A
:10255000A41B67E4E7CF9CEF980F913A10F4682F23
:10256000E1CF90E2980F983050F4877091E001C06D
:10257000990F8A95EAF7892F0E945C1BD9CF9BE5BA
:10258000980F933020F480E090E00C94651098E56B
:10259000980F973120F480E090E00C947B10803FFE
:1025A00020F00E94A21F0C9427200895CF93C82FDB
:1025B0000E94BF11C93349F42FEF87EE93E02150F9
:1025C00080409040E1F700C000008C2FCF910C9428
:1025D0006E12882321F00E94561B0C94A41B0895B0
:1025E000882321F00E945C1B0C94A41B0895CF92B9
:1025F000DF92EF92FF920F931F93CF93DF937C01B3
:10260000062FC72FFC01158112951F70D281D111A1
:102610000E94761B0E944C1B882399F0DD2389F0D1
:102620008C2F807F803421F080E2800F883048F04A
:1026300082E00E94EE1B0E944C1B91E0D82ED9260E
:1026400001C0D12CCC2EC2948FE0C8228C2D90E0FA
:10265000FC01EA5AFF4F0C94D92E8C2F807FCF704B
:10266000882311F0C295C07FDD2399F0CC2309F4B3
:102670008DC180E2800F883010F0011104C08C2FD2
:102680000E94561B03C08C2F0E94691B0E94A41B32
:102690007DC1802F0E946E12CC2309F49CC180E280
:1026A000800F883010F0011104C08C2F0E945C1B39
:1026B00003C08C2F0E946F1B0E94A41B8CC18C2F07
:1026C000807FCF70803211F0C295C07F002319F057
:1026D0000130C9F022C0DD2371F0112341F0113027
:1026E00031F40E94891B8C2B0E94911B74C10E94A3
:1026F000891B8C2B1DC0112319F0113009F46BC1FB
:102700000E949A1B25C0DD2321F0163008F063C11A
:102710000EC0153008F05FC11BC0DD2361F011232E
:1027200031F0F701858180FF31C18F7085838C2F57
:102730000E94E91250C1112359F0093309F037C141
:10274000FFEF27EE83E0F15020408040E1F72DC1FC
:102750008C2F0E94F0123FC18C2F86958695837036
:1027600019F0813061F037C1DD2321F0802F9C2FDB
:10277000937002C080E090E00E94651034C1DD23B8
:1027800021F0802F9C2F937002C080E090E00E9487
:102790007B1029C1802FDD2319F00E943A1F02C04F
:1027A0000E94A21F0E9427201EC18C2F837009F057
:1027B00045C0D11114C1402F429546954770440F32
:1027C000440F602F6F70862F90E0A0E0B0E0042EE1
:1027D00004C0880F991FAA1FBB1F0A94D2F704FFD9
:1027E00010C00FE010E020E030E004C0000F111F27
:1027F000221F331F4A95D2F70095109520953095EA
:1028000003C000E010E09801C695C695C370BC01F6
:10281000CD01602B712B822B932BC23049F058F4E1
:10282000C13019F00E949119DAC00E947F19D7C0F7
:102830000E94A319D4C00E947D19D1C0DD2319F0D4
:102840008C2F817001C08695882309F4C8C0402F61
:10285000429546954770440F440F602F6F70862F46
:1028600090E0A0E0B0E0042E04C0880F991FAA1FDA
:10287000BB1F0A94D2F704FF10C00FE010E020E065
:1028800030E004C0000F111F221F331F4A95D2F7FA
:10289000009510952095309503C000E010E0980158
:1028A000C695C695C370BC01CD01602B712B822BE0
:1028B000932BC23049F058F4C13019F00E94561AD7
:1028C0008EC00E94441A8BC00E94681A88C00E9461
:1028D000B71985C0CF70DD2339F08C2F0E94DD1928
:1028E000802F0E94E9127BC0802F0E94F0128C2F53
:1028F0000E94FE1974C0023F01F128F4003F41F02C
:10290000013FA1F03FC0033FF9F0043F39F13AC065
:10291000DD2341F0153008F05EC08C2F8F710E94CE
:10292000231A59C0163008F056C0F7CFDD2339F00E
:102930008C2F8F710E94DD194EC0DD23C9F38C2FBF
:102940008F710E94FE1947C0DD2329F08C2F8F71F3
:102950000E94C81940C00E94C3193DC0DD2349F040
:10296000CF718C2F0E94DD1963E08C2F0E94D91B40
:1029700032C081E00E94EE1B123068F182E00E94BA
:10298000EE1B29C0DD2331F0112391F2802F0E942C
:10299000BF1121C0112399F2093349F49FEFE7EEEB
:1029A000F3E09150E040F040E1F700C00000802FDC
:1029B0000E946E1210C04C2F4F70602FC7010E94F2
:1029C0007B090E94EE180FC04C2F4F70602FC7017B
:1029D0000E947E0908C088EF8C0D843020F40E948C
:1029E000F60F0E940309DD20C9F00E94481B80FDFC
:1029F00015C0F70112820E94421B0E94DD19C70117
:102A00000E942F150E94421BDF91CF911F910F91C1
:102A1000FF90EF90DF90CF900C94FE19DF91CF9153
:102A20001F910F91FF90EF90DF90CF9008950F933B
:102A30001F93CF93DF93EC01688179818A810E9493
:102A40001F1B8C010E947A1A0E946B19B801CE01DB
:102A50000E94F712DF91CF911F910F910895CF93AC
:102A6000DF93EC01988189812B813C81232B31F00C
:102A70008F3F31F481E09F3F19F403C081E001C032
:102A800080E080FD19C0CE010E941C0981110CC09C
:102A90000E944C1B882381F08A81882369F082E0A0
:102AA000DF91CF910C94EE1BCE010E941715CE0141
:102AB000DF91CF910C94D708DF91CF9108958823AF
:102AC00021F00E94691B0C94A41B0895882321F017
:102AD0000E946F1B0C94A41B08950E94761B0E94F9
:102AE000861B0E94A41B0E94D3210E94272080E005
:102AF00090E00E94651080E090E00C947B10809143
:102B00000001909101010E94A61D0C946D150E9478
:102B1000661B0C947F15E92FE295EF704E2F50E065
:102B2000FA013297EE30F105B0F4EA59FF4F0C94F8
:102B3000D92E803F91F018F4883E68F40EC0843F8F
:102B400051F40BC0883E48F0813F29F406C093FB46
:102B5000882780F9089580E0089581E008950E9413
:102B6000141B0E948B150895CF93DF9300D000D0E3
:102B70001F92CDB7DEB70F900F900F900F900F9070
:102B8000DF91CF910895CF93DF9300D000D000D094
:102B9000CDB7DEB726960FB6F894DEBF0FBECDBF19
:102BA000DF91CF9108951F93CF93DF93C091B90127
:102BB00016E08091BA01C81799F0D0E01C9FF0018F
:102BC0001D9FF00D1124E554FE4F4081518162811B
:102BD0007381848195810E94C3152196C770E9CFC6
:102BE000DF91CF911F9108954091EB015091EC013D
:102BF0006091ED017091EE018091EF019091F001F3
:102C00000C94C3150F931F93CF93DF938091F00122
:102C100082958F7009F05DC08091ED01882309F4E1
:102C200058C08091B9011091BA016091EB01709187
:102C3000EC01C091EE01D091EF0191E06F3F09F0FE
:102C400090E0292F06E0811709F443C0209721F076
:102C50007F3F21F030E003C031E001C0322F90E02F
:102C600030FD34C0089FF001099FF00D1124DF01F1
:102C7000A554BE4F11963C911197371327C03C9134
:102C8000361324C012963C91129731111FC013962F
:102C90004D915C9114974C1B5D0B483C5105B0F471
:102CA0008091F0018F7080618093F001E054FE4FBD
:102CB00080818F70806180838BEE91E00E942F1560
:102CC000DF91CF911F910F910C94D31501968770CE
:102CD000BACFDF91CF911F910F9108959F92AF923C
:102CE000BF92CF92DF92EF92FF920F931F93CF93F9
:102CF000DF93CDB7DEB761970FB6F894DEBF0FBE96
:102D0000CDBF8C0185E0F801DE011D9601900D928A
:102D10008A95E1F7F80140815181E2809091EB01C1
:102D20006091EC012091EE013091EF012115310508
:102D300031F06F3F31F481E09F3F19F403C081E02F
:102D400001C080E0F82FF1709F2E80FD46C1F80190
:102D5000A380B4808BEEC82E81E0D82EF090ED01D8
:102D6000F501E21BF30BFF2009F4DFC08091F001B5
:102D7000E83CF10508F09BC0282F207F09F052C0E5
:102D8000561313C0491311C0FE2CE1100EC08F70F2
:102D900080618093F0010E94F415C6010E942F15F6
:102DA0008091F001F801858358C1AB2831F05F3F75
:102DB00031F481E04F3F19F403C081E001C080E0AD
:102DC00080FD03C081E08E2502C080E090E0F82FF6
:102DD000F170FF2E80FF1CC08091B9012091BA01D3
:102DE00036E0821709F417C190E0389FF001399F4F
:102DF000F00D1124E554FE4F6181561306C0608129
:102E0000461303C06281E61203C001968770E9CFC2
:102E1000FE2CEE2009F421C18091F00181608093A5
:102E2000F0015AC0561306C0491304C0E11002C095
:102E3000F8019FC04D875E878D859E850E94AF15E6
:102E4000882379F1EE2069F12091F001822F82959B
:102E50008F7090E0029774F08091EB019091EC01FB
:102E600098878F831986BB86AA862C87CE01079602
:102E70000E942F1586E0F801ABEEB1E001900D92B3
:102E80008A95E1F70E9402160E94F4150DC05617AC
:102E900029F14D875E878D859E850E94AF15811132
:102EA0002CC0C8010E942F15FF24F394D6C0282FF0
:102EB000207F69F77A2DB98AA88A6E2D89890E94A8
:102EC000B4158BEE91E00E942F1586E0F601119269
:102ED0008A95E9F70E94F415F12CBFC04913D9CFA8
:102EE000E110D7CFF8018583C8010E942F1586E035
:102EF000F60111928A95E9F7B0C0EE2091F2209187
:102F0000F001822F82958F7090E002970CF4B2CF7F
:102F10008091EB019091EC019A8389831B82BD82A1
:102F2000AC822E83CE010196A3CFE83CF10508F0D8
:102F300047C0FE2CEE2009F4B4CF561330C049131D
:102F40002EC02091F00120FD21C0822F82958F702C
:102F5000482F50E041155105C9F0F80125834F3045
:102F6000510541F08F5F982F9295907F822F8F703F
:102F7000892B8583C8010E942F1586E0F801ABEEEE
:102F8000B1E001900D928A95E1F742C086E0F80128
:102F9000ABEEB1E001900D928A95E1F75EC04D87EE
:102FA0005E878D859E850E94AF15811163CF8091CC
:102FB000F00181608093F001C8010E942F154DC07F
:102FC0007A2DB98AA88A6E2D89890E94B41586E067
:102FD000F60111928A95E9F71BC0EE2009F461CF42
:102FE0004D875E878D859E850E94AF15F82E8823BC
:102FF00009F457CF86E0F801ABEEB1E001900D92F5
:103000008A95E1F78BEE91E00E94B9110E940216B9
:103010000E94F41522C04D875E878D859E850E9493
:10302000141B292F22952F70223028F49F7039F01D
:10303000811105C00BC0243028F49F7049F4805ED4
:10304000883020F0C8010E942F159F2CF92C05C054
:10305000F8019581907F99F7F9CF8F2D61960FB682
:10306000F894DEBF0FBECDBFDF91CF911F910F91BE
:10307000FF90EF90DF90CF90BF90AF909F9008951A
:103080001F93CF93DF93CDB7DEB72C970FB6F8948D
:10309000DEBF0FBECDBF4F83588769877A878B8786
:1030A0009C87CE0107960E946E168823D1F09F81DF
:1030B00088852A853B85232B31F08F3F31F481E0D1
:1030C0009F3F19F403C081E001C080E080FD47C04C
:1030D0004F81588569857A858B859C850E94C315AB
:1030E0003EC086E0FE013796DE01119601900D92FA
:1030F0008A95E1F7FF81E8856A857B856115710511
:1031000031F0EF3F31F481E0FF3F19F403C081E07B
:1031100001C080E080FD23C02091BA0130E0C901E8
:103120000196877099274091B90150E0841795075F
:10313000F1F1F983EA837D836C8396E0929FD0015D
:10314000939FB00D1124A554BE4FFE0131960190FE
:103150000D929A95E1F78093BA010E94D31516E07B
:103160008091B9019091BA01891771F1189FC0013E
:10317000112485549E4F0E946E16882329F1E091F8
:10318000B9011E9FF0011124E554FE4F4081518189
:1031900062817381848195810E94C3158091B901F8
:1031A00090E00196877099278093B901D9CF0E944A
:1031B00087151092BA011092B901EBEEF1E086E0AA
:1031C000DF011D928A95E9F72C960FB6F894DEBFC1
:1031D0000FBECDBFDF91CF911F910895EF92FF9267
:1031E0000F931F93CF93DF938C01892B09F46CC04D
:1031F000F12CEE24E394E8012196F80184918437C0
:1032000040F4843008F051C0813081F0823019F1EF
:103210005BC0853709F444C0A8F19CE7980F90374C
:1032200008F052C08F770E946E1241C00E5F1F4F90
:10323000FE01849190E2980F983050F48770FE2D33
:1032400001C0FF0F8A95EAF78F2F0E94791B14C0E7
:103250000E94BF112DC00E5F1F4FFE01849190E2AE
:10326000980F983060F48770FE2D01C0FF0F8A958B
:10327000EAF78F2F0E947F1B0E94A41B19C00E9497
:103280006E1216C00E5F1F4FFE01C491CC2381F059
:103290008FE99FE00197F1F700C00000C150F6CF21
:1032A0000E5F1F4FFE01F49003C00E94BF118E01FC
:1032B0008F2D882309F49FCFEFE9FFE03197F1F7D5
:1032C00000C000008150F5CFDF91CF911F910F9189
:1032D000FF90EF900895089508950C946C190C9444
:1032E0006D190E946F1960931302709314028093FA
:1032F0001502909316020C946D150C9471190F938E
:103300001F93009113021091140220911502309125
:103310001602602B712B822B932B1F910F910C9413
:1033200071190F931F9300911302109114022091B1
:1033300015023091160260237123822393231F917B
:103340000F910C9471190F931F9300911302109118
:1033500014022091150230911602602771278227EE
:1033600093271F910F910C9471190C946C190E9462
:10337000B51960930F02709310028093110290931D
:1033800012020C946D1560E070E0CB010C94B7193B
:103390000F931F9341E050E060E070E08A019B01D1
:1033A00004C0000F111F221F331F8A95D2F7C901D5
:1033B000B8011F910F910C94B7190F931F9341E01F
:1033C00050E060E070E004C0440F551F661F771F97
:1033D0008A95D2F780910F0290911002A09111026C
:1033E000B09112028A019B01082B192B2A2B3B2B2F
:1033F000C901B8011F910F910C94B7190F931F9336
:1034000041E050E060E070E004C0440F551F661FCB
:10341000771F8A95D2F74095509560957095809169
:103420000F0290911002A0911102B09112028A0134
:103430009B01082319232A233B23C901B8011F91AB
:103440000F910C94B7190F931F9341E050E060E087
:1034500070E004C0440F551F661F771F8A95D2F78E
:1034600080910F0290911002A0911102B09112026E
:103470008A019B01082719272A273B27C901B80180
:103480001F910F910C94B7190F931F9300910F0286
:10349000109110022091110230911202602B712BB9
:1034A000822B932B1F910F910C94B7190F931F939D
:1034B00000910F021091100220911102309112021E
:1034C00060237123822393231F910F910C94B719CA
:1034D0000F931F9300910F0210911002209111027F
:1034E0003091120260277127822793271F910F9135
:1034F0000C94B71908952BE0929F800D1124E82FAA
:10350000E695E695E695877051E001C0550F8A95DE
:10351000EAF785E0E89FF0011124EF50FE4F20E02C
:1035200030E070E04081CB01022E02C09695879575
:103530000A94E2F7817081958427852384278193FB
:103540002F5F3F4F2530310569F708952BE0929F9B
:10355000800D1124682F669566956695982F977053
:1035600085E0689FB001112440E050E080E0FB015D
:10357000E40FF51FEF50FE4F208130E0092E02C00E
:10358000369527950A94E2F721703327042E01C05F
:10359000220F0A94EAF7822B4F5F5F4F45305105A7
:1035A00031F70895BF92CF92DF92EF92FF920F937F
:1035B0001F93CF93DF938C01C0900F02D090100225
:1035C000E0901102F0901202809113029091140287
:1035D000A0911502B0911602C82AD92AEA2AFB2A1C
:1035E000CFE1D0E0D701C6010C2E04C0B695A79557
:1035F000979587950A94D2F780FD04C0219790F79C
:10360000B12C07C0BC2EB8018C2F0E949A090197DB
:10361000A9F38B2DDF91CF911F910F91FF90EF9028
:10362000DF90CF90BF900895CF93DF93EC010E947D
:10363000D21ABE010E949A09DF91CF9108951F937B
:10364000CF93DF93EB019091B801992321F0CB0147
:103650000E94141B13C0882349F0CB010E94D21A88
:10366000182F682FCE010E947B1A04C0CB010E9444
:10367000A61A182FBE01812F0E949A09DF91CF91BF
:103680001F910895809117028595859585950895D8
:10369000809117028770089590911702977081E0CA
:1036A00009F480E0089580913B02089590913B02D7
:1036B000892B80933B020895809590913B0289234A
:1036C00080933B02089580933B02089510923B0241
:1036D000089590913A02892B80933A02089580953B
:1036E00090913A02892380933A02089510923A0207
:1036F000089590913902892B80933902089580951D
:1037000090913902892380933902089510923902E9
:10371000089580911802089508950C948C1B0C94C0
:103720008D1B90911802981721F0809318020C9429
:103730008F1B089580911802882329F01092180297
:1037400080E00C948F1B0895E0910001F09101013D
:1037500080913B028083E0910001F0910101908112
:1037600080913A02892B8083E0910001F091010160
:10377000908180913902892B80838091180288235F
:1037800081F0E0910001F09101019081892B80830B
:1037900080910001909101010E94D81C81110E942A
:1037A0009A1B80910001909101010C9402100C94DD
:1037B0008C1B98E0899F90011124262B20931702DF
:1037C0000E94DD19809117028595859585950C9449
:1037D000D71B1092170280E00C94D71B2091170280
:1037E0008095822380931702982F977079F430E0A8
:1037F000482F082E000C550B2417350739F08595F6
:10380000859585950E94FE190C94E91B0895909367
:10381000A1018093A00108958295982F937344E0AD
:10382000949F900111248C7C86958695282B822F5D
:103830008575880F2A7A2695822B0895CF93DF937A
:10384000D92F0E940C1CC82F8D2F0E940C1C2C2FCE
:1038500030E0322F2227A901482BCA01DF91CF91F6
:10386000089580E090E00E94FB2E21E08C3E9E4F68
:1038700009F020E0822F089582E090E00C94F32E6E
:1038800083E090E00C94F32ECF9384E090E00E94CC
:10389000F32EC82F81E290E00E94F32E2C2F30E00F
:1038A000A901582BCA01CF910895CF93C92F682F32
:1038B00084E090E00E94012F6C2F81E290E0CF9194
:1038C0000C94012FAB01BC018FE090E00C94132FFE
:1038D000AB01BC0183E190E00C94132F60E070E039
:1038E000CB010C94681C60E070E0CB010E94621C6C
:1038F0000C946E1C6CEE7EEF80E090E00E941F2F17
:1039000060E082E090E00E94012F60E083E090E0C0
:103910000E94012F109213021092140210921502AD
:103920001092160260E084E090E00E94012F60E0B7
:1039300081E290E00E94012F60E085E090E00E942B
:10394000012F60E086E090E00E94012F6FEF87E09A
:1039500090E00E94012F40E050E0BA0188E090E042
:103960000E94132F60E08DE090E00E94012F40E064
:1039700050E0BA0188E190E00E94132F60E087E1F7
:1039800090E00E94012F40E050E0BA018CE190E00D
:103990000E94132F60E080E290E00E94012F0C94BF
:1039A000731C0C947A1C682F8EE090E00C94012F0D
:1039B000FC01329680911401882331F080918D02B0
:1039C00087FF02C09EE101C096E080E0915028F0A0
:1039D00021912223D9F38F5FF9CF0895662351F106
:1039E000209114012223E9F020918D0227FF19C0B4
:1039F000462F4695469546954E31E0F4677021E096
:103A000030E002C0220F331F6A95E2F7FC01E40F99
:103A1000F11D828190E02823392381E0232B69F472
:103A200009C0FC01329608962191621729F0E81727
:103A3000F907D1F780E0089581E008959C01FC0129
:103A400032969FEF80E04191461789F09F3F19F42D
:103A5000411101C0982F8F5F8630A9F79F3F39F041
:103A6000F901E90FF11D97FDFA9562830895089514
:103A70009C012A5F3F4FFC014281461301C0128224
:103A8000019682179307B9F70895262F2695269554
:103A900026952E3170F4FC01E20FF11D677021E0D4
:103AA00030E001C0220F6A95EAF78281282B228339
:103AB000089580913C0280FF0CC01F926F9385EBAC
:103AC00093E09F938F930E9426080F900F900F9082
:103AD0000F900895262F2695269526952E3178F459
:103AE000FC01E20FF11D677021E030E001C0220F00
:103AF0006A95EAF720958281282322830895809190
:103B00003C0280FF0CC01F926F9387E993E09F9364
:103B10008F930E9426080F900F900F900F9008959A
:103B200020911401222329F020918D0227FD0C946D
:103B3000451D0C941E1D20911401222329F0209173
:103B40008D0227FD0C946A1D0C94381D20911401E0
:103B5000FC013296222331F080918D0287FF02C052
:103B60008EE101C086E0DF011D928A95E9F7089594
:103B700008950C94B81D0C94B81DCF930E94BB1DE2
:103B80000E944A0C0E94B91DC0E08C2F0E94890B34
:103B9000892B29F4CF5FC430C1F780E001C081E0F8
:103BA000CF9108950C94B81D0C94D21D0E94D41D81
:103BB00080919302843049F110923D0220E488E123
:103BC00090E00FB6F894A895809360000FBE209304
:103BD000600080E00E9403090E94D41D83B7817FAA
:103BE000846083BF83B7816083BF7894889583B7EF
:103BF0008E7F83BF0FB6F894A8958091600088618E
:103C000080936000109260000FBE08950C94B81D60
:103C10000E9487150E94F60F0E9403090C94061E4D
:103C20001F920F920FB60F9211248F939F93AF9311
:103C3000BF9380913D02811113C0809189029091C0
:103C40008A02A0918B02B0918C024196A11DB11DF8
:103C50008093890290938A02A0938B02B0938C0286
:103C6000BF91AF919F918F910F900FBE0F901F90BA
:103C7000189582E084BD93E095BD9AEF97BD80933F
:103C80006E0008952FB7F8948091890290918A026E
:103C9000A0918B02B0918C022FBF08952FB7F8949A
:103CA0006091890270918A0280918B0290918C02BE
:103CB0002FBF08959C014FB7F8948091890290918D
:103CC0008A02A0918B02B0918C024FBF821B930B92
:103CD000089578941F920F920FB60F9211248F932C
:103CE0009F93AF93BF938091890290918A02A09194
:103CF0008B02B0918C020196A11DB11D80938902A7
:103D000090938A02A0938B02B0938C02BF91AF91E3
:103D10009F918F910F900FBE0F901F90189587E77E
:103D200097E790930108809300089AE088E10FB626
:103D3000F894A895809360000FBE90936000FFCF29
:103D40000E94311C811102C00E94D11C0E943C1CA7
:103D500080933C020E94441C90938E0280938D02BB
:103D60000E94401C682F70E080E090E00C947D1968
:103D70008091450280FF0BC06091070185E0689F3C
:103D8000B001112475956795759567952BC081FFD6
:103D900009C06091070185E0689FB0011124759505
:103DA000679520C082FF07C06091070185E0689F8A
:103DB000B001112417C0909144029923D1F0609171
:103DC0000601961788F72091070185E0289F90014A
:103DD0001124929FA001939F500D112470E0CA01FD
:103DE0000E94C52E6038710540F46115710519F403
:103DF00006C065E070E0862F08958FE7089581E0A2
:103E000008958091450280FF08C06091030170E031
:103E1000759567957595679521C081FF06C060917E
:103E2000030170E07595679519C082FF04C0609129
:103E3000030170E010C090914402992399F06091C1
:103E400002019617A0F780910301899FC0011124F8
:103E500070E00E94C52E6038710540F4611571054F
:103E600019F406C061E070E0862F08958FE7089589
:103E700081E00895803F21F40E94B81E819504C01E
:103E8000813F29F40E94B81E809349020895823F21
:103E900021F40E94B81E819504C0833F29F40E943A
:103EA000B81E809348020895893F19F40E94011FAB
:103EB00005C08A3F31F40E94011F819580934A0218
:103EC00008958B3F21F40E94011F819504C08C3F0F
:103ED00029F40E94011F80934B020895843F21F42E
:103EE00080914702816017C0853F21F4809147028D
:103EF000826011C0863F21F48091470284600BC02C
:103F0000873F21F480914702886005C0883F31F4E3
:103F10008091470280618093470208958D3F21F48C
:103F20008091450281600BC08E3F21F48091450253
:103F3000826005C08F3F29F48091450284608093A0
:103F400045020895803F39F48091490287FF6CC093
:103F50001092490269C0813F29F4809149021816E4
:103F6000BCF362C090914802823F29F497FF5CC085
:103F70001092480259C0833F19F41916CCF354C06B
:103F8000893F41F480914A0218160CF04DC01092FE
:103F90004A024AC08A3F29F480914A0287FF44C0FE
:103FA000F6CF8B3F39F480914B0287FF3DC01092D2
:103FB0004B023AC08C3F29F480914B021816BCF397
:103FC00033C0843F21F4809147028E7F17C0853F24
:103FD00021F4809147028D7F11C0863F21F48091AA
:103FE00047028B7F0BC0873F21F480914702877F78
:103FF00005C0883F31F4809147028F7E809347024D
:1040000013C08D3F21F4809145028E7F0BC08E3FFF
:1040100021F4809145028D7F05C08F3F29F4809166
:1040200045028B7F809345028091480281110EC02A
:104030008091490281110AC080914A02811106C013
:1040400080914B02811102C0109244020895809128
:104050003C0283FF7EC08AEF93E00E948D0780912F
:1040600047021F928F9385EF93E09F938F930E9457
:10407000260883EF93E00E948D0780914802282F45
:10408000082E000C330B3F938F9380EF93E09F93A8
:104090008F930E9426088EEE93E00E948D078091F8
:1040A0004902282F082E000C330B3F938F938BEE81
:1040B00093E09F938F930E94260889EE93E00E94DD
:1040C0008D0780914A02282F082E000C330B3F9356
:1040D0008F9386EE93E09F938F930E94260884EE41
:1040E00093E00E948D0780914B02282F082E000C30
:1040F000330B3F938F9381EE93E09F938F930E94B6
:1041000026088EED93E00E948D07809144021F9255
:104110008F938BED93E09F938F930E94260889EDF8
:1041200093E00E948D07809145021F928F9386ED48
:1041300093E09F938F930E94260883ED93E00E9463
:104140008D078DB79EB74C960FB6F8949EBF0FBEE5
:104150008DBF86E492E00E9457100E94421E909309
:104160004302809342020895CF93DF9300D000D0A2
:1041700000D0CDB7DEB786E0E6E4F2E0DE011196CE
:1041800001900D928A95E1F780914802811105C056
:1041900080914902882309F47AC08091400290916D
:1041A00041020E945A1EAC0190914402992339F0B9
:1041B0002091080130E02417350758F068C020919D
:1041C00009018AE0289F900111242417350718F06F
:1041D0005EC09F3F19F09F5F9093440210924A0285
:1041E00010924B0280914802181624F40E94B81EC7
:1041F000809348028091480287FF05C00E94B81E44
:1042000081958093480280914902181624F40E94F7
:10421000B81E809349028091490287FF05C00E9421
:10422000B81E819580934902309148023323E1F012
:10423000209149022223C1F045EB3403C00111242F
:10424000992319F09093480203C081E080934802BB
:1042500035EB2303C0011124992319F090934902EF
:1042600003C081E0809349020E942720809142028E
:1042700090914302909341028093400286E0FE01B8
:104280003196A6E4B2E001900D928A95E1F7809113
:104290004A02811105C080914B02882309F47AC03B
:1042A00080913E0290913F020E945A1EAC01909173
:1042B0004402992339F02091040130E02417350796
:1042C00058F068C0209105018AE0289F90011124D0
:1042D0002417350718F05EC09F3F19F09F5F909339
:1042E0004402109248021092490280914A02181624
:1042F00024F40E94011F80934A0280914A0287FFA2
:1043000005C00E94011F819580934A0280914B0253
:10431000181624F40E94011F80934B0280914B02D7
:1043200087FF05C00E94011F819580934B02309149
:104330004A023323E1F020914B022223C1F045EBE6
:104340003403C0011124992319F090934A0203C049
:1043500081E080934A0235EB2303C00111249923A5
:1043600019F090934B0203C081E080934B020E94AE
:104370002720809142029091430290933F028093C4
:104380003E0286E0FE013196A6E4B2E001900D9275
:104390008A95E1F726960FB6F894DEBF0FBECDBF23
:1043A000DF91CF910895E6E4F2E086E0DF011D920F
:1043B0008A95E9F7109244021092450208958DE122
:1043C00096E00E948D071F9281E08F931F9285E0F7
:1043D0008F938FEC95E09F938F930E9426080F9008
:1043E0000F900F900F900F900F9008958330E9F188
:1043F00028F4813061F0823009F10895853009F4A4
:1044000062C008F449C0863009F474C008958091F0
:104410000901262F30E0280F311D2F3F310524F4EC
:10442000680F6093090103C08FEF809309018091A9
:1044300009011F928F9388E095E072C08091080176
:10444000262F30E0280F311D2F3F310524F4680F4F
:104450006093080103C08FEF8093080180910801E9
:104460001F928F9386EF94E05BC080910701262F07
:1044700030E0280F311D2F3F310524F4680F609381
:10448000070103C08FEF80930701809107011F92FE
:104490008F9383EE94E044C080910601262F30E094
:1044A000280F311D2F3F310524F4680F609306015A
:1044B00003C08FEF80930601809106011F928F93B6
:1044C0008EEC94E02DC080910301262F30E0280F60
:1044D000311D2F3F310524F4680F6093030103C0A1
:1044E0008FEF80930301809103011F928F9385EBDF
:1044F00094E016C080910201262F30E0280F311D74
:104500002F3F310524F4680F6093020103C08FEF41
:1045100080930201809102011F928F938AE994E0B7
:104520009F938F930E9426080F900F900F900F90EB
:104530000895833081F128F4813059F08230D1F030
:104540000895853009F449C0B8F1863009F456C0A1
:10455000089580910901681720F4861B8093090152
:1045600002C010920901809109011F928F938BE87C
:1045700094E054C080910801681720F4861B809352
:10458000080102C010920801809108011F928F93C8
:1045900089E794E043C080910701681720F4861BE7
:1045A0008093070102C010920701809107011F92BA
:1045B0008F9386E694E032C080910601681720F45C
:1045C000861B8093060102C01092060180910601AD
:1045D0001F928F9381E594E021C0809103016817B9
:1045E00020F4861B8093030102C010920301809186
:1045F00003011F928F9388E394E010C08091020121
:10460000681720F4861B8093020102C010920201F9
:10461000809102011F928F938DE194E09F938F937D
:104620000E9426080F900F900F900F900895CF933F
:10463000C82F1F928F9382E297E09F938F930E94DF
:10464000260881E090E0A0E0B0E0BC01CD0104C00C
:10465000660F771F881F991FCA95D2F70E947D1990
:104660000F900F900F900F90CF910C948715CF93D0
:10467000DF93482F50E0FA013597EF33F10508F04A
:1046800054C2EC58FF4F0C94D92E8DE79CE00E9449
:104690008D0789EB9BE00E948D070E94401C1F92B2
:1046A0008F9386EB9BE09F938F930E94260884EB69
:1046B0009BE00E948D070E943C1CC82F81EA9BE072
:1046C0000E948D071F92CF938CE99BE09F938F935D
:1046D0000E9426088AE99BE00E948D0780E99BE002
:1046E0000E948D078C2F81701F928F938DE89BE025
:1046F0009F938F930E9426088BE89BE00E948D0772
:1047000081E89BE00E948D07C1FB882780F91F92FA
:104710008F938EE79BE09F938F930E9426088CE7F0
:104720009BE00E948D0780E79BE00E948D07C2FB03
:10473000882780F91F928F938DE69BE09F938F933C
:104740000E9426088BE69BE00E948D0782E69BE094
:104750000E948D07C3FBCC27C0F91F92CF938FE532
:104760009BE09F938F930E9426088DE59BE00E941B
:104770008D070E94441CEC0189E49BE00E948D0798
:10478000DF93CF9384E49BE09F938F930E9426084E
:1047900082E49BE00E948D0789E29BE00E948D07E6
:1047A0008C2F81701F928F9386E29BE09F938F9353
:1047B0000E9426088DB79EB780960FB6F8949EBFCC
:1047C0000FBE8DBF84E29BE00E948D078DE09BE0D1
:1047D0000E948D07C1FB882780F91F928F938AE082
:1047E0009BE09F938F930E94260888E09BE00E94A5
:1047F0008D0786EF9AE00E948D078D2F81701F92A2
:104800008F9383EF9AE09F938F930E94260881EF06
:104810009AE00E948D078FED9AE00E948D07D69551
:10482000D1701F92DF938CED9AE09F938F930E943B
:1048300026088AED9AE00E948D0788EC9AE00E9493
:104840008D07C2FB882780F91F928F9385EC9AE031
:104850009F938F930E94260883EC9AE00E948D0715
:1048600081EB9AE00E948D07C3FB882780F91F9295
:104870008F938EEA9AE09F938F930E9426088CEA8A
:104880009AE00E948D0782EA9AE00E948D07C4FB9D
:10489000882780F91F928F938FE99AE09F938F93D7
:1048A0000E9426088DE99AE00E948D078BE89AE025
:1048B0000E948D07C5FB882780F91F928F9388E897
:1048C0009AE09F938F930E94260886E89AE00E94C0
:1048D0008D078AE69AE00E948D07C6FB882780F93B
:1048E0001F928F9387E69AE09F938F930E942608EA
:1048F0008DB79EB780960FB6F8949EBF0FBE8DBF42
:1049000085E69AE00E948D078DE59AE00E948D076A
:10491000C7FBCC27C0F91F92CF938AE59AE09F93FB
:104920008F930E94260888E59AE00E948D070F90D9
:104930000F900F900F9006C08CE69CE00E948D07B0
:104940000E94D11CC1E0F6C086EA98E074C0809154
:104950003C02817F8E7F80933C028FE798E00E942B
:104960008D0788E69CE00E948D0781E080934D02D0
:10497000E9CF8CE49CE00E948D070E940D09E2CFF4
:1049800080913C02C82FC095C170C0FB80F9809314
:104990003C02CC2319F080E49CE0B9C083E39CE0A6
:1049A0000E948D0780913C02897F877F80933C0223
:1049B000C9CF90913C0291FBCC27C0F981E0C82778
:1049C000892FC0FB81F980933C02CC2319F086E249
:1049D0009CE027C088E19CE02EC090913C0292FBB5
:1049E000CC27C0F981E0C827892FC0FB82F98093CA
:1049F0003C02CC2319F089E09CE013C089EF9BE0D6
:104A00001AC090913C0293FBCC27C0F981E0C827E3
:104A1000892FC0FB83F980933C02CC2351F08DEEAB
:104A20009BE00E948D0780913C02816080933C0254
:104A300081C080EE9BE00E948D0784CF80E798E0E4
:104A40000E948D0786E398E00E948D078EE098E033
:104A50000E948D0783ED97E00E948D0788EA97E01A
:104A6000EACF8AE997E00E948D070E94F60F1F9215
:104A70008F9380E897E09F938F930E942608809100
:104A800014011F928F9389E697E09F938F930E9462
:104A90002608809172021F928F9386E597E09F937C
:104AA0008F930E94260880918D0287FB882780F9CA
:104AB0001F928F938EE397E09F938F930E94260817
:104AC0000E944E1E9F938F937F936F9387E297E090
:104AD0009F938F930E9426088DB79EB746960FB678
:104AE000F8949EBF0FBE8DBF2DCF0E948715909169
:104AF0008D0297FBCC27C0F981E0C827892FC0FB26
:104B000087F980938D02CC2329F086ED9BE00E94EB
:104B10008D0710C08BEC9BE08ECF895303C08D5165
:104B200001C080E00E9417230DCF89EC9BE00E941A
:104B30008D07C0E08C2FDF91CF91089580E008951C
:104B40000C949E258E518A3030F4E82FF0E0EA571D
:104B5000FE4F8081089580E00895CF93C82F809103
:104B60004D02813059F020F0823009F445C039C13E
:104B70000E94531B823209F036C104C00E94531BAD
:104B8000823261F48C2F0E94A025811104C08C2FE9
:104B90000E9437232FC081E090E02CC08C2F0E9410
:104BA0009E25811126C0C431E1F070F4CB3081F034
:104BB000C031D1F40E94DF218AE197E00E948D0785
:104BC00082E080934D0215C0C93259F0C83361F4B8
:104BD0008FE798E00E948D078EE197E00E948D0795
:104BE00008C010924D0201C188E197E00E948D0734
:104BF000FCC081E08170FBC0C43228F5CE3108F0E2
:104C0000C1C0CB30A1F1D0F4C73009F0D0C08EE1E3
:104C10008093090182E3809308018AE08093070171
:104C200084E18093060188E08093030188E2809309
:104C300002018EEB95E00E948D07BCC0C33149F1A3
:104C4000C431C1F0B4C0CB3409F4A6C028F4C932D1
:104C500089F0C83361F0ABC0C13509F49BC0C235DF
:104C600009F496C0CE3409F0A2C06AE09BC00E944D
:104C7000DF21A0C080914C02882319F010924C02D1
:104C800099C08BEC95E00E948D0781E080934D02E6
:104C9000AEC085EA95E00E948D0783E995E00E9409
:104CA0008D07809109011F928F9380E995E09F9372
:104CB0008F930E9426088EE895E00E948D078CE76E
:104CC00095E00E948D07809108011F928F9389E7DC
:104CD00095E09F938F930E94260887E795E00E94B6
:104CE0008D0788E695E00E948D07809107011F924D
:104CF0008F9385E695E09F938F930E94260883E625
:104D000095E00E948D0782E595E00E948D078091D5
:104D100006011F928F938FE495E09F938F930E94DB
:104D200026088DE495E00E948D0788E395E00E94B7
:104D30008D07809103011F928F9385E395E09F93E8
:104D40008F930E94260883E395E00E948D078CE1F3
:104D500095E00E948D07809102011F928F9389E157
:104D600095E09F938F930E94260887E195E00E942B
:104D70008D078DB79EB748960FB6F8949EBF0FBEAD
:104D80008DBF18C08C2F0E94A22580934C0212C0A8
:104D900061E003C061E006C06AE080914C020E94BD
:104DA000F62108C080914C020E94992203C08CEB2E
:104DB00095E013C080914C02882369F01F928F9375
:104DC00086EB95E09F938F930E9426080F900F909B
:104DD0000F900F9004C083EB95E00E948D0781E057
:104DE00006C010924D0280E002C080E003CFCF9158
:104DF00008958091710208959FB7F894109250021F
:104E00009FBF90919302943009F057C09091E900B0
:104E10009F703091EC00232F217030FD20E8922B01
:104E200023E02093E9002091EB0020FF43C0209174
:104E3000EE0027FF3FC020914E02222321F0209157
:104E4000E80025FF37C010924E0226E03091E800BE
:104E500035FD15C030919302343061F53091EB008F
:104E600035FD28C0215021F481E080934E0222C0FC
:104E7000EFE9FFE03197F1F700C00000E7CF809342
:104E8000F1008091E80085FD0AC08091E80080FF74
:104E9000FCCF8091E8008E778093E80006C08FB742
:104EA000F89421E0209350028FBF9F709093E90007
:104EB00080E008959F709093E9008FEF0895CF935D
:104EC000DF9300D01F92CDB7DEB79091930294305C
:104ED00019F589837B836A8382E08093E9008FEFF1
:104EE0009091E800815095FD06C095ED9A95F1F7F7
:104EF00000008111F5CF8091E80085FF0DC040E0F2
:104F000050E063E070E0CE0101960E941C2A80917F
:104F1000E8008E778093E8000F900F900F90DF915C
:104F2000CF910895CF93DF93EC010E94FF29823047
:104F300011F0843031F4BE0184E0DF91CF910C9404
:104F40005F27DF91CF910895BC0183E00C945F2728
:104F5000CF93DF93EC010E94FF29823011F084305F
:104F6000F9F482E08093E9008FEF9091E80081509E
:104F700095FD06C095ED9A95F1F700008111F5CFEA
:104F80008091E80085FF0CC040E050E066E070E0F2
:104F9000CE010E941C2A8091E8008E778093E80061
:104FA000DF91CF910895CF93DF93EC010E94FF2909
:104FB000823011F08430D9F580911401882339F0C2
:104FC00080918D0287FF03C060E282E002C068E04A
:104FD00081E08093E9008FEF9091E800815095FD8A
:104FE00006C095ED9A95F1F700008111F5CF8091FB
:104FF000E80085FF1CC080911401811105C040E0CC
:1050000050E068E070E003C070E040E050E0CE01A6
:105010000E941C2A8091E8008E778093E80080E24D
:10502000FE01A1E5B2E001900D928A95E1F7DF91D2
:10503000CF9108958DEA9CE00E948D0780919202A5
:10504000811109C00E94AD2B0E940A2C8091E200C0
:1050500084608093E200089589EA9CE00E948D07B5
:1050600010929202089585EA9CE00C948D0781EAE3
:105070009CE00C948D078DE99CE00E948D070C94B8
:10508000081E20914F022F5F822F62E30E94B92EEB
:10509000992319F020934F02089510924F028091A6
:1050A0005002882371F180919302843041F5809100
:1050B000E9008F702091EC00922F917020FD90E814
:1050C000892B93E09093E9009091EB0090FF14C03E
:1050D0009091EE0097FF10C09091E80095FF03C0FB
:1050E0001092F100F9CF9091E80090FF05C09091E7
:1050F000E8009E779093E8008F708093E90010920B
:105100005002089542E061EC81E00E94262B42E2C9
:1051100061EC82E00E94262B42E261EC83E00C9479
:10512000262B80919502833009F460C030F48130E1
:1051300071F0823009F499C008958A3009F485C06D
:105140008B3009F46BC0893009F0A7C020C0809172
:105150009402813A09F0A1C08091E800877F809392
:10516000E8008091980290919902892B21F460E2E5
:1051700081E592E003C060E080E090E070E00E9492
:10518000672A8091E8008B778093E80008958091EA
:105190009402813209F081C0809198029091990225
:1051A000029708F07AC08091E800877F8093E8003A
:1051B0008091E80082FD05C0809193028111F8CFB3
:1051C0006CC02091F3008091F20090E0922B029746
:1051D00029F48091F1008B7F813021F48091F100DE
:1051E000809371028091E8008B7753C08091940284
:1051F000813A09F052C08091980290919902892BCE
:1052000009F04BC08091E800877F8093E80080918F
:10521000E80080FFFCCF8091140136C08091940299
:105220008132D9F58091980290919902892BA9F544
:105230008091E800877F8093E8000E945B2B80913B
:105240009602809314010C94871580919402813208
:1052500021F58091E800877F8093E8000E945B2B16
:105260008091970280937202089580919402813A0E
:10527000A1F48091E800877F8093E8008091E800A6
:1052800080FFFCCF809172028093F1008091E80052
:105290008E778093E8000C945B2B089584B7877F0A
:1052A00084BF0FB6F894A8958091600088618093C0
:1052B0006000109260000FBE90E080E80FB6F89496
:1052C00080936100909361000FBE0E94A1100E9424
:1052D000AD2B0E940A2C8091E20084608093E20052
:1052E0008CEF96E20E94071C78940E949E2E0E94EA
:1052F000AB108AE091E00E94F10F8CE89CE00E94E4
:105300008D0780919302853089F488E89CE00E94A3
:105310008D070E94D61D80919102882391F30E94EF
:10532000BD1D882371F30E94062AEBCF0E94DB107B
:10533000E8CF0C949B29292F332723303105C9F05E
:1053400060F42130310581F02230310509F047C089
:105350008BE590E025EE3CE046C02132310511F1AD
:105360002232310561F13BC082E190E020E43DE072
:105370003AC099278130910561F040F08230910563
:1053800059F0039761F5E1EBFCE008C0E1EEFCE0C9
:1053900005C0E7ECFCE002C0E7EBFCE0849190E0A4
:1053A0009F0121C063307105D0F4660F771FFB01A8
:1053B000E756FE4F2081318189E090E014C06330D0
:1053C000710568F4FB01EE0FFF1FED56FE4F2081C3
:1053D0003181FB01E057FE4F808190E004C080E006
:1053E00090E020E030E0FA0131832083089580913D
:1053F0009302843011F081E0089582E00895809155
:105400007302811102C00C94F729089580E189BDCF
:1054100082E189BD09B400FEFDCF8091D8008F7D67
:105420008093D8008091E00082608093E0008091BA
:10543000E00081FDFCCF0895CF92DF92EF92FF92C2
:105440000F931F93CF93DF93EC018B017A010E949E
:105450007A2B811133C0E114F10439F0F701808116
:105460009181081B190BC80FD91FC12CD12C011514
:10547000110519F18091E80085FD16C08091E800C2
:105480008E778093E800E114F10449F0F701808100
:105490009181C80ED91ED182C08285E00FC00E94C2
:1054A0007A2B882321F30AC089918093F10001505F
:1054B0001109FFEFCF1ADF0ADACF80E0DF91CF9139
:1054C0001F910F91FF90EF90DF90CF900895209162
:1054D0009A0230919B022617370748F06115710533
:1054E00039F42091E8002E772093E80001C0B9013B
:1054F000FC0120E06115710579F180919302882308
:10550000F1F18530F1F18091E80083FD3CC080919C
:10551000E80082FD2EC08091E80080FFEBCF209153
:10552000F3008091F20090E0922B6115710551F02B
:105530008830910538F421912093F1006150710970
:105540000196F3CF21E0089709F020E08091E80070
:105550008E778093E800CECF2111CFCF0AC0809103
:105560009302882361F0853061F08091E80083FD2B
:105570000AC08091E80082FFF2CF80E0089582E0C7
:10558000089583E0089581E0089520919A02309172
:105590009B022617370748F06115710539F42091F1
:1055A000E8002E772093E80001C0B901FC0120E05B
:1055B0006115710591F180919302882309F440C02F
:1055C000853009F43FC08091E80083FD3DC08091A3
:1055D000E80082FD2FC08091E80080FFE9CF209194
:1055E000F3008091F20090E0922B6115710559F063
:1055F0008830910540F424912093F1003196615058
:1056000071090196F2CF21E0089709F020E080911E
:10561000E8008E778093E800CBCF2111CCCF0AC071
:1056200080919302882361F0853061F08091E800D9
:1056300083FD0AC08091E80082FFF2CF80E00895E8
:1056400082E0089583E0089581E00895982F9730CF
:1056500068F59093E900981739F07091EC0020916B
:10566000ED005091F00003C0242F762F50E021FD73
:1056700002C09F5FECCF3091EB003E7F3093EB0098
:105680003091ED003D7F3093ED003091EB003160C3
:105690003093EB007093EC002093ED005093F000FA
:1056A0002091EE0027FDE5CF80E008958F70809374
:1056B000E90081E008958091940287FF11C08091F4
:1056C000E80082FD05C0809193028111F8CF11C0DE
:1056D0008091E8008B770BC080919302882349F07A
:1056E0008091E80080FFF8CF8091E8008E7780936A
:1056F000E80008952091E4003091E50095E640919E
:10570000EC00842F817040FF23C08091E80080FD71
:105710001DC080919302882399F0853099F0809183
:10572000EB0085FD11C04091E4005091E500241785
:10573000350729F3915011F09A01E1CF84E00895E3
:1057400082E0089583E0089581E0089580E008955F
:105750004091E80042FFDDCF08950E941B2C0E947B
:10576000232CE0EEF0E0808181608083E8EDF0E0C2
:1057700080818F77808319BCA7EDB0E08C918E7FFC
:105780008C9380818F7E80831092920208950F9374
:105790001F93CF93DF930E941B2C0E94232CC8EDF4
:1057A000D0E088818F77888388818068888388812A
:1057B0008F7D888319BC1092930210928F021092F1
:1057C00091021092900200EE10E0F80180818B7F30
:1057D000808388818160888342E060E080E00E946D
:1057E000262BE1EEF0E080818E7F8083E2EEF0E018
:1057F000808181608083808188608083F8018081DE
:105800008E7F8083888180618883DF91CF911F9113
:105810000F910895E8EDF0E080818F7E8083E7EDC1
:10582000F0E080818160808384E082BF81E08093AA
:1058300092020C94C72BE8EDF0E080818E7F80838C
:105840001092E20008951092DA001092E10008959B
:105850001F920F920FB60F9211242F933F934F93E5
:105860005F936F937F938F939F93AF93BF93EF93C8
:10587000FF938091E10082FF0BC08091E20082FFE4
:1058800007C08091E1008B7F8093E1000E94412856
:105890008091DA0080FF1FC08091D80080FF1BC07C
:1058A0008091DA008E7F8093DA008091D90080FFAA
:1058B0000DC080E189BD82E189BD09B400FEFDCF44
:1058C00081E0809393020E941A2805C019BC1092AF
:1058D00093020E942C288091E10080FF19C08091E2
:1058E000E20080FF15C08091E2008E7F8093E2008D
:1058F0008091E20080618093E2008091D800806214
:105900008093D80019BC85E0809393020E943728C9
:105910008091E10084FF30C08091E20084FF2CC0C0
:1059200080E189BD82E189BD09B400FEFDCF80918F
:10593000D8008F7D8093D8008091E1008F7E809386
:10594000E1008091E2008F7E8093E2008091E2008E
:1059500081608093E20080918F02882311F084E0BF
:1059600007C08091E30087FD02C081E001C083E0B1
:10597000809393020E943B288091E10083FF29C01D
:105980008091E20083FF25C08091E100877F8093B2
:10599000E10082E08093930210928F028091E100F7
:1059A0008E7F8093E1008091E2008E7F8093E20001
:1059B0008091E20080618093E20042E060E080E05C
:1059C0000E94262B8091F00088608093F0000E9456
:1059D0003328FF91EF91BF91AF919F918F917F916C
:1059E0006F915F914F913F912F910F900FBE0F904C
:1059F0001F9018951F920F920FB60F9211242F939C
:105A00003F934F935F936F937F938F939F93AF9346
:105A1000BF93CF93DF93EF93FF93C091E900CF70D3
:105A20008091EC00D82FD17080FDD0E81092E90071
:105A30008091F000877F8093F00078940E943E2D43
:105A40001092E9008091F00088608093F000CD2BE7
:105A5000CF70C093E900FF91EF91DF91CF91BF919B
:105A6000AF919F918F917F916F915F914F913F91F6
:105A70002F910F900FBE0F901F9018951F93CF93EB
:105A8000DF93CDB7DEB7AA970FB6F894DEBF0FBE8F
:105A9000CDBFE4E9F2E08091F100819322E0EC399E
:105AA000F207C9F70E9491288091E80083FF2EC178
:105AB0008091940290919502492F50E04A3051050F
:105AC00008F024C1FA01ED54FF4F0C94D92E803810
:105AD00021F0823809F01AC108C08091900290919B
