:100000000C942C070C9473070C9473070C947307CF
:100010000C9473070C9473070C9473070C94730778
:100020000C9473070C9473070C94242D0C94F62DE8
:100030000C94331F0C9473070C9473070C94730780
:100040000C9473070C9473070C9473070C94730748
:100050000C9473070C94A71F0C9473070C947307EC
:100060000C9473070C9473070C9473070C94730728
:100070000C9473070C9473070C9473070C94730718
:100080000C9473070C9473070C9473070C94730708
:100090000C9473070C9473070C9473070C947307F8
:1000A0000C9473070C9473070C9473077A147A14E6
:1000B000AC14AC14F9141915791679165B15F815EA
:1000C000091609166916791679167216FB16FB16AB
:1000D0000D170D1704170D170D170D17FB16FB162F
:1000E00009170D170D170917732561258525FF239E
:1000F0005E265E265E255E265E26B2255E26C62527
:100100003E265E265E265E265E26FA255E265E2654
:10011000E3255E269E255E265E265826582658260E
:100120005826582658265826582658265A265E26D7
:10013000732556255E265E265E265E265E265E2694
:100140005E265E265E265E265A265E265E265E2594
:100150005E265626562656265626562656265626B7
:10016000562656265A26632E8A2E7C2F8A2E7C2FC0
:10017000D62EF92E7C2F4F2F5E2F14001A00080068
:100180001500170000001C0018000C0012001300DE
:1001900004001600070009000A0000000B000D0013
:1001A0000E000F0033001D001B00060019000500A3
:1001B0002A0011001000360037003800E000E2008D
:1001C0002B00E100E30028002C0001512D00340039
:1001D00029001F02240025002600550000002302EC
:1001E0002F0230022F0030002402210022002300C1
:1001F000570000005000510052004F001E026700DF
:100200001E001F00200031002A00210226022702C2
:1002100035023100025335002700E100E3002800D9
:100220002C00010037004C00490049004A005200F0
:100230004D004B00000052004000410042004300CE
:100240004C00500051004F004E00000051003D0096
:100250003E003F0044000000800000000000005C01
:100260002A0000003A003B003C0045000100AA00C3
:10027000E000E100E30028002C0001000000000085
:10028000000044454255473A2064697361626C65D9
:10029000642E0A0044454255473A20656E61626CFF
:1002A00065642E0A000A002530313662003A2000CB
:1002B00025303258000A722F632030313233343502
:1002C000363738394142434445460A00556E696322
:1002D0006F646520696E707574206D6F646520733E
:1002E000657420746F3A2025750A00556E69636F36
:1002F000646520696E707574206D6F646520696E29
:10030000697420746F3A2025750A000A002530327E
:100310005820006B6579626F6172645F7265706FFF
:1003200072743A20000A0025303258006B657962F9
:100330006F6172645F7365745F6C65643A2000641A
:10034000656C5F6B65795F6269743A2063616E27E3
:10035000742064656C3A20253032580A0061646468
:100360005F6B65795F6269743A2063616E27742000
:100370006164643A20253032580A00290A00257544
:10038000002F002575005D280025640020002564ED
:1003900000200025640020002564007C0025303208
:1003A00058006D6F7573656B6579205B62746E7C48
:1003B000782079207620685D287265702F61636CE3
:1003C000293A205B006D6B5F776865656C5F7469C7
:1003D0006D655F746F5F6D6178203D2025640A0054
:1003E0006D6B5F776865656C5F6D61785F73706575
:1003F0006564203D2025640A006D6B5F74696D653E
:100400005F746F5F6D6178203D2025640A006D6B1D
:100410005F6D61785F7370656564203D2025640AB7
:10042000006D6B5F696E74657276616C203D20258E
:10043000640A006D6B5F64656C6179203D20256402
:100440000A006D6B5F776865656C5F74696D655FE9
:10045000746F5F6D6178203D2025640A006D6B5FCD
:10046000776865656C5F6D61785F73706565642042
:100470003D2025640A006D6B5F74696D655F746F64
:100480005F6D6178203D2025640A006D6B5F6D61B2
:10049000785F7370656564203D2025640A006D6B8C
:1004A0005F696E74657276616C203D2025640A0078
:1004B0006D6B5F64656C6179203D2025640A000ADC
:1004C00000257500363A20776865656C5F74696D44
:1004D000655F746F5F6D61783A20000A00257500D2
:1004E000353A20776865656C5F6D61785F7370651C
:1004F00065643A20000A00257500343A2074696D5D
:10050000655F746F5F6D61783A20000A00257500A1
:10051000333A206D61785F73706565643A20000A34
:1005200000257500323A20696E74657276616C2818
:100530006D73293A20000A00257500313A20646560
:100540006C6179282A31306D73293A20000A092D0F
:100550002056616C756573202D0A004D3E004D25B7
:10056000643E20003F007365742064656661756CAD
:10057000740A00433E200077686572652064656CEC
:1005800074613A20637572736F723D25642C207715
:100590006865656C3D25640A5365652068747470F0
:1005A0003A2F2F656E2E77696B6970656469612ECD
:1005B0006F72672F77696B692F4D6F7573655F6B0E
:1005C0006579730A000A092D204D6F7573656B6597
:1005D00079202D0A4553432F713A09717569740AC0
:1005E000313A0964656C6179282A31306D73290AC2
:1005F000323A09696E74657276616C286D73290AE6
:10060000333A096D61785F73706565640A343A093D
:1006100074696D655F746F5F6D61780A353A09774B
:100620006865656C5F6D61785F73706565640A36D7
:100630003A09776865656C5F74696D655F746F5FB3
:100640006D61780A0A703A097072696E7420766179
:100650006C7565730A643A09736574206465666134
:10066000756C74730A75703A092B310A646F776E72
:100670003A092D310A706775703A092B31300A70CA
:1006800067646F776E3A092D31300A0A73706565B9
:1006900064203D2064656C7461202A206D61785F60
:1006A0007370656564202A20287265706561742006
:1006B0002F2074696D655F746F5F6D6178290A0022
:1006C0003F004D3E2000433E20004C25640A00744C
:1006D000696D65725F72656164333228293A20253D
:1006E00030346C580A006B65796D61705F636F6EB2
:1006F0006669672E6E6B726F3A2025580A006B652B
:1007000079626F6172645F69646C653A2025580A8A
:10071000006B6579626F6172645F70726F746F6392
:100720006F6C3A2025580A00686F73745F6B6579A7
:10073000626F6172645F6C65647328293A20255882
:100740000A000A092D20537461747573202D0A0064
:100750004743433A20342E392E32204156522D4CF5
:100760004942433A20312E382E3073766E2041565E
:10077000525F415243483A20617672350A004F5029
:1007800054494F4E533A204C554641204D4F5553F6
:10079000454B45592045585452414B455920434FEC
:1007A0004E534F4C4520434F4D4D414E44204E4BF0
:1007B000524F20343039360A004255494C443A20D1
:1007C00022302E372E33342D31332D673439666481
:1007D00064332D646972747922202830383A3038B5
:1007E0003A3035204F637420203820323031392997
:1007F0000A005649443A203078313230392854655D
:1008000063686E6F6D616E637929205049443A20A8
:100810003078413145352841747265757329205609
:1008200045523A203078303030380A00444553433E
:100830003A20514D4B206B6579626F61726420667E
:1008400069726D7761726520666F7220417472659E
:1008500075730A000A092D2056657273696F6E2040
:100860002D0A000A092D20436F6E736F6C65202DD1
:100870000A4553432F713A09717569740A6D3A0933
:100880006D6F7573656B65790A000A092D204D61DE
:10089000676963202D0A443A094465627567204DF3
:1008A00065737361676520546F67676C650A583AB2
:1008B000094D6174726978204465627567204D6FD7
:1008C000646520546F67676C65202D2053686F77CF
:1008D000206B65797072657373657320696E206D26
:1008E000617472697820677269640A4B3A094B65D2
:1008F00079626F61726420446562756720546F6726
:10090000676C65202D2053686F77206B6579707256
:10091000657373207265706F72740A4D3A0944658D
:10092000627567204D6F75736520546F67676C65DE
:100930000A563A0956657273696F6E0A533A09533B
:1009400074617475730A433A09416374697661741A
:100950006520436F6E736F6C65204D6F64650A464A
:10096000312D4631303A0953776974636820746FCA
:10097000204C6179657220302D3920284631302095
:100980003D204C30290A302D393A09537769746378
:100990006820746F204C6179657220302D390A47C8
:1009A000524156453A0953776974636820746F2041
:1009B0004C6179657220302028616C7465726E61BB
:1009C0007465290A423A094A756D7020746F204295
:1009D0006F6F746C6F616465720A4553433A094ADC
:1009E000756D7020746F20426F6F746C6F616465F9
:1009F000722028616C7465726E617465290A453ACB
:100A0000095072696E7420454550524F4D20536510
:100A10007474696E67730A4253504143453A0943FF
:100A20006C65617220454550524F4D0A4E3A094E51
:100A30004B524F20546F67676C650A000A0025759A
:100A4000002E6E6B726F3A20000A002575002E731F
:100A50007761705F6261636B736C6173685F626121
:100A6000636B73706163653A20000A002575002E80
:100A7000737761705F67726176655F6573633A2053
:100A8000000A002575002E6E6F5F6775693A2000B9
:100A90000A002575002E737761705F72616C745F58
:100AA000726775693A20000A002575002E73776118
:100AB000705F6C616C745F6C6775693A20000A0046
:100AC0002575002E737761705F7263746C5F726757
:100AD00075693A20000A002575002E737761705FF2
:100AE0006C63746C5F6C6775693A20000A00257549
:100AF000002E636170736C6F636B5F746F5F636F05
:100B00006E74726F6C3A20000A002575002E7377A0
:100B100061705F636F6E74726F6C5F636170736C32
:100B20006F636B3A20000A0025303258006B6579FC
:100B30006D61705F636F6E6669672E7261773A20D0
:100B4000000A002575002E6D6F7573653A20000A46
:100B5000002575002E6B6579626F6172643A200022
:100B60000A002575002E6D61747269783A20000ABA
:100B7000002575002E656E61626C653A20000A00E2
:100B8000253032580064656275675F636F6E666911
:100B9000672E7261773A20000A0025750064656649
:100BA00061756C745F6C617965723A20003F004E2C
:100BB0004B524F3A206F66660A004E4B524F3A2016
:100BC0006F6E0A000A6D6F7573653A206F66660A6C
:100BD000000A6D6F7573653A206F6E0A000A6B65C7
:100BE00079626F6172643A206F66660A000A6B650B
:100BF00079626F6172643A206F6E0A000A6D6174E7
:100C00007269783A206F66660A000A6D61747269CB
:100C1000783A206F6E0A000A64656275673A206F41
:100C200066660A000A64656275673A206F6E0A009C
:100C30000A0A4A756D70696E6720746F20626F6F63
:100C4000746C6F616465722E2E2E2000433E20006E
:100C5000436C656172696E6720454550524F4D0A7D
:100C6000006565636F6E6669673A0A005B735D00D5
:100C70004B6579626F6172642073746172742E0ABD
:100C8000005B575D005B535D005B525D005B445D44
:100C9000005B435D000403300000000E034100745C
:100CA00000720065007500730000001803540065B1
:100CB00000630068006E006F006D0061006E0063ED
:100CC00000790000000403090409025B000301002D
:100CD000A0FA09040000010301010009211101002B
:100CE000012240000705810308000A0904010001F0
:100CF0000300000009211101000122C00007058244
:100D00000320000A09040200020300000009211167
:100D100001000122220007058303200001070503CB
:100D20000320000112011001000000080912E5A1D2
:100D30000800010203010631FF0974A101097515BC
:100D40000026FF009520750881020976150026FF10
:100D500000952075089102C005010902A1018502D4
:100D60000901A100050919012905150025019505AD
:100D70007501810295017503810105010930093171
:100D80001581257F95027508810609381581257F13
:100D9000950175088106050C0A38021581257F9595
:100DA0000175088106C0C005010980A10185031AEB
:100DB00081002A8300160100260300950175108129
:100DC00000C0050C0901A10185041A01002A9C023A
:100DD000160100269C02950175108100C0050109CD
:100DE00006A1018505050719E029E71500250195EC
:100DF00008750181020507190029EF1500250195E5
:100E0000F075018102050819012905950575019103
:100E100002950175039101C005010906A1010507AD
:100E200019E029E715002501950875018102950152
:100E3000750881010507190029FF150026FF009597
:100E400006750881000508190129059505750191A8
:100E500002950175039101C011241FBECFEFDAE0A6
:100E6000DEBFCDBF04B603FE27C08091360290914D
:100E70003702A0913802B09139028730904BA740D9
:100E8000B04BD1F410923602109237021092380211
:100E90001092390214BE84B7877F84BF0FB6F894CE
:100EA000A895809160008861809360001092600036
:100EB0000FBEE0E0F8E3099511E0A0E0B1E0EAE55B
:100EC000F0E602C005900D92AC33B107D9F722E0ED
:100ED000ACE3B1E001C01D92A633B207E1F70E9476
:100EE0003F2A0C942B300C940000FF93EF93E09179
:100EF0003C01F0913D01309709F00995EF91FF9188
:100F00000895FC018591803011F0EFDFFBCF08954B
:100F1000FF27E0E230E247FF0CC0419597FF09C090
:100F2000EDE26095709580959095611D711D811D14
:100F3000911D27FF02C0219530E350E2AA27660FDA
:100F4000771F881F991FAA1FA41710F0A41B639571
:100F50005A95A9F7AA3008F0A95FA05DAF93F39561
:100F6000611571058105910541F7ED3211F4EF939B
:100F7000F395F21718F43F93F395FBCF8F91B5DFFC
:100F8000FA95E1F70895E991F9918591803021F082
:100F9000853219F0AADFF9CF089520E0E894559141
:100FA0005532C1F3503311F4689455915A3348F4D3
:100FB000505390F3220F022E220F220F200D250FE7
:100FC000F4CF0EF4219589919991533619F3533743
:100FD00029F1533559F1BC0188279927E8945C36EB
:100FE00021F48991999168945591543639F446EFDA
:100FF0007EF077FF0DC08FEF9FEF0AC055374AE0B4
:1010000039F0583540E121F0523642E009F00895B8
:10101000FF93EF937DDFEF91FF91B7CFFF93EF93B6
:10102000FC0181918030B9F360DFFBCFFF93EF9338
:1010300068DFF1CFDF93CF93CDB7DEB72596A3DF7F
:10104000CF91DF9108950F931F93CF93DF939C016E
:101050003A9521153F4148F5EB018C0190FF03C003
:1010600080EEFB01099511FF03C081EEFE01099599
:1010700012FF03C082EEFE01099513FF03C083EE49
:10108000FE0109950115104180F084EEFE010995DD
:1010900085EEFE01099586EEFE01099587EEFE01BB
:1010A000DF91CF911F910F910994DF91CF911F9103
:1010B0000F910895877091E001C0990F8A95EAF722
:1010C000892F0E94B61C0C94EF1C877091E001C020
:1010D000990F8A95EAF7892F0E94B61C0C94EF1C91
:1010E000877091E001C0990F8A95EAF7892F0E94D5
:1010F000BC1C0C94EF1C877091E001C0990F8A957D
:10110000EAF7892F0E94BC1C0C94EF1CCF93DF934D
:10111000EC01805E9109089710F0209719F465E6BC
:1011200078E002C06AE578E0CE010E9423088C2FA7
:10113000DF91CF910C948612CF93DF93EC010E9444
:10114000BF13CE01805E9109089710F0209719F423
:101150006BE778E002C060E778E0CE01DF91CF91E5
:101160000C942308CF93DF93EC010E948608CE01F4
:10117000DF91CF910C949C0881E0089581E008955F
:101180000C94BE081F93CF93DF9300D000D01F9222
:10119000CDB7DEB749835A832091640189819A8152
:1011A000211112C0662349F00E94201C182F682FBD
:1011B00089819A810E94C51B03C00E94F41B182FCD
:1011C00069817A81812F04C00E94201C69817A8103
:1011D0000F900F900F900F900F90DF91CF911F9174
:1011E0000C94EF0AFC0140815181628173818481FA
:1011F0000C94C2080E94881D811102C00E94281E02
:101200000E94310F0C94960D0C94990D282F2F707D
:1012100041F0822F90E02A3010F44D960895069701
:10122000089587E290E0089508950C9414090C94B1
:10123000150908950E94EB160E9419092FEF84E307
:101240009CE0215080409040E1F700C0000087E71B
:1012500097E790930108809300080C94CD1F0F939B
:101260001F93CF93DF938C010E94F208EC01B80129
:101270000E94C008882319F1B801CE010E94CE0F48
:101280008823E9F0B801CE010E946D108823B9F0DF
:10129000C631FCE5DF07A9F008F054C0C130ECE529
:1012A000DE07B1F108F05BC0C115DC4509F071C182
:1012B000F801C281CC2309F488C10E941A09C0E058
:1012C00084C10E94A01C282FF80182814091000156
:1012D00050910101882379F02A7A91E009F490E095
:1012E00090933E01911102C069E201C065E3CA0119
:1012F0000E94B61E0AC080913E01811102C069E2BF
:1013000001C065E3CA010E94C11E0E94EF1CD7CF35
:10131000F801C281CC2309F458C18091E801C82F9B
:10132000C095C170C0FB80F98093E801CC2329F0FF
:1013300084E992E00E948107C2CF82E892E00E9495
:10134000810743C1CE3DECE5DE0709F429C108F46D
:1013500019C1CE018A5F9C45099708F01AC1F801AE
:101360008281882309F415C10E94881D811102C061
:101370000E94281E0E949B1D9093280280932702A2
:10138000C031FCE5DF0709F4BFC008F03FC0C8303A
:10139000ECE5DE0709F496C0F0F4C4308CE5D8071C
:1013A00009F483C068F4C230FCE5DF0709F473C0B8
:1013B000C330DC4509F0DDC080912702826072C035
:1013C000C630ECE5DE0709F46AC008F077C080910A
:1013D0002702886067C0CC308CE5D80709F481C04B
:1013E00058F4CA30FCE5DF0709F470C008F075C096
:1013F00080912702806856C0CE30ECE5DE0709F404
:1014000074C008F07DC08091270289C0CB3F8CE575
:10141000D80709F44DC008F5C331FCE5DF0709F42E
:101420007BC068F4C131ECE5DE0709F471C0C2315C
:10143000DC4509F09EC0809127028F7733C0C5310B
:101440008CE5D80709F472C008F486C0CA3FDC45B1
:1014500009F08FC0809128023EC0CF3F8CE5D807AD
:1014600009F45FC058F4CD3FFCE5DF0709F444C040
:1014700008F43FC08091280282602DC0C130EDE5A4
:10148000DE0709F473C008F45DC0C230DD4509F021
:1014900070C080E06CC080912702816003C08091A1
:1014A000270280618093270264C08091270211C0C7
:1014B000809128028260809328025BC0809127027D
:1014C0008062F0CF809127028064ECCF8091270268
:1014D00088608460E7CF8160EECF809127028E7FA5
:1014E000E1CF809127028D7FDDCF80912702877F1A
:1014F000D9CF8091280218C0809128028D7FDBCF40
:10150000809127028F7ECECF809127028F7DCACF18
:10151000809127028F7BC6CF80912702877F8B7FA8
:10152000C1CF809128028D7F8E7FC5CF8091270209
:1015300082FB222720F991E0922790FB82F990FB11
:1015400083F9B0CF80912802982F909591708E7F6B
:10155000892B90FB81F9AFCF8091270287FB22274F
:1015600020F991E0922790FB87F99CCF81E00E94BF
:101570002A1E80912702909128020E94AC1D0E9491
:10158000EB169DCECC3D8CE5D80789F0CD3DDC45F2
:10159000A1F0C801DF91CF911F910F910C94BC086D
:1015A000F801C281CC2389F00E94281E88CEF80160
:1015B000C281CC2351F080E005C0F801C281CC2368
:1015C00021F082E00E94E72A7ACE8C2FDF91CF9122
:1015D0001F910F91089580E090E0089508959BE099
:1015E000799FF00111249CE2899FE00DF11D1124E7
:1015F000E60FF11DEE0FFF1FE658FE4F8591949107
:101600000895880F991FFC01EB55FD4F859194912A
:101610000895CF93DF930E94EF0A0E94BE0CEC0165
:10162000811520E59207F0F5811530E4930708F065
:1016300024C1883E910500F5803E910508F09AC1CD
:10164000883A910570F4853A910508F09FC0813081
:10165000910509F48FC108F440C1049708F08AC1CC
:101660003CC18F3B910508F49CC0803C910508F477
:1016700034C1805C9109F4C0811540E2940758F4AC
:10168000C11581E0D80708F075C1C03FD10508F445
:1016900024C1D0656FC1811520E3920708F0E4C032
:1016A0009F70DEC0811535E5930708F044C08115B1
:1016B00044E5940708F0F8C0C11582E5D80708F59D
:1016C000C11521E5D20708F0DBC08C2F837021E023
:1016D00030E002C0220F331F8A95E2F73C68CE014A
:1016E00074E0969587957A95E1F78370382BCF70E3
:1016F000C695C69580E2C89FE0011124C22BD32B6A
:1017000039C12C2F26952695CE0183709927C115B6
:10171000D34508F0BAC040E2249F90011124C1E0F3
:10172000D0E002C0CC0FDD1F8A95E2F72C2B3D2BB9
:10173000E901DC681FC1811549E59407A0F4C115D2
:1017400088E5D80708F0B5C0C11526E5D20708F02E
:10175000C4C08C2F0E94520D8F71C82FD0E0DC2F97
:10176000CC27D06207C181153AE5930708F4A6C0DB
:1017700090568115904208F0B0C08D2F8F710E9455
:10178000520DDD27D0628F71D82BF4C0853A9105B8
:1017900009F4A6C0863A910509F0A5C0C2E8D0E4D4
:1017A000E9C0883A910509F4A1C0893A910509F484
:1017B000A0C08A3A910509F49FC08B3A910509F4BB
:1017C0009EC08C3A910509F49DC08B3B910509F4AC
:1017D0009CC08C3B910509F49BC08D3A910509F49E
:1017E0009AC0803B910509F499C08E3A910509F49D
:1017F00098C08F3A910509F497C0813B910509F48F
:1018000096C0823B910509F495C0833B910509F48C
:1018100094C0843B910509F493C0853B910509F47C
:1018200092C0863B910509F491C0873B910509F46C
:1018300090C0883B910509F48FC0893B910509F45C
:101840008EC08D3B910509F48DC08E3B910509F446
:101850008CC08A3B910509F48BC0C0E0D4E48AC0F7
:101860000E94010BEC0186C09927D3FF03C0EC0155
:10187000D86C80C0EC01D06C7DC0DF70D06A7AC0BB
:10188000DC2FCC27C16FD06A75C040E2249F900145
:101890001124C1E0D0E002C0CC0FDD1F8A95E2F731
:1018A000C22BD32BDA6866C0D82FCC27C46FD06A7E
:1018B00061C0DC2FCC27C06FD06A5CC08F700E94E3
:1018C000520D94E0D695C7959A95E1F7CF70D0E088
:1018D000DC2FCC27D069C82B4DC0C0E0D0E04AC077
:1018E000C1E8D0E447C0C3E8D0E444C0C2EED4E4C9
:1018F00041C0C9EED4E43EC0CAEED4E43BC0C5EB5F
:10190000D4E438C0C6EBD4E435C0C3EBD4E432C071
:10191000C4EBD4E42FC0C7EBD4E42CC0CCECD4E4AB
:1019200029C0CDECD4E426C0C3E8D5E423C0CAE87E
:10193000D5E420C0C2E9D5E41DC0C4E9D5E41AC08D
:10194000C1E2D6E417C0C3E2D6E414C0C4E2D6E4D0
:1019500011C0C5E2D6E40EC0C6E2D6E40BC0C7E2B1
:10196000D6E408C0CFE6D4E405C0C0E7D4E402C0A2
:10197000CAE2D6E4CE01DF91CF9108958238910575
:1019800069F1B0F48133910509F46DC048F48932EE
:10199000910509F463C08A32910509F469C008957C
:1019A0008533910509F455C089339105B9F008953F
:1019B000833E910569F138F4803E9105B1F0823E95
:1019C000910509F10895863E9105A9F1873E91059B
:1019D000B9F1843E910509F064C023C0209127022B
:1019E00020FD4FC021FD4DC008958091270280FD4C
:1019F00044C08091280280FF44C08091270284FD6A
:101A000042C083EE4DC08091270282FF38C0F5CFDF
:101A10008091270282FD33C08091280280FD31C071
:101A2000ECCF8091280281FF32C08091270284FD93
:101A30002AC087EE35C08091270283FF26C0F5CFEC
:101A40008091270283FD21C08091280281FD1FC063
:101A5000ECCF8091270285FD1CC01DC0809127021C
:101A600085FD19C016C08091270286FD16C017C0DB
:101A70008091270286FD13C010C089E311C082EE59
:101A80000FC080EE0DC080E00BC086EE09C084EE72
:101A900007C089E205C085E303C08AE201C081E393
:101AA00090E008959091270292FF0DC0282F287191
:101AB000283019F4877F846006C0282F24712430D1
:101AC00011F48B7F886093FF0DC0282F2871283177
:101AD00019F4877E846106C0282F2471243111F403
:101AE0008B7E88612091280220FF0DC0382F38712D
:101AF000383019F4877F816006C0382F317131305A
:101B000011F48E7F886021FF0DC0282F28712831A5
:101B100019F4877E816106C0282F2171213111F4CB
:101B20008E7E886194FD877E089508950C94950DAE
:101B300008950C94980DE82FF0E0EE0FFF1FE15C84
:101B4000FE4F808191810895CF92DF92EF92FF92B4
:101B50000F931F93CF93DF9385EB92E00E94810751
:101B60008FE3E82E81E0F82EC0E0D0E090EBC92EA4
:101B700092E0D92E07EA12E0DF93CF93DF92CF9263
:101B80000E941A088DEA92E00E948107F701819174
:101B900091917F010E946E1D9F938F931F930F93CE
:101BA0000E941A0885EA92E00E94810721968DB76B
:101BB0009EB708960FB6F8949EBF0FBE8DBFC43077
:101BC000D105D1F6DF91CF911F910F91FF90EF904A
:101BD000DF90CF900895AEE1B1E041E050E024E025
:101BE0002A0F8D91E82FE295EF70F0E031A18F7010
:101BF000BA0102C0660F771F8A95E2F7CB01962FD4
:101C00009095932391A392A1892B82A32A13E9CFC4
:101C1000A3E1B1E041E050E02BE02A0F8D91E82FE5
:101C2000E295EF70F0E031A18F70BA0102C0660F4B
:101C3000771F8A95E2F7CB01962F9095932391A376
:101C400092A1892B82A32A13E9CF10924801109206
:101C500047011092400110923F0110924A011092E8
:101C60004901109242011092410110924C011092D0
:101C70004B01109244011092430110924E011092B8
:101C80004D01109246011092450184E00E94E10E40
:101C90000C94FA085F926F927F928F929F92AF920C
:101CA000BF92CF92DF92EF92FF920F931F93CF9349
:101CB000DF930EE111E0A7E4B1E0612CEE24E394A0
:101CC000F12C5D018D909C90119711961C921E92A3
:101CD000E80189918E01E82FE295EF70F0E091A183
:101CE0008F70A70101C0440F8A95EAF7892F842BD2
:101CF00081A382A1542E5094852182A3D0EADA9543
:101D0000F1F783E1C82E81E0D82E80E090E0E60173
:101D100079906E01272D22952F7030E0E90168A19E
:101D20002D913C91119770E0D72DDF7002C0759511
:101D30006795DA95E2F760FD08C0B701082E02C08A
:101D4000660F771F0A94E2F702C060E070E0262B6E
:101D5000372B11963C932E9301968B309105B9F653
:101D600081A1D52DD823D1A382A1482B42A31296BD
:101D700081E0F501208131818216930609F480E02B
:101D8000682AF1E0AF34BF0709F09BCF262D44E06D
:101D90006FE371E087E491E00E94E20E0E94040983
:101DA000862DDF91CF911F910F91FF90EF90DF90E3
:101DB000CF90BF90AF909F908F907F906F905F90EB
:101DC00008950895FF920F931F93CF93DF93F82EFA
:101DD000092F162FD72FC42F222349F081E080939B
:101DE00051010E94651F9093500180934F01809193
:101DF00051018823D9F080914F01909150010E94A8
:101E00007D1F069798F0EF2DF02FA12FBD2F80E0BA
:101E100090E04C2F50E08417950734F421913191D4
:101E20002D933D930196F7CF10925101DF91CF9101
:101E30001F910F91FF900895CF93DF9397FF0DC0EF
:101E4000FB012281222349F0EC010E94700FCE0198
:101E50009F770E94B10F0E949A0F81E0DF91CF918E
:101E600008958CE090E00E94E92F90E0A0E0B0E0BF
:101E700080931C0290931D02A0931E02B0931F0238
:101E80008091E80180FF0EC080911C021F928F9309
:101E90008BEE92E09F938F930E941A080F900F9001
:101EA0000F900F90089560911C028CE090E00C94CC
:101EB000F72F80931C020E94530F8091E80180FF4E
:101EC0000EC080911C021F928F938CEC92E09F9326
:101ED0008F930E941A080F900F900F900F90089503
:101EE0000E94A01C809320020E94B31C80911C02BF
:101EF000813071F048F0823081F08430A1F486EEB8
:101F00000E94271488E10DC082EE0E9486120BC049
:101F100088E193E00E94B20806C082EE0E94861219
:101F200087E50E9427148FE39CE90197F1F700C031
:101F30000000089580911C02813039F040F0823019
:101F400031F0843051F488E206C08CE204C082EEA5
:101F50000E94BF1302C00E942714809120020C949B
:101F6000B01C0F931F93CF93DF938C01CCE0D0E094
:101F7000C8010C2E02C0969587950A94E2F78F70DF
:101F80000E9406090E9427142497CC3F8FEFD807A0
:101F900079F7DF91CF911F910F9108950F931F93C0
:101FA000CF93DF93EC018B01FB018281882301F148
:101FB000C33EFCE5DF07B9F050F4C13EECE5DE07B7
:101FC00081F0C23EFCE5DF0799F481E00FC0C43E1A
:101FD0008CE5D80751F0C53EECE5DE0749F484E016
:101FE00005C080E003C082E001C083E00E94590F79
:101FF000B801CE01DF91CF911F910F910C941C0F6E
:102000000F931F93CF93DF93C62FD42F022FFC0182
:1020100082818823C9F0609354010E94651F9093C8
:1020200053018093520180E28C0F883008F050C039
:10203000C77081E001C0880FCA95EAF7DF91CF91A0
:102040001F910F910C943A1410915401161330C043
:1020500080915201909153010E947D1F883C91050F
:1020600038F5C0E2CD0F1D17B9F080E2810F88303E
:1020700040F4177081E001C0880F1A95EAF70E94BA
:102080004114C83048F481E09D2F977001C0880F3B
:102090009A95EAF70E943A14802F0E942714C830BC
:1020A000B8F4D77081E001C0880FDA95EAF70AC06A
:1020B00080E28C0F883060F4C77081E001C0880F27
:1020C000CA95EAF7DF91CF911F910F910C944114BB
:1020D000DF91CF911F910F9108959C01CB01233F78
:1020E0004CE53407F9F078F4283DFCE53F07B9F0FA
:1020F000293D4CE5340711F1273D3C4531F526E2F9
:1021000041EE61EE1EC0253FFCE53F0799F070F0FF
:10211000263F3C45D1F427E245EE66EE12C027E2A9
:1021200045EE0EC026E241EE60EE0BC027E245EE22
:1021300064EE07C026E241EE62EE03C028E241E011
:1021400065EE0E94001080E00895FC0182818823E2
:1021500019F010925401089581E0089590935A0166
:10216000809359010895E0915901F0915A013097F7
:1021700021F00190F081E02D099480E00895EF9224
:10218000FF921F93CF93DF93FC01A0915901B0916F
:102190005A01109709F442C080911201882341F03E
:1021A0008091270287FF04C08081818385E080833E
:1021B000EF011296ED91FC911397CE010995809154
:1021C000E80182FF2BC080FF04C083E193E00E94FE
:1021D000810718E08DE0E82E83E0F82E8091E80179
:1021E00080FF0BC088811F928F93FF92EF920E9415
:1021F0001A080F900F900F900F9011502196111107
:10220000EDCF8091E80180FF09C08BE093E0DF9182
:10221000CF911F91FF90EF900C948107DF91CF91A8
:102220001F91FF90EF900895E0915901F0915A01AC
:10223000309739F022E0DC012C930480F581E02D09
:1022400009940895209157013091580182179307FE
:1022500071F09093580180935701E0915901F091EA
:102260005A01309721F00680F781E02D09940895F6
:1022700020915501309156018217930771F0909388
:10228000560180935501E0915901F0915A01309720
:1022900021F00084F185E02D0994089585B78068C8
:1022A00085BF85B7806885BF0895089508950C940B
:1022B000561108950C9459110E944E110E94551107
:1022C0000C94571181E008950E945C1F0E94EB0D51
:1022D0000E94DE1F0C945A11CF93C82F8091E80101
:1022E00082FF1EC080FF04C08CE293E00E94810741
:1022F0008091E80180FF0CC01F92CF9387E293E0AA
:102300009F938F930E941A080F900F900F900F9039
:102310008091E80180FF04C085E293E00E9481077C
:102320008C2FCF910C9417094F925F927F928F92CE
:102330009F92AF92BF92CF92DF92EF92FF920F9354
:102340001F93CF93DF93CDB7DEB72A970FB6F894DC
:10235000DEBF0FBECDBF0E944A0E0E9462118111E6
:1023600011C08FEF89838A831B820E94651F816061
:10237000782F9D838C8349815A816B818D810E9446
:10238000521257C09CE5C92E91E0D92E00E010E012
:10239000AA24A394B12C702E802F0E949B0D4C0177
:1023A000F601419051906F0148265926411451047D
:1023B00031F40F5F1F4F0430110569F7D2CF8091C0
:1023C000E80181FD0E94A40D20E030E07501022E9D
:1023D00002C0EE0CFF1C0A94E2F7C701842195218C
:1023E000892B09F12E837F828E209F2091E08928FE
:1023F00009F490E098870E94651F8160782F9A8782
:1024000089874E815F8168858A850E945212000FFC
:10241000111FF801E45AFE4F80819181E826F926C8
:10242000F182E08206C02F5F3F4F2B30310571F6FD
:10243000C0CF0E94F22110915B010E94B3101817C7
:10244000D9F00E94B31080935B012A960FB6F894DE
:10245000DEBF0FBECDBFDF91CF911F910F91FF90D7
:10246000EF90DF90CF90BF90AF909F908F907F9034
:102470005F904F900C946C112A960FB6F894DEBFC3
:102480000FBECDBFDF91CF911F910F91FF90EF90C5
:10249000DF90CF90BF90AF909F908F907F905F9094
:1024A0004F900895CF93DF93CDB7DEB72B970FB63C
:1024B000F894DEBF0FBECDBF4F83588769877A87F8
:1024C0008B87DE01119686E0FD0111928A95E9F76E
:1024D00085E0FE01379601900D928A95E1F74981DA
:1024E0005A816B817C818D819E810E9495192B96EA
:1024F0000FB6F894DEBF0FBECDBFDF91CF91089528
:10250000FC01808191810E94611C0895CF93DF932B
:102510001F92CDB7DEB7882309F42DC1682F82380A
:10252000C1F40E94B31081FD26C169E380910001CE
:10253000909101010E94B61E0E94EF1C2FEF81EEC8
:1025400094E0215080409040E1F700C0000069E332
:1025500019C0833811F50E94B31080FD0CC163E5EA
:1025600080910001909101010E94B61E0E94EF1C13
:102570002FEF81EE94E0215080409040E1F700C0C1
:10258000000063E580910001909101010E94C11E4D
:102590000F90DF91CF910C94EF1C8438C1F40E940E
:1025A000B31082FDE8C067E48091000190910101C1
:1025B0000E94B61E0E94EF1C2FEF81EE94E0215086
:1025C00080409040E1F700C0000067E4DBCF8CEF73
:1025D000860F813A70F4862F69830E94762669817E
:1025E0008111C9C080910001909101010E94B61E25
:1025F000CFCF80E2860F883048F4677081E001C059
:10260000880F6A95EAF70E94A31CC2CF8BE5860F5C
:10261000833088F4653A29F0663A31F083E890E037
:1026200005C081E890E002C082E890E00F90DF9161
:10263000CF910C94221188E5860F873108F091C064
:10264000683A09F445C0693A09F445C06A3A09F4A0
:1026500045C06B3A09F445C06C3A09F445C06B3B80
:1026600009F445C06C3B09F445C06D3A09F445C016
:10267000603B09F445C06E3A09F445C06F3A09F46D
:1026800045C0613B09F445C0623B09F445C0633B6A
:1026900009F445C0643B09F445C0653B09F445C0F5
:1026A000663B09F445C0673B09F445C0683B09F443
:1026B00045C0693B09F445C06D3B09F445C06E3B1C
:1026C00009F445C06A3B09F445C080E090E044C08D
:1026D00082EE90E041C089EE90E03EC08AEE90E04C
:1026E0003BC085EB90E038C086EB90E035C083EBD3
:1026F00090E032C084EB90E02FC087EB90E02CC0DC
:102700008CEC90E029C08DEC90E026C083E891E04D
:1027100023C08AE891E020C082E991E01DC084E9ED
:1027200091E01AC081E292E017C083E292E014C007
:1027300084E292E011C085E292E00EC086E292E06F
:102740000BC087E292E008C08FE690E005C080E70A
:1027500090E002C08AE292E00F90DF91CF910C945A
:102760003811603F40F0862F0E9478200F90DF9153
:10277000CF910C9465210F90DF91CF91089588231C
:1027800009F464C0823879F40E94B31081FF5EC0FE
:1027900069E380910001909101010E94B61E0E94A0
:1027A000EF1C69E310C08338B1F40E94B31080FFBE
:1027B0004DC063E580910001909101010E94B61E19
:1027C0000E94EF1C63E580910001909101010E943D
:1027D000C11E0C94EF1C843879F40E94B31082FF60
:1027E00035C067E480910001909101010E94B61EFE
:1027F0000E94EF1C67E4E7CF9CEF980F913A10F42A
:10280000682FE1CF90E2980F983050F4877091E0F4
:1028100001C0990F8A95EAF7892F0E94A91CD9CF88
:102820009BE5980F933020F480E090E00C94221107
:1028300098E5980F973120F480E090E00C943811DF
:10284000803F20F00E94E0200C9465210895CF93F2
:10285000C82F0E948612C93349F42FEF87EE93E008
:10286000215080409040E1F700C000008C2FCF91B4
:102870000C94BF13882321F00E94A31C0C94EF1C1E
:102880000895882321F00E94A91C0C94EF1C089540
:10289000BF92CF92DF92EF92FF920F931F93CF934D
:1028A000DF937C01062FC72FFC01158112951F7045
:1028B000D281D1110E94C31C0E94991C882379F0F7
:1028C000DD2369F080E2800F883048F082E00E94CA
:1028D0003A1D0E94991C91E0B82EB92601C0B12C76
:1028E000CC2EC2948FE0C822D12CF601EA5AFF4FB9
:1028F0000C94CF2F8C2F807FCF70882311F0C2953E
:10290000C07FDD2399F0CC2309F4CEC180E2800F93
:10291000883010F0011104C08C2F0E94A31C03C04A
:102920008C2F0E94B61C0E94EF1CBEC1802F0E94FB
:10293000BF13CC2309F4DDC180E2800F883010F092
:10294000011104C08C2F0E94A91C03C08C2F0E946F
:10295000BC1C0E94EF1CCDC18C2F807FCF708032B9
:1029600011F0C295C07F002319F00130C9F022C0D8
:10297000DD2371F0112341F0113031F40E94D61C97
:102980008C2B0E94DC1CB5C10E94D61C8C2B1DC058
:10299000112319F0113009F4ACC10E94E51C25C0C7
:1029A000DD2321F0163008F0A4C10EC0153008F068
:1029B000A0C11BC0DD2361F0112331F0F701858137
:1029C00080FF72C18F7085838C2F0E943A1491C151
:1029D000112359F0093309F078C1FFEF27EE83E0A6
:1029E000F15020408040E1F76EC18C2F0E944114CD
:1029F00080C18C2F86958695837090E0009719F0A2
:102A0000019761F076C1DD2321F0802F9C2F937018
:102A100002C080E090E00E94221176C1DD2321F007
:102A2000802F9C2F937002C080E090E00E943811AC
:102A30006BC1DD23F9F0053F51F0063F71F0043F13
:102A4000A9F4809121029091220281600BC08091B3
:102A5000210290912202826005C080912102909112
:102A6000220284609093220280932102802F0E9490
:102A700078201EC0053F51F0063F71F0043FA9F4D5
:102A800080912102909122028E7F0BC080912102C1
:102A9000909122028D7F05C08091210290912202A7
:102AA0008B7F9093220280932102802F0E94E0204E
:102AB0000E94652129C18C2F837009F049C0D11172
:102AC0001FC1402F429546954770440F440F602F19
:102AD0006F70862F90E0A0E0B0E0042E04C0880F55
:102AE000991FAA1FBB1F0A94D2F704FF10C00FE062
:102AF00010E020E030E004C0000F111F221F331F40
:102B00004A95D2F7009510952095309503C000E0C6
:102B100010E09801C695C695C370D0E0BC01CD0108
:102B2000602B712B822B932BC230D10559F0C3300F
:102B3000D10559F0219719F00E94DA1AE1C00E94DC
:102B4000C81ADEC00E94EC1ADBC00E94C61AD8C0A8
:102B5000DD2319F08C2F817001C08695882309F43C
:102B6000CFC0402F429546954770440F440F602FC9
:102B70006F70862F90E0A0E0B0E0042E04C0880FB4
:102B8000991FAA1FBB1F0A94D2F704FF10C00FE0C1
:102B900010E020E030E004C0000F111F221F331F9F
:102BA0004A95D2F7009510952095309503C000E026
:102BB00010E09801C695C695C370D0E0BC01CD0168
:102BC000602B712B822B932BC230D10559F0C3306F
:102BD000D10559F0219719F00E94A01B91C00E94C5
:102BE0008E1B8EC00E94B21B8BC00E94011B88C02E
:102BF000CF70DD2339F08C2F0E94271B802F0E947D
:102C00003A147EC0802F0E9441148C2F0E94481BD2
:102C100077C0023F01F128F4003F41F0013FA1F0ED
:102C20003FC0033FF9F0043F39F13AC0DD2341F0E2
:102C3000153008F05EC08C2F8F710E946D1B59C03B
:102C4000163008F056C0F7CFDD2339F08C2F8F7186
:102C50000E94271B4EC0DD23C9F38C2F8F710E9469
:102C6000481B47C0DD2329F08C2F8F710E94121B57
:102C700040C00E940D1B3DC0DD2349F0CF718C2F59
:102C80000E94271B63E08C2F0E94251D32C081E02B
:102C90000E943A1D123068F182E00E943A1D29C05C
:102CA000DD2331F0112391F2802F0E94861221C082
:102CB000112399F2093349F49FEFE7EEF3E09150C5
:102CC000E040F040E1F700C00000802F0E94BF13F9
:102CD00010C04C2F4F70602FC7010E94EB0A0E945A
:102CE000391A12C04C2F4F70602FC7010E94EE0A94
:102CF0000BC028E0C21AD10884E0C816D10420F421
:102D00000E94B3100E941709BB20D1F00E94951CAD
:102D100080FD16C0F70112820E948F1C0E94271BA3
:102D2000C7010E94AA160E948F1CDF91CF911F91AC
:102D30000F91FF90EF90DF90CF90BF900C94481BC5
:102D4000DF91CF911F910F91FF90EF90DF90CF9087
:102D5000BF9008950F931F93CF93DF93EC01888169
:102D600099812B813C81232BB9F09F3F11F48F3F38
:102D700099F0CE010E942F09882371F06881798132
:102D80008A810E946C1C8C010E94C41B0E94C51A7F
:102D9000B801CE010E944814DF91CF911F910F918D
:102DA00008950E94C31C0E94D31C0E94EF1C0E9425
:102DB0008D220E94652180E090E00E94221180E037
:102DC00090E00C94381180910001909101010E94D3
:102DD000CC1E0C94D1160E94B31C0C94E316E92F60
:102DE000E295EF70F0E03297EE30F105B0F4EA5979
:102DF000FF4F0C94CF2F803F91F018F4883E68F479
:102E00000EC0843F51F40BC0883E48F0813F29F446
:102E100006C093FB882780F9089580E0089581E03B
:102E200008950E94611C0E94EF160895CF93DF93CE
:102E300000D000D01F92CDB7DEB70F900F900F904B
:102E40000F900F90DF91CF910895CF93DF9300D033
:102E500000D000D0CDB7DEB726960FB6F894DEBF0F
:102E60000FBECDBFDF91CF9108951F93CF93DF9316
:102E7000C091650116E080916601C81799F0D0E015
:102E80001C9FF0011D9FF00D1124E959FE4F408158
:102E9000518162817381848195810E9425172196D9
:102EA000C770E9CFDF91CF911F91089540919701AD
:102EB000509198016091990170919A0180919B01C4
:102EC00090919C010C94251780919C0182958F70A4
:102ED00009F054C080919901882309F44FC0809172
:102EE0006501A091660160919701709198014091F0
:102EF0009A0150919B01B6E08A1709F43FC090E017
:102F000041155105C1F17F3F11F46F3FA1F1B89F09
:102F1000F001B99FF00D1124E959FE4F2181721380
:102F20002AC02081621327C02281211124C023815D
:102F300034812417350710F421503109241B350B37
:102F4000283C3105C0F420919C012F702061209312
:102F50009C0126E0289FF001299FF00D1124E459DF
:102F6000FE4F80818F708061808387E991E00E94AD
:102F7000AA160C94351701968770BECF0895CF928C
:102F8000DF92EF92FF920F931F93CF93DF93CDB712
:102F9000DEB762970FB6F894DEBF0FBECDBF8C01CF
:102FA00085E0F801DE011D9601900D928A95E1F70A
:102FB000D8014C9111965C91119712966C911297D1
:102FC0001396CD90DC9014973091970170919801F1
:102FD00080919A0190919B01009709F46BC17F3F0A
:102FE00019F43F3F09F466C1E0909901EE2009F41D
:102FF000C0C020919C01C816D90628F0F601E81B34
:10300000F90BCF0104C0809590958C0D9D1DFF2478
:10301000F394883C910578F0F12C207F09F0C6C02C
:103020007C2DD98AC88A89890E94161787E991E080
:103030000E94AA16B1C0822F807F09F046C0751386
:1030400014C0341312C0611110C02F70206120937E
:103050009C010E94561787E991E00E94AA16809170
:103060009C01D80115968C932EC0CD2819F15F3F95
:1030700011F44F3FF9F0F62E61111CC080916501EB
:103080002091660136E0821709F45AC090E0389F1B
:10309000F001399FF00D1124E959FE4F718157134A
:1030A00006C07081471303C07281711103C001967D
:1030B0008770E9CFF62E662309F427C180919C0121
:1030C000816080939C01F12C20C1751308C03413DA
:1030D00006C0611104C080919C01D801C3C04D8716
:1030E0005E878D859E856A8B0E9411176A89882369
:1030F000E1F16623D1F120919C01822F82958F709E
:1031000090E0029774F080919701909198019887D0
:103110008F831986DB86CA862C87CE0107960E948C
:10312000AA1686E0F801A7E9B1E001900D928A9510
:10313000E1F70E9464170E945617FF24F394E5C03C
:103140004D875E878D859E850E94611C292F229563
:103150002F7030E0223031050CF0CBC09F7009F0A9
:10316000C5C0805E883008F4D0C0C8010E94AA168D
:10317000E4CFC816D90608F453C0F601E81BF90BD2
:10318000CF01883C910508F450C0F12C7C2DD98AE0
:10319000C88A89890E941617E7E9F1E086E0DF0115
:1031A0001D928A95E9F70E945617AFC0751314C097
:1031B000341312C0611110C080919C01F801858305
:1031C000C8010E94AA1686E0E7E9F1E0DF011D923E
:1031D0008A95E9F7FE2C99C04D875E878D859E857F
:1031E0006A8B0E9411176A89882309F4BECF66236F
:1031F00009F4BBCF20919C01822F82958F7090E0C3
:1032000002970CF48ECF80919701909198019A8348
:1032100089831B82DD82CC822E83CE0101967FCFF3
:10322000809590958C0D9D1DACCFF62E662309F4EC
:103230009CCF75132EC034132CC020919C0120FD0F
:103240001FC0822F82958F70D9F0D80115962C93CC
:1032500015978F3049F08F5F982F9295907F822F2E
:103260008F70892B15968C93C8010E94AA1686E050
:10327000F801A7E9B1E001900D928A95E1F793CFAB
:1032800086E0F801A7E9B1E001900D928A95E1F797
:103290003CC04D875E878D859E850E9411178111E8
:1032A00040CF80919C01816080939C01C8010E9465
:1032B000AA162BC0662309F458CF4D875E878D85EB
:1032C0009E850E941117F82E882309F44ECF86E0C0
:1032D000F801A7E9B1E001900D928A95E1F787E93D
:1032E00091E00E9480120E9464175DCF811139CF56
:1032F0000CC0243031050CF038CF9F7009F431CF69
:10330000F8019581907F09F02CCF8F2D62960FB632
:10331000F894DEBF0FBECDBFDF91CF911F910F910B
:10332000FF90EF90DF90CF9008951F93CF93DF939E
:10333000CDB7DEB72C970FB6F894DEBF0FBECDBF6A
:103340004F83588769877A878B879C87CE0107963A
:103350000E94BF17882369F08F8198852A853B8555
:10336000232BF1F19F3F09F063C08F3F09F060C04C
:1033700037C086E0FE013796DE01119601900D926E
:103380008A95E1F76F817885EA85FB85309741F171
:103390007F3F11F46F3F21F12091660130E0C901B8
:1033A0000196877099274091650150E08417950731
:1033B00009F447C069837A83FD83EC8396E0929F8A
:1033C000D001939FB00D1124A959BE4FFE01319633
:1033D00001900D929A95E1F7809366010E9435174E
:1033E00016E080916501909166018917C1F1189FDF
:1033F000C001112489599E4F0E94BF17882379F17B
:10340000E09165011E9FF0011124E959FE4F4081B2
:10341000518162817381848195810E9425178091F9
:10342000650190E001968770992780936501D9CF57
:103430004F81588569857A858B859C850E942517E3
:10344000CFCF0E94EB161092660110926501E7E95A
:10345000F1E086E0DF011D928A95E9F7C1CF2C9655
:103460000FB6F894DEBF0FBECDBFDF91CF911F9195
:103470000895EF92FF920F931F93CF93DF938C01E8
:10348000892B09F46CC0F12CEE24E394E801219619
:10349000F8018491843740F4843008F051C08130C1
:1034A00081F0823019F15BC0853709F444C0A8F17E
:1034B0009CE7980F903708F052C08F770E94BF1397
:1034C00041C00E5F1F4FFE01C49180E28C0F883017
:1034D00048F4C7708E2D01C0880FCA95EAF70E9484
:1034E000C61C14C08C2F0E9486122DC00E5F1F4F69
:1034F000FE01C49180E28C0F883058F4C7708E2D85
:1035000001C0880FCA95EAF70E94CC1C0E94EF1CEC
:103510001AC08C2F0E94BF1316C00E5F1F4FFE01F2
:10352000C491CC2381F08FE99FE00197F1F700C0AF
:103530000000C150F6CF0E5F1F4FFE01F49003C094
:103540000E9486128E018F2D882309F49FCFEFE908
:10355000FFE03197F1F700C000008150F5CFDF9117
:10356000CF911F910F91FF90EF90089508950C94C3
:10357000B61A0E94B71A6093BF017093C00180937E
:10358000C1019093C2010C94D11608950C94B91AFC
:103590000F931F930091BF011091C0012091C101B1
:1035A0003091C201602B712B822B932B1F910F91B5
:1035B0000C94B91A0F931F930091BF011091C00191
:1035C0002091C1013091C201602371238223932392
:1035D0001F910F910C94B91A0F931F930091BF0183
:1035E0001091C0012091C1013091C2016027712763
:1035F000822793271F910F910C94B91A08950C9468
:10360000FE1A0E94FF1A6093BB017093BC01809365
:10361000BD019093BE010C94D11660E070E0CB0127
:103620000C94011B0F931F9341E050E060E070E0A9
:103630008A019B0104C0000F111F221F331F8A95AE
:10364000D2F7C901B8011F910F910C94011B0F9380
:103650001F9341E050E060E070E004C0440F551F4C
:10366000661F771F8A95D2F78091BB019091BC01AC
:10367000A091BD01B091BE018A019B01082B192BBD
:103680002A2B3B2BC901B8011F910F910C94011BF0
:103690000F931F9341E050E060E070E004C0440FDE
:1036A000551F661F771F8A95D2F7409550956095F4
:1036B00070958091BB019091BC01A091BD01B0912A
:1036C000BE018A019B01082319232A233B23C90138
:1036D000B8011F910F910C94011B0F931F9341E0B0
:1036E00050E060E070E004C0440F551F661F771F74
:1036F0008A95D2F78091BB019091BC01A091BD0148
:10370000B091BE018A019B01082719272A273B2770
:10371000C901B8011F910F910C94011B0F931F93C6
:103720000091BB011091BC012091BD013091BE01FF
:10373000602B712B822B932B1F910F910C94011BEB
:103740000F931F930091BB011091BC012091BD010B
:103750003091BE0160237123822393231F910F9127
:103760000C94011B0F931F930091BB011091BC019E
:103770002091BD013091BE016027712782279327D8
:103780001F910F910C94011B08952BE0929F800DC7
:103790001124A82FA695A695A695877051E001C083
:1037A000550F8A95EAF785E0A89FD001112420E003
:1037B00030E070E0F901EA0FFB1FE356FE4F408155
:1037C000CB01022E02C0969587950A94E2F781708C
:1037D0009927819584278523842780832F5F3F4FF6
:1037E0002530310539F708952BE0929F800D112483
:1037F000682F669566956695982F977085E0689F07
:10380000B001112440E050E080E0FA01E60FF71F1C
:10381000E356FE4F208130E0092E02C036952795F1
:103820000A94E2F721703327042E01C0220F0A9474
:10383000EAF7822B4F5F5F4F4530510531F708950E
:10384000BF92CF92DF92EF92FF920F931F93CF938D
:10385000DF938C01C090BF01D090C001E090C10106
:10386000F090C2018091BB019091BC01A091BD017B
:10387000B091BE01C82AD92AEA2AFB2ACFE1D0E0BA
:10388000D701C6010C2E04C0B695A79597958795CC
:103890000A94D2F780FF07C0BC2EB8018C2F0E947B
:1038A000090B019719F4219758F7B12C8B2DDF9153
:1038B000CF911F910F91FF90EF90DF90CF90BF902D
:1038C0000895CF93DF93EC010E94201CBE010E945B
:1038D000090BDF91CF9108951F93CF93DF93EB01F5
:1038E00090916401992321F0CB010E94611C13C0C7
:1038F000882349F0CB010E94201C182F682FCE018D
:103900000E94C51B04C0CB010E94F41B182FBE01EE
:10391000812F0E94090BDF91CF911F910895809113
:10392000C30185958595859508958091C30187701C
:1039300008959091C301977081E009F480E00895A3
:103940008091E70108959091E701892B8093E70129
:10395000089580959091E70189238093E701089568
:103960008093E70108951092E70108959091E60190
:10397000892B8093E601089580959091E601892333
:103980008093E60108951092E60108959091E50173
:10399000892B8093E501089580959091E501892315
:1039A0008093E50108951092E50108958091C40186
:1039B000089508950C94D91C9091C401981721F092
:1039C0008093C4010C94DA1C08958091C40188236B
:1039D00029F01092C40180E00C94DA1C0895E09163
:1039E0000001F09101018091E7018083E0910001E5
:1039F000F091010190818091E601892B8083E09113
:103A00000001F091010190818091E501892B808373
:103A10008091C401882381F0E0910001F0910101BF
:103A20009081892B808380910001909101010E94F7
:103A30002F1E81110E94E51C8091000190910101CF
:103A40000C94BF1008950C94221D98E0899F90015A
:103A50001124262B2093C3010E94271B8091C301B0
:103A60008595859585950C94231D1092C30180E062
:103A70000C94231D2091C301809582238093C30160
:103A8000982F977079F430E0482F082E000C550BD2
:103A90002417350739F08595859585950E94481B33
:103AA0000C94351D089590933D0180933C01089539
:103AB0008295982F9C7C392F36953695282F237325
:103AC00044E0249FC0011124932F982B292F2A7A98
:103AD0002695892F8575880F822B08951F93CF9384
:103AE000DF931F92CDB7DEB799830E94581D182F20
:103AF0009981892F0E94581D212F30E0322F2227D3
:103B0000A901482BCA010F90DF91CF911F91089511
:103B100080E090E00E94F12F21E08C3E9E4F09F062
:103B200020E0822F089582E090E00C94E92F83E05A
:103B300090E00C94E92FCF9384E090E00E94E92F6D
:103B4000C82F81E290E00E94E92F2C2F30E0A901DC
:103B5000582BCA01CF910895CF93C92F682F84E0C5
:103B600090E00E94F72F6C2F81E290E0CF910C94AF
:103B7000F72FAB01BC018FE090E00C940930AB0152
:103B8000BC0183E190E00C94093060E070E0CB016F
:103B90000C94BF1D60E070E0CB010E94B91D0C9435
:103BA000C51D6CEE7EEF80E090E00E94153060E075
:103BB00082E090E00E94F72F60E083E090E00E94B6
:103BC000F72F1092BF011092C0011092C101109204
:103BD000C20160E084E090E00E94F72F60E081E2A3
:103BE00090E00E94F72F60E085E090E00E94F72FC0
:103BF00060E086E090E00E94F72F6FEF87E090E0B2
:103C00000E94F72F40E050E0BA0188E090E00E9467
:103C1000093060E08DE090E00E94F72F40E050E036
:103C2000BA0188E190E00E94093060E087E190E00D
:103C30000E94F72F40E050E0BA018CE190E00E9432
:103C4000093060E080E290E00E94F72F0C94CA1DDA
:103C50000C94D11D682F8EE090E00C94F72FFC019E
:103C6000329680911201882331F08091270287FFDC
:103C700002C09EE101C096E080E0915028F02191C1
:103C80002223D9F38F5FF9CF08959C01FC0132966E
:103C90009FEF80E04191461789F09F3F19F4411151
:103CA00001C0982F8F5F8630A9F79F3F39F0F90147
:103CB000E90FF11D97FDFA95628308950895FC01BF
:103CC000329608962081261301C010823196E8179B
:103CD000F907C1F70895262F2695269526952E31AA
:103CE00070F4FC01E20FF11D677021E030E001C0CB
:103CF000220F6A95EAF78281282B2283089580910A
:103D0000E80180FF0CC01F926F938DE593E09F93B5
:103D10008F930E941A080F900F900F900F900895A4
:103D2000262F2695269526952E3178F4FC01E20F54
:103D3000F11D677021E030E001C0220F6A95EAF7BB
:103D4000209582812823228308958091E80180FFB5
:103D50000CC01F926F938FE393E09F938F930E9409
:103D60001A080F900F900F900F9008952091120154
:103D7000222329F02091270227FD0C946B1E0C941E
:103D8000451E20911201222329F02091270227FDB0
:103D90000C94901E0C945F1E20911201FC0132962F
:103DA000222331F08091270287FF02C08EE101C0FB
:103DB00086E0DF011D928A95E9F7089508950C9435
:103DC000DE1E0E94DF1E80912D02843049F1109288
:103DD000E90120E488E190E00FB6F894A89580937B
:103DE00060000FBE2093600080E00E9417090E94CF
:103DF000DF1E83B7817F846083BF83B7816083BF09
:103E00007894889583B78E7F83BF0FB6F894A89572
:103E100080916000886180936000109260000FBE06
:103E2000089508950895CF930E94111F0E944A0E8D
:103E30000E94121FC0E08C2F0E949B0D892B29F439
:103E4000CF5FC430C1F780E001C081E0CF91089519
:103E500008950C94281F0E94EB160E94B3100E9434
:103E600017090C94291F1F920F920FB60F9211245D
:103E70008F939F93AF93BF938091E901811113C0FA
:103E80008091230290912402A0912502B0912602F4
:103E90004196A11DB11D8093230290932402A0930B
:103EA0002502B0932602BF91AF919F918F910F9001
:103EB0000FBE0F901F90189582E084BD93E095BDD2
:103EC0009AEF97BD80936E0008952FB7F894809174
:103ED000230290912402A0912502B09126022FBFC7
:103EE00008952FB7F8946091230270912402809175
:103EF0002502909126022FBF0895CF92DF92EF9274
:103F0000FF920F931F932FB7F89440912302509183
:103F1000240260912502709126022FBF6A017B0165
:103F2000EE24FF248C0120E030E0C016D106E2062A
:103F3000F30610F4415051099A01281B390BC901AD
:103F40001F910F91FF90EF90DF90CF90089578949C
:103F50001F920F920FB60F9211248F939F93AF93DE
:103F6000BF938091230290912402A0912502B091E9
:103F700026020196A11DB11D809323029093240275
:103F8000A0932502B0932602BF91AF919F918F918C
:103F90000F900FBE0F901F90189587E797E79093AB
:103FA0000108809300089AE088E10FB6F894A8957C
:103FB000809360000FBE90936000FFCF0E94881D29
:103FC000811102C00E94281E0E94931D8093E80167
:103FD0000E949B1D90932802809327020E94971DA8
:103FE000682F70E080E090E00C94C61A8091ED019B
:103FF00080FF0BC06091050185E0689FB00111242E
:1040000075956795759567952BC081FF09C060917F
:10401000050185E0689FB00111247595679520C062
:1040200082FF07C06091050185E0689FB0011124FF
:1040300017C09091EC019923D1F06091040196177B
:1040400088F72091050185E0289F90011124929F17
:10405000A001939F500D112470E0CA010E94BB2F54
:104060006038710540F46115710539F002C065E0F2
:1040700070E0862F08958FE7089581E0089580917C
:10408000ED0180FF08C06091030170E075956795B0
:104090007595679521C081FF06C06091030170E0AE
:1040A0007595679519C082FF04C06091030170E0A7
:1040B00010C09091EC019923C1F060910201961714
:1040C000A0F780910301899FC001112470E00E9434
:1040D000BB2F6038710528F46115710521F0862F1A
:1040E00008958FE7089581E0089561E070E0F4CFCE
:1040F000803F21F40E94F61F819504C0813F29F47E
:104100000E94F61F8093F1010895823F21F40E94DE
:10411000F61F819504C0833F29F40E94F61F809307
:10412000F0010895893F19F40E943F2005C08A3F9D
:1041300031F40E943F2081958093F20108958B3FD6
:1041400021F40E943F20819504C08C3F29F40E94F5
:104150003F208093F3010895843F21F48091EF0183
:10416000816017C0853F21F48091EF01826011C00A
:10417000863F21F48091EF0184600BC0873F21F4DA
:104180008091EF01886005C0883F31F48091EF0194
:1041900080618093EF0108958D3F21F48091ED01BE
:1041A00081600BC08E3F21F48091ED01826005C0DB
:1041B0008F3F29F48091ED0184608093ED01089593
:1041C000803F39F48091F10187FF6CC01092F101BA
:1041D00069C0813F29F48091F1011816BCF362C0D7
:1041E0009091F001823F29F497FF5CC01092F0019A
:1041F00059C0833F19F41916CCF354C0893F41F4D8
:104200008091F20118160CF04DC01092F2014AC0D4
:104210008A3F29F48091F20187FF44C0F6CF8B3F9B
:1042200039F48091F30187FF3DC01092F3013AC049
:104230008C3F29F48091F3011816BCF333C0843FFE
:1042400021F48091EF018E7F17C0853F21F480918A
:10425000EF018D7F11C0863F21F48091EF018B7FAC
:104260000BC0873F21F48091EF01877F05C0883F15
:1042700031F48091EF018F7E8093EF0113C08D3F69
:1042800021F48091ED018E7F0BC08E3F21F480914F
:10429000ED018D7F05C08F3F29F48091ED018B7F6B
:1042A0008093ED018091F00181110EC08091F101A8
:1042B00081110AC08091F201811106C08091F30141
:1042C000811102C01092EC0108958091E80183FFF2
:1042D0007EC082EA93E00E9481078091EF011F92E5
:1042E0008F938DE993E09F938F930E941A088BE937
:1042F00093E00E9481078091F001282F082E000C86
:10430000330B3F938F9388E993E09F938F930E94A1
:104310001A0886E993E00E9481078091F101282F15
:10432000082E000C330B3F938F9383E993E09F9308
:104330008F930E941A0881E993E00E94810780917F
:10434000F201282F082E000C330B3F938F938EE839
:1043500093E09F938F930E941A088CE893E00E9449
:1043600081078091F301282F082E000C330B3F9317
:104370008F9389E893E09F938F930E941A0886E8B1
:1043800093E00E9481078091EC011F928F9383E854
:1043900093E09F938F930E941A0881E893E00E9414
:1043A00081078091ED011F928F938EE793E09F9399
:1043B0008F930E941A088BE793E00E9481078DB7C4
:1043C0009EB74C960FB6F8949EBF0FBE8DBF8EEE73
:1043D00091E00E9414110E94651F9093EB0180935D
:1043E000EA0108951F93CF93DF938091EA019091A2
:1043F000EB010E947D1FAC019091EC01992321F00B
:104400002091060130E006C0209107018AE0289F34
:10441000900111244217530708F47BC08091F001EA
:10442000C091F101D091F2011091F301811107C007
:10443000C1116BC0D11169C0111167C06AC09F3F23
:1044400019F09F5F9093EC01181624F40E94F61F58
:104450008093F0018091F00187FF05C00E94F61F54
:1044600081958093F0011C1624F40E94F61F80931E
:10447000F1018091F10187FF05C00E94F61F81952F
:104480008093F1013091F0013323E1F02091F101AB
:104490002223C1F045EB3403C0011124892F990F69
:1044A000990B009709F481E08093F00135EB230329
:1044B000C0011124892F990F990B009709F481E00D
:1044C0008093F1011D1624F40E943F208093F20195
:1044D0008091F20187FF05C00E943F208195809363
:1044E000F201111624F40E943F208093F301809181
:1044F000F30187FF05C00E943F2081958093F3015F
:10450000DF91CF911F910C9465219F3F09F099CFC6
:10451000A1CFDF91CF911F910895EEEEF1E086E0FB
:10452000DF011D928A95E9F71092EC011092ED01DE
:10453000089585EC95E00E9481071F9281E08F939A
:104540001F9285E08F9387E795E09F938F930E945A
:104550001A080F900F900F900F900F900F900895E2
:104560008330E9F128F4813061F0823009F1089557
:10457000853009F462C008F449C0863009F474C07B
:10458000089580910701262F30E0280F311D2F3F1D
:10459000310524F4680F6093070103C08FEF809307
:1045A0000701809107011F928F9380EB94E072C006
:1045B00080910601262F30E0280F311D2F3F310555
:1045C00024F4680F6093060103C08FEF8093060107
:1045D000809106011F928F938EE994E05BC08091D9
:1045E0000501262F30E0280F311D2F3F310524F41F
:1045F000680F6093050103C08FEF809305018091E0
:1046000005011F928F938BE894E044C080910401D0
:10461000262F30E0280F311D2F3F310524F4680F7D
:104620006093040103C08FEF809304018091040123
:104630001F928F9386E794E02DC080910301262F6F
:1046400030E0280F311D2F3F310524F4680F6093AF
:10465000030103C08FEF80930301809103011F9238
:104660008F938DE594E016C080910201262F30E0F3
:10467000280F311D2F3F310524F4680F609302018C
:1046800003C08FEF80930201809102011F928F93EC
:1046900082E494E09F938F930E941A080F900F90EA
:1046A0000F900F900895833081F128F4813059F0F4
:1046B0008230D1F00895853009F449C0B8F18630D0
:1046C00009F456C0089580910701681720F4861BED
:1046D0008093070102C010920701809107011F9289
:1046E0008F9383E394E054C080910601681720F40F
:1046F000861B8093060102C010920601809106017C
:104700001F928F9381E294E043C080910501681766
:1047100020F4861B8093050102C010920501809150
:1047200005011F928F938EE094E032C080910401C6
:10473000681720F4861B8093040102C010920401C4
:10474000809104011F928F9389EF93E021C08091A3
:104750000301681720F4861B8093030102C01092A6
:104760000301809103011F928F9380EE93E010C0AC
:1047700080910201681720F4861B8093020102C019
:1047800010920201809102011F928F9385EC93E0B9
:104790009F938F930E941A080F900F900F900F9085
:1047A0000895CF93C82F1F928F938AEC96E09F9322
:1047B0008F930E941A0881E090E0A0E0B0E0BC0175
:1047C000CD0104C0660F771F881F991FCA95D2F7C5
:1047D0000E94C61A0F900F900F900F90CF910C94DB
:1047E000EB16CF93DF93482F50E0FA013597EF3364
:1047F000F10508F063C2EC58FF4F0C94CF2F81E60F
:104800009CE00E9481078DE99BE00E9481070E9445
:10481000971D1F928F938AE99BE09F938F930E942D
:104820001A0888E99BE00E9481070E94931DC82F07
:1048300085E89BE00E9481071F92CF9380E89BE070
:104840009F938F930E941A088EE79BE00E94810736
:1048500084E79BE00E9481078C2F81701F928F93C9
:1048600081E79BE09F938F930E941A088FE69BE05D
:104870000E94810785E69BE00E948107C1FB882793
:1048800080F91F928F9382E69BE09F938F930E9403
:104890001A0880E69BE00E94810784E59BE00E9465
:1048A0008107C2FB882780F91F928F9381E59BE0E7
:1048B0009F938F930E941A088FE49BE00E948107C8
:1048C00086E49BE00E948107C3FBCC27C0F91F92BE
:1048D000CF9383E49BE09F938F930E941A0881E417
:1048E0009BE00E9481070E949B1DEC018DE29BE0F2
:1048F0000E948107DF93CF9388E29BE09F938F9381
:104900000E941A0886E29BE00E9481078DE09BE0EE
:104910000E9481078C2F81701F928F938AE09BE009
:104920009F938F930E941A088DB79EB780960FB6FB
:10493000F8949EBF0FBE8DBF88E09BE00E94810768
:1049400081EF9AE00E948107C1FB882780F91F92BE
:104950008F938EEE9AE09F938F930E941A088CEEAD
:104960009AE00E9481078AED9AE00E9481078D2FCC
:1049700081701F928F9387ED9AE09F938F930E948F
:104980001A0885ED9AE00E94810783EC9AE00E9464
:104990008107D695D1701F92DF9380EC9AE09F93A8
:1049A0008F930E941A088EEB9AE00E9481078CEA8E
:1049B0009AE00E948107C2FB882780F91F928F939B
:1049C00089EA9AE09F938F930E941A0887EA9AE0F7
:1049D0000E94810785E99AE00E948107C3FB88272E
:1049E00080F91F928F9382E99AE09F938F930E94A0
:1049F0001A0880E99AE00E94810786E89AE00E94FE
:104A00008107C4FB882780F91F928F9383E89AE07F
:104A10009F938F930E941A0881E89AE00E94810771
:104A20008FE69AE00E948107C5FB882780F91F92D4
:104A30008F938CE69AE09F938F930E941A088AE6E0
:104A40009AE00E9481078EE49AE00E948107C6FBEB
:104A5000882780F91F928F938BE49AE09F938F931E
:104A60000E941A088DB79EB780960FB6F8949EBF25
:104A70000FBE8DBF89E49AE00E94810781E49AE02D
:104A80000E948107C7FBCC27C0F91F92CF938EE30A
:104A90009AE09F938F930E941A088CE39AE00E94F9
:104AA00081070F900F900F900F9006C080E59CE05B
:104AB0000E9481070E94281EC1E005C18AE898E093
:104AC0007FC08091E801817F8E7F8093E80183E63B
:104AD00098E00E9481078CE49CE00E94810781E0BD
:104AE0008093F501E9CF0E94EB1680E39CE00E94E1
:104AF00081079FEF23ED80E3915020408040E1F754
:104B000000C000000E94CD1FD7CF8091E801C82FC0
:104B1000C095C170C0FB80F98093E801CC2319F0E7
:104B200084E29CE0BDC087E19CE00E948107809107
:104B3000E801897F877F8093E801BECF9091E801EB
:104B400091FBCC27C0F981E0C827892FC0FB81F9F0
:104B50008093E801CC2319F08AE09CE027C08CEF19
:104B60009BE02EC09091E80192FBCC27C0F981E038
:104B7000C827892FC0FB82F98093E801CC2319F064
:104B80008DEE9BE013C08DED9BE01AC09091E80183
:104B900093FBCC27C0F981E0C827892FC0FB83F99C
:104BA0008093E801CC2351F081ED9BE00E948107C6
:104BB0008091E80181608093E80185C084EC9BE0EE
:104BC0000E94810779CF84E598E00E9481078CE2FA
:104BD00098E00E94810782EF97E00E94810789EBAD
:104BE00097E00E9481078EE797E00E94810780E5A9
:104BF00097E0E6CF82E497E00E9481070E94B3101D
:104C00001F928F9388E297E09F938F930E941A08D8
:104C1000809112011F928F9381E197E09F938F9370
:104C20000E941A0880911A021F928F938EEF96E0CD
:104C30009F938F930E941A088091270287FB8827F1
:104C400080F91F928F9386EE96E09F938F930E9438
:104C50001A080E94711F9F938F937F936F938FEC1D
:104C600096E09F938F930E941A088DB79EB7469641
:104C70000FB6F8949EBF0FBE8DBF1ECF0E94EB16DD
:104C80009091270297FBCC27C0F981E0C827892F94
:104C9000C0FB87F980932702CC2329F08AEB9BE0A5
:104CA0000E94810710C08FEA9BE08ACF895303C01E
:104CB0008D5101C080E00E94D123FECE8DEA9BE0A1
:104CC0000E948107C0E08C2FDF91CF91089580E092
:104CD000089580E008958E518A3030F4E82FF0E096
:104CE000EE5DFE4F8081089580E00895CF93C82F38
:104CF0008091F501813059F020F0823009F445C0EF
:104D000039C10E94A01C823209F036C104C00E9441
:104D1000A01C823261F48C2F0E946726811104C08E
:104D20008C2F0E94F1232FC081E090E02CC08C2FAB
:104D30000E946926811126C0C431E1F070F4CB30A5
:104D400081F0C031D1F40E94992282EC96E00E9459
:104D5000810782E08093F50115C0C93259F0C8334C
:104D600061F483E698E00E94810786EC96E00E9459
:104D7000810708C01092F50101C180EC96E00E9405
:104D80008107FCC081E08170FBC0C43228F5CE31C0
:104D900008F0C1C0CB30A1F1D0F4C73009F0D0C0C9
:104DA0008EE18093070182E3809306018AE080937D
:104DB000050184E18093040188E08093030188E287
:104DC0008093020186E695E00E948107BCC0C33152
:104DD00049F1C431C1F0B4C0CB3409F4A6C028F401
:104DE000C93289F0C83361F0ABC0C13509F49BC04A
:104DF000C23509F496C0CE3409F0A2C06AE09BC067
:104E00000E949922A0C08091F401882319F0109289
:104E1000F40199C083E795E00E94810781E08093C7
:104E2000F501AEC08DE495E00E9481078BE395E02B
:104E30000E948107809107011F928F9388E395E07C
:104E40009F938F930E941A0886E395E00E94810742
:104E500084E295E00E948107809106011F928F9362
:104E600081E295E09F938F930E941A088FE195E06D
:104E70000E94810780E195E00E94810780910501F1
:104E80001F928F938DE095E09F938F930E941A0855
:104E90008BE095E00E9481078AEF94E00E948107F1
:104EA000809104011F928F9387EF94E09F938F93DB
:104EB0000E941A0885EF94E00E94810780EE94E03A
:104EC0000E948107809103011F928F938DED94E0E2
:104ED0009F938F930E941A088BED94E00E948107A4
:104EE00084EC94E00E948107809102011F928F93CD
:104EF00081EC94E09F938F930E941A088FEB94E0CB
:104F00000E9481078DB79EB748960FB6F8949EBF52
:104F10000FBE8DBF18C08C2F0E946B268093F401AA
:104F200012C061E003C061E006C06AE08091F40154
:104F30000E94B02208C08091F4010E94532303C054
:104F400084E695E013C08091F401882369F01F92F4
:104F50008F938EE595E09F938F930E941A080F9090
:104F60000F900F900F9004C08BE595E00E94810791
:104F700081E006C01092F50180E002C080E003CF1E
:104F8000CF9108958091190208959FB7F8941092D7
:104F9000F8019FBF90912D02943009F057C0909175
:104FA000E9009F703091EC00232F217030FD20E844
:104FB000922B23E02093E9002091EB0020FF43C0D7
:104FC0002091EE0027FF3FC02091F601222321F01F
:104FD0002091E80025FF37C01092F60126E03091BD
:104FE000E80035FD15C030912D02343061F5309167
:104FF000EB0035FD28C0215021F481E08093F601BB
:1050000022C0EFE9FFE03197F1F700C00000E7CFE1
:105010008093F1008091E80085FD0AC08091E8004E
:1050200080FFFCCF8091E8008E778093E80006C077
:105030008FB7F89421E02093F8018FBF9F70909371
:10504000E90080E008959F709093E9008FEF089544
:105050000F931F93CF93DF9300D01F92CDB7DEB78E
:105060008C010E94F72A823011F0843021F584E00F
:1050700089831B830A8382E08093E9008FEF9091FC
:10508000E800815095FD06C095ED9A95F1F7000076
:105090008111F5CF8091E80085FF0DC040E050E020
:1050A00063E070E0CE0101960E94142B8091E8002D
:1050B0008E778093E8000F900F900F90DF91CF9143
:1050C0001F910F910895CF93DF9300D01F92CDB71A
:1050D000DEB720912D02243031F523E0298380585A
:1050E00091099B838A8382E08093E9008FEF9091FE
:1050F000E800815095FD06C095ED9A95F1F7000006
:105100008111F5CF8091E80085FF0DC040E050E0AF
:1051100063E070E0CE0101960E94142B8091E800BC
:105120008E778093E8000F900F900F90DF91CF91D2
:105130000895CF93DF93EC010E94F72A823011F09B
:105140008430F9F482E08093E9009FEF8091E800D9
:10515000915085FD06C085ED8A95F1F7000091110B
:10516000F5CF8091E80085FF0CC040E050E066E09C
:1051700070E0CE010E94142B8091E8008E7780931E
:10518000E800DF91CF910895CF93DF93EC010E9467
:10519000F72A823011F08430D9F5809112018823EA
:1051A00039F08091270287FF03C060E282E002C0ED
:1051B00068E081E08093E9008FEF9091E8008150F2
:1051C00095FD06C095ED9A95F1F700008111F5CF98
:1051D0008091E80085FF1CC080911201811105C0FB
:1051E00040E050E068E070E003C070E040E050E074
:1051F000CE010E94142B8091E8008E778093E80006
:1052000080E2FE01A9EFB1E001900D928A95E1F7ED
:10521000DF91CF91089581E99CE00E948107809100
:105220002C02811109C00E94A92C0E94062D809198
:10523000E20084608093E20008958DE89CE00E9483
:10524000810710922C02089589E89CE00C94810754
:1052500085E89CE00C94810781E89CE00E9481072E
:105260000C942B1F2091F7012F5F822F62E30E9485
:10527000AF2F992319F02093F70108951092F701A9
:105280008091F801882371F180912D02843041F5DD
:105290008091E9008F702091EC00922F917020FD99
:1052A00090E8892B93E09093E9009091EB0090FFB8
:1052B00014C09091EE0097FF10C09091E80095FF08
:1052C00003C01092F100F9CF9091E80090FF05C063
:1052D0009091E8009E779093E8008F708093E900AA
:1052E0001092F801089542E061EC81E00E94232CC5
:1052F00042E261EC82E00E94232C42E261EC83E016
:105300000C94232C80912F02833009F460C030F478
:10531000813071F0823009F499C008958A3009F41F
:1053200085C08B3009F46BC0893009F0A7C020C05C
:1053300080912E02813A09F0A1C08091E800877F18
:105340008093E8008091320290913302892B21F4FE
:1053500060E289EF91E003C060E080E090E070E0FF
:105360000E945F2B8091E8008B778093E80008957E
:1053700080912E02813209F081C080913202909199
:105380003302029708F07AC08091E800877F80930B
:10539000E8008091E80082FD05C080912D02811116
:1053A000F8CF6CC02091F3008091F20090E0922B36
:1053B000029729F48091F1008B7F813021F4809154
:1053C000F100809319028091E8008B7753C080919F
:1053D0002E02813A09F052C080913202909133023C
:1053E000892B09F04BC08091E800877F8093E8000B
:1053F0008091E80080FFFCCF8091120136C080913F
:105400002E028132D9F58091320290913302892B9C
:10541000A9F58091E800877F8093E8000E94582CCE
:1054200080913002809312010C94EB1680912E0231
:10543000813221F58091E800877F8093E8000E9407
:10544000582C8091310280931A02089580912E0287
:10545000813AA1F48091E800877F8093E8008091F1
:10546000E80080FFFCCF80911A028093F1008091C8
:10547000E8008E778093E8000C94582C089584B748
:10548000877F84BF0FB6F894A895809160008861EB
:1054900080936000109260000FBE80E880936100EE
:1054A000109261000E945C110E94A92C0E94062D9E
:1054B0008091E20084608093E20085EC97E20E9494
:1054C000531D78940E94942F0E94641188E091E00B
:1054D0000E94AE1080E79CE00E94810780912D021F
:1054E000853089F48CE69CE00E9481070E94E11ED1
:1054F00080912B02882391F30E94131F882371F35C
:105500000E94FE2AEBCF0E949411E8CF0C94882AC7
:10551000292F332723303105C9F064F421303105B8
:1055200081F02230310509F049C08BE590E029EC8B
:105530003CE048C02132310521F12232310571F1C0
:105540003DC082E190E024E23DE03CC099278130FB
:10555000910571F02CF4892B89F5E5ECFCE00DC088
:105560008230910541F0039749F5E5E9FCE005C07B
:10557000EBEAFCE002C0EBE9FCE0849190E09F01E3
:1055800021C063307105D0F4660F771FFB01EB5C1F
:10559000FE4F2081318189E090E014C063307105B5
:1055A00068F4FB01EE0FFF1FE15DFE4F20813181AA
:1055B000FB01E45DFE4F808190E004C080E090E05C
:1055C00020E030E0FA013183208308950895CF93DD
:1055D000C82F0E94E62AC0931B02CF9108958091A4
:1055E0002D02843011F081E0089582E008958091C9
:1055F0001B02811102C00C94EF2A089580E189BD3D
:1056000082E189BD09B400FEFDCF8091D8008F7D75
:105610008093D8008091E00082608093E0008091C8
:10562000E00081FDFCCF0895CF92DF92EF92FF92D0
:105630000F931F93CF93DF93EC018B016A010E94BC
:10564000772C811133C0C114D10439F0F601808167
:105650009181081B190BC80FD91FE12CF12C0115E2
:10566000110519F18091E80085FD16C08091E800D0
:105670008E778093E800C114D10449F0F60180814F
:105680009181E80EF91EF182E08285E00FC00E9450
:10569000772C882321F30AC089918093F10001506F
:1056A0001109FFEFEF1AFF0ADACF80E0DF91CF9107
:1056B0001F910F91FF90EF90DF90CF900895209170
:1056C0003402309135022617370748F0611571050D
:1056D00039F42091E8002E772093E80001C0B90149
:1056E00040E061157105A9F120912D02222309F4F2
:1056F00043C0253009F442C02091E80023FD40C09A
:105700002091E80022FD32C02091E80020FFE9CF7F
:105710004091F3002091F20030E0342BFC01CF01E6
:105720006115710559F02830310540F4819180935D
:10573000F100615071092F5F3F4FF1CF41E02830F8
:10574000310509F040E02091E8002E772093E80031
:10575000C8CF4111C9CF0AC080912D02882361F0C2
:10576000853061F08091E80083FD0AC08091E800F7
:1057700082FFF2CF80E0089582E0089583E00895EB
:1057800081E00895209134023091350226173707C1
:1057900048F06115710539F42091E8002E772093C7
:1057A000E80001C0B901FC0120E06115710591F12B
:1057B00080912D02882309F440C0853009F43FC050
:1057C0008091E80083FD3DC08091E80082FD2FC0FC
:1057D0008091E80080FFE9CF2091F3008091F200F2
:1057E00090E0922B6115710559F08830910540F4D5
:1057F00024912093F1003196615071090196F2CF06
:1058000021E0089709F020E08091E8008E778093EE
:10581000E800CBCF2111CCCF0AC080912D02882384
:1058200061F0853061F08091E80083FD0AC08091CD
:10583000E80082FFF2CF80E0089582E0089583E0DF
:10584000089581E00895982F973058F59093E900D6
:10585000981739F07091EC002091ED005091F00014
:1058600003C0242F762F50E021FF19C03091EB00A8
:105870003E7F3093EB003091ED003D7F3093ED00A3
:105880003091EB0031603093EB007093EC0020938B
:10589000ED005093F0002091EE0027FF07C09F5FBE
:1058A000D3CF8F708093E90081E0089580E0089560
:1058B00080912E0287FF11C08091E80082FD05C013
:1058C00080912D028111F8CF11C08091E8008B7773
:1058D0000BC080912D02882349F08091E80080FF61
:1058E000F8CF8091E8008E778093E80008952091AA
:1058F000E4003091E50095E64091EC00842F817042
:1059000040FF22C08091E80080FD1CC080912D02E4
:10591000882391F0853091F08091EB0085FD10C0D7
:105920004091E4005091E5004217530729F39A0192
:10593000915011F784E0089582E0089583E008957E
:1059400081E0089580E008954091E80042FFDECFB5
:1059500008950E94172D0E941F2DE0EEF0E0808137
:1059600081608083E8EDF0E080818F77808319BCCF
:10597000A7EDB0E08C918E7F8C9380818F7E8083A9
:1059800010922C0208950F931F93CF93DF930E94E0
:10599000172D0E941F2DC8EDD0E088818F77888356
:1059A00088818068888388818F7D888319BC109264
:1059B0002D021092290210922B0210922A0200EE60
:1059C00010E0F80180818B7F8083888181608883EB
:1059D00042E060E080E00E94232CE1EEF0E0808174
:1059E0008E7F8083E2EEF0E0808181608083808121
:1059F00088608083F80180818E7F808388818061C8
:105A00008883DF91CF911F910F910895E8EDF0E029
:105A100080818F7E8083E7EDF0E0808181608083EC
:105A200084E082BF81E080932C020C94C32CE8EDCB
:105A3000F0E080818E7F80831092E20008951092C2
:105A4000DA001092E10008951F920F920FB60F92A4
:105A500011242F933F934F935F936F937F938F9373
:105A60009F93AF93BF93EF93FF938091E10082FFE9
:105A70000BC08091E20082FF07C08091E1008B7F24
:105A80008093E1000E9432298091DA0080FF1FC0DC
:105A90008091D80080FF1BC08091DA008E7F8093B8
:105AA000DA008091D90080FF0DC080E189BD82E1DC
:105AB00089BD09B400FEFDCF81E080932D020E94D4
:105AC0000B2905C019BC10922D020E941D2980913E
:105AD000E10080FF19C08091E20080FF15C0809135
