:100000000C9418060C945F060C945F060C945F0623
:100010000C945F060C945F060C945F060C945F06CC
:100020000C945F060C945F060C94B5270C948728FB
:100030000C94F31A0C945F060C945F060C945F0604
:100040000C945F060C945F060C945F060C945F069C
:100050000C945F060C94671B0C945F060C945F066F
:100060000C945F060C945F060C945F060C945F067C
:100070000C945F060C945F060C945F060C945F066C
:100080000C945F060C945F060C945F060C945F065C
:100090000C945F060C945F060C945F060C945F064C
:1000A0000C945F060C945F060C945F06EB07ED075B
:1000B000F807EF07F107F307F507F707FA07FC075B
:1000C000FE070908000802080408060808080B08CB
:1000D0006610661098109810D610F6106612661208
:1000E00038116612E511E5115612661266125F129A
:1000F000F211F211F211F211F211F211F211F211E8
:10010000F211F211F211F211F211F211F211F211D7
:100110000312111218121F122912F512F5120713E9
:100120000713FE12071307130713F512F512031333
:10013000071307130313F4281B290D2A1B290D2A63
:1001400067298A290D2AE029EF2914001A000800DE
:100150001500170000001C0018000C00120013000E
:1001600004001600070009000A0000000B000D0043
:100170000E000F0033001D001B00060019000500D3
:10018000E0001100100036003700380029002B0075
:10019000E300E1002A0028002C0001512D0034006A
:1001A000E2001E021F0252002F02300200004B002C
:1001B00024002500260055002302500051004F0066
:1001C000210200004E0021002200230057002F00D2
:1001D0003000260227022402E00035001E001F0026
:1001E0002000540002534900E300E1004C002800C5
:1001F0002C00010037002700670049004A00520028
:100200004D004B00000052004000410042004300FE
:100210004C00500051004F004E00000051003D00C6
:100220003E003F0044000000800000000000005C31
:10023000E00000003A003B003C0045000100AA003D
:10024000E300E1002A0028002C000100000000006B
:10025000000044454255473A20656E61626C656412
:100260002E0A000A002530313662003A200025307F
:100270003258000A722F632030313233343536372A
:1002800038394142434445460A000A002530325875
:1002900020006B6579626F6172645F7265706F7266
:1002A000743A20000A0025303258006B6579626F7D
:1002B0006172645F7365745F6C65643A20006465A5
:1002C0006C5F6B65795F6269743A2063616E277455
:1002D0002064656C3A20253032580A006164645FFE
:1002E0006B65795F6269743A2063616E277420617F
:1002F00064643A20253032580A00290A0025750026
:100300002F002575005D280025640020002564006D
:10031000200025640020002564007C002530325830
:10032000006D6F7573656B6579205B62746E7C78A8
:100330002079207620685D287265702F61636C29B2
:100340003A205B006D6B5F776865656C5F74696D03
:10035000655F746F5F6D6178203D2025640A006DD4
:100360006B5F776865656C5F6D61785F73706565FD
:1003700064203D2025640A006D6B5F74696D655FC4
:10038000746F5F6D6178203D2025640A006D6B5F9E
:100390006D61785F7370656564203D2025640A0097
:1003A0006D6B5F696E74657276616C203D202564AB
:1003B0000A006D6B5F64656C6179203D2025640ADD
:1003C000006D6B5F776865656C5F74696D655F7400
:1003D0006F5F6D6178203D2025640A006D6B5F774B
:1003E0006865656C5F6D61785F7370656564203DFD
:1003F0002025640A006D6B5F74696D655F746F5FC3
:100400006D6178203D2025640A006D6B5F6D617819
:100410005F7370656564203D2025640A006D6B5F25
:10042000696E74657276616C203D2025640A006DEA
:100430006B5F64656C6179203D2025640A000A00C9
:10044000257500363A20776865656C5F74696D655F
:100450005F746F5F6D61783A20000A002575003582
:100460003A20776865656C5F6D61785F737065656C
:10047000643A20000A00257500343A2074696D65DD
:100480005F746F5F6D61783A20000A002575003354
:100490003A206D61785F73706565643A20000A00E8
:1004A000257500323A20696E74657276616C286D2C
:1004B00073293A20000A00257500313A2064656CE2
:1004C0006179282A31306D73293A20000A092D20DC
:1004D00056616C756573202D0A004D3E004D2564F4
:1004E0003E20003F007365742064656661756C741E
:1004F0000A00433E200077686572652064656C746D
:10050000613A20637572736F723D25642C207768A1
:1005100065656C3D25640A53656520687474703A9E
:100520002F2F656E2E77696B6970656469612E6F18
:1005300072672F77696B692F4D6F7573655F6B6598
:1005400079730A000A092D204D6F7573656B657903
:10055000202D0A4553432F713A09717569740A3188
:100560003A0964656C6179282A31306D73290A3241
:100570003A09696E74657276616C286D73290A3365
:100580003A096D61785F73706565640A343A09747D
:10059000696D655F746F5F6D61780A353A097768D8
:1005A00065656C5F6D61785F73706565640A363A86
:1005B00009776865656C5F74696D655F746F5F6D01
:1005C00061780A0A703A097072696E742076616CFB
:1005D0007565730A643A09736574206465666175AC
:1005E0006C74730A75703A092B310A646F776E3A2E
:1005F000092D310A706775703A092B31300A70671E
:10060000646F776E3A092D31300A0A73706565643C
:10061000203D2064656C7461202A206D61785F73D1
:1006200070656564202A2028726570656174202FCA
:100630002074696D655F746F5F6D6178290A003F92
:10064000004D3E2000433E20004C25640A007469A2
:100650006D65725F72656164333228293A202530F6
:10066000346C580A006B65796D61705F636F6E66FC
:1006700069672E6E6B726F3A2025580A006B657998
:10068000626F6172645F69646C653A2025580A0084
:100690006B6579626F6172645F70726F746F636FA4
:1006A0006C3A2025580A00686F73745F6B65796235
:1006B0006F6172645F6C65647328293A2025580A5B
:1006C000000A092D20537461747573202D0A0047A8
:1006D00043433A20342E392E32204156522D4C4974
:1006E00042433A20312E382E3073766E20415652D6
:1006F0005F415243483A20617672350A004F5054A8
:10070000494F4E533A204C554641204D4F55534585
:100710004B45592045585452414B455920434F4E63
:10072000534F4C4520434F4D4D414E44204E4B526C
:100730004F20343039360A004255494C443A202281
:10074000302E362E3237332D322D67353136663521
:100750003122202831333A31373A30302046656231
:100760002031322032303139290A005649443A20AA
:1007700030783132303928546563686E6F6D616E40
:10078000637929205049443A203078413145352851
:1007900041747265757329205645523A203078307D
:1007A0003030380A00444553433A20712E6D2E6B89
:1007B0002E206B6579626F617264206669726D7755
:1007C00061726520666F72204174726575730A00EC
:1007D0000A092D2056657273696F6E202D0A000A72
:1007E000092D20436F6E736F6C65202D0A455343AE
:1007F0002F713A09717569740A6D3A096D6F7573D5
:10080000656B65790A000A092D204D6167696320CF
:100810002D0A443A094465627567204D657373611A
:10082000676520546F67676C650A583A094D6174B3
:10083000726978204465627567204D6F6465205445
:100840006F67676C65202D2053686F77206B657923
:100850007072657373657320696E206D617472695F
:100860007820677269640A4B3A094B6579626F6157
:10087000726420446562756720546F67676C6520F9
:100880002D2053686F77206B6579707265737320C4
:100890007265706F72740A4D3A094465627567201B
:1008A0004D6F75736520546F67676C650A563A091A
:1008B00056657273696F6E0A533A095374617475A1
:1008C000730A433A09416374697661746520436F22
:1008D0006E736F6C65204D6F64650A46312D46312D
:1008E000303A0953776974636820746F204C6179DA
:1008F000657220302D392028463130203D204C3083
:10090000290A302D393A0953776974636820746F66
:10091000204C6179657220302D390A4553433A09DC
:1009200053776974636820746F204C617965722015
:10093000302028616C7465726E617465206B657916
:100940002031290A47524156453A09537769746361
:100950006820746F204C6179657220302028616CAA
:100960007465726E617465206B65792032290A5056
:10097000415553453A094A756D7020746F20426F96
:100980006F746C6F61646572202852657365742999
:100990000A4E3A094E4B524F20546F67676C650AF6
:1009A000003F004E4B524F3A206F66660A004E4B96
:1009B000524F3A206F6E0A000A6D6F7573653A20C8
:1009C0006F66660A000A6D6F7573653A206F6E0A6E
:1009D000000A6B6579626F6172643A206F66660A1D
:1009E000000A6B6579626F6172643A206F6E0A006B
:1009F0000A6D61747269783A206F66660A000A6D42
:100A000061747269783A206F6E0A000A64656275D3
:100A1000673A206F66660A000A64656275673A2065
:100A20006F6E0A000A0A4A756D70696E6720746FEE
:100A300020626F6F746C6F616465722E2E2E2000C1
:100A4000433E20005B735D004B6579626F617264A9
:100A50002073746172742E0A005B575D005B535DF6
:100A6000005B525D005B445D005B435D000403304E
:100A70000000000E034100740072006500750073F1
:100A8000000000180354006500630068006E006FEA
:100A9000006D0061006E006300790000000403092E
:100AA0000409025B00030100A0FA0904000001032D
:100AB0000101000921110100012240000705810305
:100AC00008000A09040100010300000009211101C6
:100AD000000122C0000705820320000A0904020069
:100AE0000203000000092111010001222200070574
:100AF00083032000010705030320000112011001F8
:100B0000000000080912E5A10800010203010631F6
:100B1000FF0974A1010975150026FF0095207508CD
:100B200081020976150026FF00952075089102C004
:100B300005010902A10185020901A10005091901A8
:100B4000290515002501950575018102950175039B
:100B500081010501093009311581257F950275084C
:100B6000810609381581257F950175088106050CD8
:100B70000A38021581257F950175088106C0C005D8
:100B8000010980A10185031601002603001A8100D6
:100B90002A8300751095018100C0050C0901A1018F
:100BA0008504160100269C021A01002A9C02751079
:100BB00095018100C005010906A1018505050719F8
:100BC000E029E7150025019508750181020508193E
:100BD000012905950575019102950175039101059E
:100BE00007190029EF1500250195F075018102C054
:100BF00005010906A101050719E029E715002501EE
:100C00009508750181029501750881010508190192
:100C10002905950575019102950175039101050757
:100C2000190029FF150026FF00950675088100C0F0
:100C300011241FBECFEFDAE0DEBFCDBF04B603FE46
:100C400027C08091340290913502A0913602B09174
:100C500037028730904BA740B04BD1F4109234024A
:100C600010923502109236021092370214BE84B7E9
:100C7000877F84BF0FB6F894A89580916000886143
:100C800080936000109260000FBEE0E0F8E30995E9
:100C900011E0A0E0B1E0ECE7F5E502C005900D92AF
:100CA000AC33B107D9F722E0ACE3B1E001C01D924B
:100CB000A433B207E1F70E94D0240C94BC2A0C9410
:100CC0000000FF93EF93E0913C01F0913D013097DC
:100CD00009F00995EF91FF910895FC01859180300D
:100CE00011F0EFDFFBCF0895FF27E0E230E247FF8E
:100CF0000CC0419597FF09C0EDE260957095809515
:100D00009095611D711D811D911D27FF02C02195C8
:100D100030E350E2AA27660F771F881F991FAA1F8A
:100D2000A41710F0A41B63955A95A9F7AA3008F0F0
:100D3000A95FA05DAF93F3956115710581059105DC
:100D400041F7ED3211F4EF93F395F21718F43F9356
:100D5000F395FBCF8F91B5DFFA95E1F70895E9910F
:100D6000F9918591803021F0853219F0AADFF9CF11
:100D7000089520E0E89455915532C1F3503311F4B1
:100D8000689455915A3348F4505390F3220F022E31
:100D9000220F220F200D250FF4CF0EF421958991FB
:100DA0009991533619F3533729F1533559F1BC0151
:100DB00088279927E8945C3621F489919991689461
:100DC0005591543639F446EF7EF077FF0DC08FEF22
:100DD0009FEF0AC055374AE039F0583540E121F01D
:100DE000523642E009F00895FF93EF937DDFEF91D3
:100DF000FF91B7CFFF93EF93FC0181918030B9F35E
:100E000060DFFBCFFF93EF9368DFF1CFDF93CF93EA
:100E1000CDB7DEB72596A3DFCF91DF91089581E0AE
:100E2000089581E008950C9411070E947F198111A3
:100E300002C00E94ED190C94310B0C94340B0895F0
:100E40000C941F070C94200708950E94E5120E943D
:100E500024072FEF84E39CE0215080409040E1F78D
:100E600000C0000087E797E790930108809300088F
:100E70000C948D1BFF920F931F93CF93DF938C01E4
:100E8000FC01C081D18180916701811113C08281F1
:100E9000882349F0CE010E941A18F82E682FCE013F
:100EA0000E94BF1704C0CE010E94EE17F82EBE01AB
:100EB0008F2D04C0CE010E941A18BE010E94BF08E7
:100EC000EC01B8010E941307882309F44DC1C63D07
:100ED000FCE5DF0709F4AFC0B0F4C531ECE5DE078F
:100EE00068F4C230FCE5DF0708F053C0C1158CE59B
:100EF000D80701F1C130DC4529F129C1C631DC45F3
:100F000009F4FEC024C1CB3D8CE5D80791F150F423
:100F1000C73DFCE5DF0709F4B1C0C83DDC4509F475
:100F2000D4C015C1CC3DECE5DE0751F1CD3DDC452B
:100F3000C1F00DC1F8018281882309F415C10E9416
:100F4000250712C1F8018281882309F40DC180911F
:100F5000EB0181608093EB0182E592E00E946D06D7
:100F600003C1F8018281882309F4FEC00E94ED19B3
:100F7000FBC0F8018281882309F4F6C080E006C036
:100F8000F8018281882309F4EFC082E00E9478256D
:100F9000EBC0F8018281882309F4DEC00E947F192A
:100FA000811102C00E94ED190E94921990E0909365
:100FB000260280932502FE01E350FC45E231F10553
:100FC00030F4EA5AFF4F809125020C94602A8091F8
:100FD0002502816027C0826025C0846023C08061B3
:100FE00021C080621FC080641DC080681BC08460F7
:100FF000886018C08E7F16C08D7F14C08B7F12C092
:101000008F7E10C08F7D0EC08F7B0CC08F770AC083
:101010008B7F877F07C087FB222720F991E09227EB
:1010200090FB87F980932502809125020E949619F2
:101030000E94E51299C0F8018281882351F0109234
:1010400043010E94251B9093400180933F0182E061
:1010500022C08091430181110FC080913F01909186
:1010600040010E943D1B883C910530F486E20E94BD
:10107000810E86E20E94BA0F82E024C0F8018281CC
:10108000882361F0109244010E94251B9093420135
:101090008093410180E20E94221066C08091440149
:1010A00081110FC080914101909142010E943D1B2E
:1010B000883C910530F487E20E94810E87E20E940D
:1010C000BA0F80E20E9429104FC0F801828181117D
:1010D000D9CF809144018111F4CF80914101909149
:1010E00042010E943D1B883C910558F780E20E9416
:1010F000291088E20E94810E88E20E94BA0F34C053
:101100000E949A18282FF801828140910001509185
:101110000101882379F02A7A91E009F490E0909314
:101120003E01911102C069E201C065E3CA010E945B
:10113000761A0AC080913E01811102C069E201C0A5
:1011400065E3CA010E94811A0E94E6180DC081E081
:101150008093430180934401C801DF91CF911F9197
:101160000F91FF900C940F0780E0DF91CF911F91BA
:101170000F91FF90089580E090E0089508959BE01E
:10118000799FF00111249CE2899FE00DF11D11244B
:10119000E60FF11DEE0FFF1FE65BFE4F8591949168
:1011A0000895880F991FFC01ED59FD4F8591949189
:1011B0000895CF93DF930E94BF080E94900AEC012C
:1011C000811520E59207F0F5811530E4930708F0CA
:1011D00024C1883E910500F5803E910508F09CC130
:1011E000883A910570F4853A910508F09FC08130E6
:1011F000910509F491C108F442C1049708F08CC12B
:101200003EC18F3B910508F49CC0803C910508F4D9
:1012100036C1805C9109F4C0811540E2940758F40E
:10122000C11581E0D80708F077C1C03FD10508F4A7
:1012300026C1D06571C1811520E3920708F0E4C092
:101240009F70DEC0811535E5930708F044C0811515
:1012500044E5940708F0F8C0C11582E5D80708F501
:10126000C11521E5D20708F0DBC08C2F837021E087
:1012700030E002C0220F331F8A95E2F73C68CE01AE
:1012800074E0969587957A95E1F78370382BCF7047
:10129000C695C69580E2C89FE0011124C22BD32BCE
:1012A0003BC12C2F26952695CE0183709927C11519
:1012B000D34508F0BAC040E2249F90011124C1E058
:1012C000D0E002C0CC0FDD1F8A95E2F72C2B3D2B1E
:1012D000E901DC6821C1811549E59407A0F4C11535
:1012E00088E5D80708F0B5C0C11526E5D20708F093
:1012F000C6C08C2F0E940D0B8F71C82FD0E0DC2F41
:10130000CC27D06209C181153AE5930708F4A6C03D
:1013100090568115904208F0B2C08D2F8F710E94B7
:101320000D0BDD27D0628F71D82BF6C0853A910561
:1013300009F4A8C0863A910509F0A7C0C2E8D0E434
:10134000EBC0883A910509F4A3C0893A910509F4E4
:10135000A2C08A3A910509F4A1C08B3A910509F41B
:10136000A0C08C3A910509F49FC08B3B910509F40C
:101370009EC08C3B910509F49DC08D3A910509F4FE
:101380009CC0803B910509F49BC08E3A910509F4FD
:101390009AC08F3A910509F499C0813B910509F4EF
:1013A00098C0823B910509F497C0833B910509F4ED
:1013B00096C0843B910509F495C0853B910509F4DD
:1013C00094C0863B910509F493C0873B910509F4CD
:1013D00092C0883B910509F491C0893B910509F4BD
:1013E00090C08D3B910509F48FC08E3B910509F4A7
:1013F0008EC08A3B910509F48DC0C0E0D4E48CC056
:101400000E94D108EC0188C09927D3FF03C0EC01EA
:10141000D86C82C0EC01D06C7FC0DF70D06A7CC019
:10142000DC2FCC27C16FD06A77C040E2249F9001A7
:101430001124C1E0D0E002C0CC0FDD1F8A95E2F795
:10144000C22BD32BDA6868C0D82FCC27C46FD06AE0
:1014500063C0DC2FCC27C06FD06A5EC08F700E9443
:101460000D0B94E0D695C7959A95E1F7CF70D0E033
:10147000DC2FCC27D06A8F70806EC82B4DC0C0E0A7
:10148000D0E04AC0C1E8D0E447C0C3E8D0E444C0DB
:10149000C2EED4E441C0C9EED4E43EC0CAEED4E406
:1014A0003BC0C5EBD4E438C0C6EBD4E435C0C3EBD5
:1014B000D4E432C0C4EBD4E42FC0C7EBD4E42CC0D6
:1014C000CCECD4E429C0CDECD4E426C0C3E8D5E408
:1014D00023C0CAE8D5E420C0C2E9D5E41DC0C4E9F0
:1014E000D5E41AC0C1E2D6E417C0C3E2D6E414C002
:1014F000C4E2D6E411C0C5E2D6E40EC0C6E2D6E42A
:101500000BC0C7E2D6E408C0CFE6D4E405C0C0E70C
:10151000D4E402C0CAE2D6E4CE01DF91CF910895AF
:101520008238910549F1B0F48133910509F458C02E
:1015300048F48932910509F44EC08A32910509F4C4
:1015400054C008958533910509F440C0893391054D
:1015500099F00895833E910529F138F4803E910574
:1015600091F0823E9105A1F00895863E9105F9F033
:10157000873E910531F108952091250220FD3AC062
:1015800021FD38C008958091250280FD35C032C00C
:101590008091250282FF32C08091250284FD30C0F7
:1015A00083EE39C08091250282FD28C0F5CF80915D
:1015B000250283FF27C08091250284FD21C087EE8C
:1015C0002AC08091250283FD1DC0F5CF80912502A0
:1015D00085FD1AC01BC08091250285FD17C014C06F
:1015E0008091250286FD14C015C08091250286FDDC
:1015F00011C00EC080EE0FC089E30DC082EE0BC09B
:1016000080E009C086EE07C089E205C085E303C01B
:101610008AE201C081E390E008959091250292FF53
:101620000DC0282F2871283019F4877F846006C0E8
:10163000282F2471243011F48B7F886093FF0DC014
:10164000282F2871283119F4877E846106C0282F3D
:101650002471243111F48B7E886194FD877E089576
:1016600008950C94300B08950C94330BEEE1F1E0E7
:1016700041E050E024E02E0F9191A92FA295AF7088
:10168000B0E091963C9191979F70BA0102C0660FAD
:10169000771F9A95E2F7CB018095832391968C93DF
:1016A0002E13EACFA3E1B1E041E050E02BE02A0F96
:1016B0008D91E82FE295EF70F0E031A18F70BA01C3
:1016C00002C0660F771F8A95E2F7CB01962F90959F
:1016D000932391A392A1892B82A32A13E9CF10927D
:1016E0004E0110924D011092460110924501109248
:1016F000500110924F011092480110924701109230
:1017000052011092510110924A0110924901109217
:1017100054011092530110924C0110924B0184E03D
:101720000E947C0C0C9415074F925F927F928F92CF
:101730009F92AF92BF92CF92DF92EF92FF920F9360
:101740001F93CF93DF932EE1422E21E0522EADE482
:10175000B1E020E001E010E05D018D909C901197D8
:1017600011961C921E92E20189912E01E82FE295BA
:10177000EF70F0E031A18F70A80102C0440F551F37
:101780008A95E2F7CA01342B31A342A1382F309554
:10179000432342A350EA5A95F1F793E1C92E91E011
:1017A000D92E40E050E0E60179906E01672D6295F8
:1017B0006F7070E0EB01E8A06D917C911197F12CB6
:1017C000D72DDF7002C0F594E794DA95E2F7E0FCDC
:1017D00008C07801042E02C0EE0CFF1C0A94E2F748
:1017E00002C0E12CF12C6E297F2911967C936E9317
:1017F0004F5F5F4F4B305105B1F691A1392331A3B3
:1018000092A1892B82A3129681E0F501408151813A
:101810008416950609F480E0282BF1E0A535BF0772
:1018200009F09ACF44E065E471E08DE491E00E9414
:101830007D0C0E941D0781E0DF91CF911F910F91D8
:10184000FF90EF90DF90CF90BF90AF909F908F90E0
:101850007F905F904F900895E82FF0E0EE0FFF1F0C
:10186000EB5BFE4F808191810895CF92DF92EF92E2
:10187000FF920F931F93CF93DF9383E792E00E9431
:101880006D0685E4E82E81E0F82EC0E0D0E09EE60B
:10189000C92E92E0D92E05E612E0DF93CF93DF92B6
:1018A000CF920E9406078BE692E00E946D06F70138
:1018B000819191917F010E9465199F938F931F934E
:1018C0000F930E94060783E692E00E946D06219620
:1018D0008DB79EB708960FB6F8949EBF0FBE8DBF0A
:1018E000C430D105D1F6DF91CF911F910F91FF90B8
:1018F000EF90DF90CF9008950895FF920F931F937C
:10190000CF93DF93F82E092F162FD72FC42F222322
:1019100049F081E0809357010E94251B9093560166
:1019200080935501809157018823B9F0809155012A
:10193000909156010E943D1B069778F0EF2DF02FF5
:10194000A12FBD2F80E08C1731F0219131912D9383
:101950003D938F5FF8CF10925701DF91CF911F9188
:101960000F91FF90089590935D0180935C0108951D
:10197000E0915C01F0915D01309721F00190F081E0
:10198000E02D099480E00895EF92FF921F93CF938A
:10199000DF93FC01A0915C01B0915D01109709F407
:1019A00042C080911201882341F08091250287FF77
:1019B00004C08081818385E08083EF011296ED91E0
:1019C000FC911397CE0109958091EB0182FF2BC00A
:1019D00080FF04C082E992E00E946D0618E08CE866
:1019E000E82E82E0F82E8091EB0180FF0BC0888109
:1019F0001F928F93FF92EF920E9406070F900F9015
:101A00000F900F90115021961111EDCF8091EB01A5
:101A100080FF09C08AE892E0DF91CF911F91FF908B
:101A2000EF900C946D06DF91CF911F91FF90EF9096
:101A30000895E0915C01F0915D01309739F022E06A
:101A4000DC012C930480F581E02D09940895209108
:101A50005A0130915B018217930771F090935B01FB
:101A600080935A01E0915C01F0915D01309721F083
:101A70000680F781E02D0994089520915801309156
:101A800059018217930771F090935901809358017F
:101A9000E0915C01F0915D01309721F00084F185C7
:101AA000E02D0994089585B7806885BF85B7806863
:101AB00085BF089508950E94530D0C945A0D81E03E
:101AC00008950E941C1B0E94360B0C949E1BCF9302
:101AD000C82F8091EB0182FF1EC080FF04C08BEAFB
:101AE00092E00E946D068091EB0180FF0CC01F9276
:101AF000CF9386EA92E09F938F930E9406070F9000
:101B00000F900F900F908091EB0180FF04C084EA4A
:101B100092E00E946D068C2FCF910C9422074F9279
:101B20005F927F928F929F92AF92BF92CF92DF92FD
:101B3000EF92FF920F931F93CF93DF93CDB7DEB752
:101B40002A970FB6F894DEBF0FBECDBF0E94940B4C
:101B50000E945F0D811111C08FEF89838A831B82E0
:101B60000E94251B8160782F9D838C8349815A8137
:101B70006B818D810E944D0E57C09FE5C92E91E06B
:101B8000D92E00E010E0AA24A394B12C702E802F4F
:101B90000E942C0C4C01F601419051906F01482697
:101BA00059264114510431F40F5F1F4F04301105C1
:101BB00069F7D2CF8091EB0181FD0E94350C20E0C6
:101BC00030E07501022E02C0EE0CFF1C0A94E2F711
:101BD000C70184219521892B09F12E837F828E20D4
:101BE0009F2091E0892809F490E098870E94251BA6
:101BF0008160782F9A8789874E815F8168858A8581
:101C00000E944D0E000F111FF801E15AFE4F808116
:101C10009181E826F926F182E08206C02F5F3F4FCE
:101C20002B30310571F6C0CF0E94B31D10915E01BB
:101C30000E94B80C1817D9F00E94B80C80935E016E
:101C40002A960FB6F894DEBF0FBECDBFDF91CF91BD
:101C50001F910F91FF90EF90DF90CF90BF90AF90CA
:101C60009F908F907F905F904F900C94670D2A9675
:101C70000FB6F894DEBF0FBECDBFDF91CF911F919D
:101C80000F91FF90EF90DF90CF90BF90AF909F901B
:101C90008F907F905F904F900895CF93DF93CDB753
:101CA000DEB72B970FB6F894DEBF0FBECDBF4F83C4
:101CB000588769877A878B87DE01119686E0FD0158
:101CC00011928A95E9F785E0FE01379601900D9211
:101CD0008A95E1F749815A816B817C818D819E8152
:101CE0000E948F152B960FB6F894DEBF0FBECDBFA6
:101CF000DF91CF910895FC01808191810E945B1852
:101D00000895CF93DF931F92CDB7DEB7882309F4F0
:101D10002DC1682F8238C1F40E94B80C81FD26C104
:101D200069E380910001909101010E94761A0E945E
:101D3000E6182FEF81EE94E0215080409040E1F7CB
:101D400000C0000069E319C0833811F50E94B80C87
:101D500080FD0CC163E580910001909101010E941A
:101D6000761A0E94E6182FEF81EE94E02150804011
:101D70009040E1F700C0000063E580910001909180
:101D800001010E94811A0F90DF91CF910C94E61807
:101D90008438C1F40E94B80C82FDE8C067E48091E9
:101DA0000001909101010E94761A0E94E6182FEF1F
:101DB00081EE94E0215080409040E1F700C00000A7
:101DC00067E4DBCF8CEF860F813A70F4862F69834E
:101DD0000E94072169818111C9C080910001909101
:101DE00001010E94761ACFCF80E2860F883048F436
:101DF000677081E001C0880F6A95EAF70E949D181C
:101E0000C2CF8BE5860F833088F4653A29F0663AB5
:101E100031F083E890E005C081E890E002C082E8FC
:101E200090E00F90DF91CF910C94270D88E5860FFD
:101E3000873108F091C0683A09F445C0693A09F45D
:101E400045C06A3A09F445C06B3A09F445C06C3A9A
:101E500009F445C06B3B09F445C06C3B09F445C02F
:101E60006D3A09F445C0603B09F445C06E3A09F487
:101E700045C06F3A09F445C0613B09F445C0623B77
:101E800009F445C0633B09F445C0643B09F445C00F
:101E9000653B09F445C0663B09F445C0673B09F45E
:101EA00045C0683B09F445C0693B09F445C06D3B3A
:101EB00009F445C06E3B09F445C06A3B09F445C0CE
:101EC00080E090E044C082EE90E041C089EE90E076
:101ED0003EC08AEE90E03BC085EB90E038C086EBD8
:101EE00090E035C083EB90E032C084EB90E02FC0EF
:101EF00087EB90E02CC08CEC90E029C08DEC90E05A
:101F000026C083E891E023C08AE891E020C082E9FE
:101F100091E01DC084E991E01AC081E292E017C00F
:101F200083E292E014C084E292E011C085E292E084
:101F30000EC086E292E00BC087E292E008C08FE616
:101F400090E005C080E790E002C08AE292E00F9046
:101F5000DF91CF910C943D0D603F40F0862F0E94A1
:101F6000391C0F90DF91CF910C94261D0F90DF91BB
:101F7000CF910895882309F464C0823879F40E94CF
:101F8000B80C81FF5EC069E380910001909101016E
:101F90000E94761A0E94E61869E310C08338B1F4F3
:101FA0000E94B80C80FF4DC063E5809100019091C4
:101FB00001010E94761A0E94E61863E580910001F3
:101FC000909101010E94811A0C94E618843879F4EA
:101FD0000E94B80C82FF35C067E4809100019091A7
:101FE00001010E94761A0E94E61867E4E7CF9CEF91
:101FF000980F913A10F4682FE1CF90E2980F983043
:1020000050F4877091E001C0990F8A95EAF7892F03
:102010000E94A318D9CF9BE5980F933020F480E05D
:1020200090E00C94270D98E5980F973120F480E00C
:1020300090E00C943D0D803F20F00E94A11C0C9478
:10204000261D0895882321F00E949D180C94E618FF
:102050000895882321F00E94A3180C94E61808958F
:102060004F925F926F927F92BF92CF92DF92EF92E8
:10207000FF920F931F93CF93DF937C01D62FC72F2F
:10208000FC01058102950F70128111110E94BA188E
:102090000E949318882379F0112369F080E28D0F54
:1020A000883048F082E00E9431190E94931891E034
:1020B000B82EB92601C0B12CCC2EC2948FE0C82214
:1020C000D12CF601E859FF4F0C94602A8C2F807FA9
:1020D000CF70882311F0C295C07F112399F0CC23D3
:1020E00009F4CFC180E28D0F883010F0D11104C007
:1020F0008C2F0E949D1803C08C2F0E94AD180E9447
:10210000E618BFC18D2F0E94BA0FCC2309F4DEC19F
:1021100080E28D0F883010F0D11104C08C2F0E9406
:10212000A31803C08C2F0E94B3180E94E618CEC1DA
:102130008C2F807FCF70803211F0C295C07FDD235D
:1021400019F0D130C9F022C0112371F0002341F001
:10215000013031F40E94CD188C2B0E94D318B6C1E7
:102160000E94CD188C2B46C1002319F0013009F4D0
:10217000ADC10E94DC1818C0112321F0063008F010
:10218000A5C10EC0053008F0A1C10EC0112351F049
:10219000002331F0F701858180FF73C18F70858343
:1021A0008C2F28C101117EC18C2F2AC18C2F8695BE
:1021B0008695837090E0009719F0019761F086C1D1
:1021C000112321F08D2F9C2F937002C080E090E0AE
:1021D0000E94270D8BC1112321F08D2F9C2F93700E
:1021E00002C080E090E00E943D0D80C11123F9F013
:1021F000D53F51F0D63F71F0D43FA9F480911F0232
:102200009091200281600BC080911F02909120026A
:10221000826005C080911F0290912002846090939B
:10222000200280931F028D2F0E94391C1EC0D53FB3
:1022300051F0D63F71F0D43FA9F480911F029091E4
:1022400020028E7F0BC080911F02909120028D7F13
:1022500005C080911F02909120028B7F90932002F5
:1022600080931F028D2F0E94A11C0E94261D3EC13B
:102270008C2F837009F050C0111134C18D2F8295BD
:1022800086958770880F880F9D2F9F70492E512C3F
:10229000612C712C082E04C0440C551C661C771C44
:1022A0000A94D2F7D4FF14C00FE010E020E030E031
:1022B000B901A80104C0440F551F661F771F8A95F6
:1022C000D2F7CB01BA01609570958095909503C0C7
:1022D00060E070E0CB01C695C695C370D0E0C23017
:1022E000D10561F0C330D10581F0642975298629B3
:1022F0009729219771F00E94D416F4C0642975299A
:10230000862997290E94E616EDC00E94D416C301C3
:10231000B2010E94C216E6C0112319F08C2F817001
:1023200001C08695882309F4DDC08D2F829586959E
:102330008770880F880F9D2F9F70492E512C612C1C
:10234000712C082E04C0440C551C661C771C0A9482
:10235000D2F7D4FF14C00FE010E020E030E0B90164
:10236000A80104C0440F551F661F771F8A95D2F736
:10237000CB01BA01609570958095909503C060E09F
:1023800070E0CB01C695C695C3704C2F50E042302B
:10239000510569F04330510589F064297529862972
:1023A00097294130510571F00E949A179BC064290A
:1023B0007529862997290E94AC1794C00E949A1704
:1023C000C301B2010E9488178DC08D2F90E0FC01DF
:1023D000E05EF109E531F10508F04FC0E858FF4F24
:1023E0000C94602ADF708C2F8F71112331F00E94C2
:1023F00021178D2F0E94221069C00E9442178D2F35
:102400000E94291063C0112341F0053008F05EC01E
:102410008C2F8F710E94671759C0063008F056C084
:10242000F7CF112339F08C2F8F710E9421174EC0E6
:102430001123C9F38C2F8F710E94421747C01123BB
:1024400029F08C2F8F710E940C1740C00E94071733
:102450003DC0112349F0CF718C2F0E94211763E0FA
:102460008C2F0E941C1932C081E00E943119023069
:1024700068F182E00E94311929C0112331F0002354
:1024800091F28D2F0E94810E21C0002399F2D93341
:1024900049F45FEF67EE73E0515060407040E1F740
:1024A00000C000008D2F0E94BA0F10C04C2F4F703B
:1024B0006D2FC7010E94BB080E94331617C04C2F16
:1024C0004F706D2FC7010E94BE0810C088E0C8166B
:1024D000D10441F05CF0EAE0CE1AD108F2E0CF1668
:1024E000D10420F40E94B80C0E942207BB20F1F016
:1024F0000E948F1880FD1AC0F70112820E9489186D
:102500000E942117C7010E94A4120E948918DF911E
:10251000CF911F910F91FF90EF90DF90CF90BF90E0
:102520007F906F905F904F900C944217DF91CF9106
:102530001F910F91FF90EF90DF90CF90BF907F9011
:102540006F905F904F9008950F931F93CF93DF93F9
:10255000EC01888199812B813C81232BB9F09F3F2D
:1025600011F48F3F99F0CE010E943A07882371F051
:10257000688179818A810E9466188C010E94BE1749
:102580000E94BF16B801CE010E943010DF91CF919A
:102590001F910F9108950E94BA180E94CA180E94B4
:1025A000E6180E944E1E0E94261D80E090E00E94C8
:1025B000270D80E090E00C943D0D809100019091FA
:1025C00001010E948C1A0C94CB120E94AA180C9440
:1025D000DD12E92FE295EF70F0E03297EE30F10571
:1025E000B0F4E357FF4F0C94602A803F91F018F449
:1025F000803E68F40EC0843F51F40BC0803E48F02A
:10260000813F29F406C093FB882780F9089580E074
:10261000089581E008950E945B180E94E9120895D0
:10262000CF93DF9300D000D01F92CDB7DEB70F90CD
:102630000F900F900F900F90DF91CF910895CF934F
:10264000DF9300D000D000D0CDB7DEB726960FB60E
:10265000F894DEBF0FBECDBFDF91CF9108951F93D9
:10266000CF93DF93C091680116E080916901C8178C
:1026700099F0D0E01C9FF0011D9FF00D1124E65948
:10268000FE4F4081518162817381848195810E94D6
:102690001F132196C770E9CFDF91CF911F91089545
:1026A00040919A0150919B0160919C0170919D0114
:1026B00080919E0190919F010C941F1380919F0126
:1026C00082958F7009F054C080919C01882309F491
:1026D0004FC080916801A091690160919A01709149
:1026E0009B0140919D0150919E01B6E08A1709F42B
:1026F0003FC090E041155105C1F17F3F11F46F3F9C
:10270000A1F1B89FF001B99FF00D1124E659FE4FD9
:10271000218172132AC02081621327C022812111D6
:1027200024C0238134812417350710F42150310946
:10273000241B350B283C3105C0F420919F012F70DC
:10274000206120939F0126E0289FF001299FF00D32
:102750001124E159FE4F80818F70806180838AE966
:1027600091E00E94A4120C942F1301968770BECFA3
:102770000895CF92DF92EF92FF920F931F93CF9322
:10278000DF93CDB7DEB762970FB6F894DEBF0FBE0A
:10279000CDBF8C0185E0F801DE011D9601900D9200
:1027A0008A95E1F7D8014C9111965C911197129698
:1027B0006C9112971396CD90DC90149730919A01FA
:1027C00070919B0180919D0190919E01009709F469
:1027D0006BC17F3F19F43F3F09F466C1E0909C0153
:1027E000EE2009F4C0C020919F01C816D90628F038
:1027F000F601E81BF90BCF0104C0809590958C0D74
:102800009D1DFF24F394883C910578F0F12C207FE6
:1028100009F0C6C07C2DD98AC88A89890E94101304
:102820008AE991E00E94A412B1C0822F807F09F052
:1028300046C0751314C0341312C0611110C02F703C
:10284000206120939F010E9450138AE991E00E9429
:10285000A41280919F01D80115968C932EC0CD288B
:1028600019F15F3F11F44F3FF9F0F62E61111CC0D2
:10287000809168012091690136E0821709F45AC0FD
:1028800090E0389FF001399FF00D1124E659FE4F7A
:102890007181571306C07081471303C07281711193
:1028A00003C001968770E9CFF62E662309F427C18D
:1028B00080919F01816080939F01F12C20C175134D
:1028C00008C0341306C0611104C080919F01D80173
:1028D000C3C04D875E878D859E856A8B0E940B13D2
:1028E0006A898823E1F16623D1F120919F01822F2B
:1028F00082958F7090E0029774F080919A01909188
:102900009B0198878F831986DB86CA862C87CE0128
:1029100007960E94A41286E0F801AAE9B1E00190AE
:102920000D928A95E1F70E945E130E945013FF24D6
:10293000F394E5C04D875E878D859E850E945B1868
:10294000292F22952F7030E0223031050CF0CBC0BA
:102950009F7009F0C5C0805E883008F4D0C0C801FF
:102960000E94A412E4CFC816D90608F453C0F60199
:10297000E81BF90BCF01883C910508F450C0F12CFD
:102980007C2DD98AC88A89890E941013EAE9F1E06E
:1029900086E0DF011D928A95E9F70E945013AFC0CF
:1029A000751314C0341312C0611110C080919F01BF
:1029B000F8018583C8010E94A41286E0EAE9F1E0EB
:1029C000DF011D928A95E9F7FE2C99C04D875E873D
:1029D0008D859E856A8B0E940B136A89882309F472
:1029E000BECF662309F4BBCF20919F01822F829531
:1029F0008F7090E002970CF48ECF80919A019091A5
:102A00009B019A8389831B82DD82CC822E83CE0137
:102A100001967FCF809590958C0D9D1DACCFF62EA5
:102A2000662309F49CCF75132EC034132CC020915B
:102A30009F0120FD1FC0822F82958F70D9F0D80191
:102A400015962C9315978F3049F08F5F982F92959C
:102A5000907F822F8F70892B15968C93C8010E94CE
:102A6000A41286E0F801AAE9B1E001900D928A95DE
:102A7000E1F793CF86E0F801AAE9B1E001900D9269
:102A80008A95E1F73CC04D875E878D859E850E94C3
:102A90000B13811140CF80919F01816080939F0132
:102AA000C8010E94A4122BC0662309F458CF4D8799
:102AB0005E878D859E850E940B13F82E882309F46E
:102AC0004ECF86E0F801AAE9B1E001900D928A9517
:102AD000E1F78AE991E00E947B0E0E945E135DCFD0
:102AE000811139CF0CC0243031050CF038CF9F70E4
:102AF00009F431CFF8019581907F09F02CCF8F2D0B
:102B000062960FB6F894DEBF0FBECDBFDF91CF91B6
:102B10001F910F91FF90EF90DF90CF9008951F933A
:102B2000CF93DF93CDB7DEB72C970FB6F894DEBF07
:102B30000FBECDBF4F83588769877A878B879C8765
:102B4000CE0107960E94B913882369F08F8198857A
:102B50002A853B85232BF1F19F3F09F063C08F3F0E
:102B600009F060C037C086E0FE013796DE0111969D
:102B700001900D928A95E1F76F817885EA85FB8552
:102B8000309741F17F3F11F46F3F21F120916901AE
:102B900030E0C9010196877099274091680150E0A3
:102BA0008417950709F447C069837A83FD83EC8312
:102BB00096E0929FD001939FB00D1124A659BE4F6D
:102BC000FE01319601900D929A95E1F7809369018B
:102BD0000E942F1316E08091680190916901891776
:102BE000C1F1189FC001112486599E4F0E94B9134C
:102BF000882379F1E09168011E9FF0011124E659C4
:102C0000FE4F4081518162817381848195810E9450
:102C10001F138091680190E0019687709927809337
:102C20006801D9CF4F81588569857A858B859C85C8
:102C30000E941F13CFCF0E94E512109269011092DB
:102C40006801EAE9F1E086E0DF011D928A95E9F783
:102C5000C1CF2C960FB6F894DEBF0FBECDBFDF916B
:102C6000CF911F910895EF92FF920F931F93CF93EF
:102C7000DF938C01892B09F46CC0F12CEE24E394D2
:102C8000E8012196F8018491843740F4843008F0FB
:102C900051C0813081F0823019F15BC0853709F471
:102CA00044C0A8F19CE7980F903708F052C08F7786
:102CB0000E94BA0F41C00E5F1F4FFE01C49180E217
:102CC0008C0F883048F4C7708E2D01C0880FCA95CC
:102CD000EAF70E94BD1814C08C2F0E94810E2DC0EF
:102CE0000E5F1F4FFE01C49180E28C0F883058F4B4
:102CF000C7708E2D01C0880FCA95EAF70E94C318CD
:102D00000E94E6181AC08C2F0E94BA0F16C00E5FE0
:102D10001F4FFE01C491CC2381F08FE99FE0019702
:102D2000F1F700C00000C150F6CF0E5F1F4FFE014B
:102D3000F49003C00E94810E8E018F2D882309F428
:102D40009FCFEFE9FFE03197F1F700C0000081501D
:102D5000F5CFDF91CF911F910F91FF90EF900895E4
:102D600008950C94B0160E94B1166093C20170933E
:102D7000C3018093C4019093C5010C94CB120895B4
:102D80000C94B3160F931F930091C2011091C301CD
:102D90002091C4013091C501602B712B822B932BA4
:102DA0001F910F910C94B3160F931F930091C201C2
:102DB0001091C3012091C4013091C501602371239A
:102DC000822393231F910F910C94B3160F931F939B
:102DD0000091C2011091C3012091C4013091C5013D
:102DE00060277127822793271F910F910C94B316A8
:102DF00008950C94F8160E94F9166093BE01709322
:102E0000BF018093C0019093C1010C94CB1260E08C
:102E100070E0CB010C94FB160F931F9341E050E040
:102E200060E070E08A019B0104C0000F111F221FA7
:102E3000331F8A95D2F7C901B8011F910F910C94E5
:102E4000FB160F931F9341E050E060E070E004C078
:102E5000440F551F661F771F8A95D2F78091BE01D8
:102E60009091BF01A091C001B091C1018A019B0165
:102E7000082B192B2A2B3B2BC901B8011F910F914D
:102E80000C94FB160F931F9341E050E060E070E05C
:102E900004C0440F551F661F771F8A95D2F74095CF
:102EA0005095609570958091BE019091BF01A09161
:102EB000C001B091C1018A019B01082319232A2373
:102EC0003B23C901B8011F910F910C94FB160F937E
:102ED0001F9341E050E060E070E004C0440F551FD4
:102EE000661F771F8A95D2F78091BE019091BF012E
:102EF000A091C001B091C1018A019B010827192747
:102F00002A273B27C901B8011F910F910C94FB168A
:102F10000F931F930091BE011091BF012091C0013A
:102F20003091C101602B712B822B932B1F910F913C
:102F30000C94FB160F931F930091BE011091BF01DB
:102F40002091C0013091C10160237123822393231A
:102F50001F910F910C94FB160F931F930091BE01CC
:102F60001091BF012091C0013091C10160277127EC
:102F7000822793271F910F910C94FB1608952BE045
:102F8000929F800D1124A82FA695A695A6958770CF
:102F900051E001C0550F8A95EAF785E0A89FD0015E
:102FA000112420E030E070E0F901EA0FFB1FE05649
:102FB000FE4F4081CB01022E02C0969587950A9460
:102FC000E2F7817099278195842785238427808360
:102FD0002F5F3F4F2530310539F708952BE0929F41
:102FE000800D1124682F669566956695982F9770C9
:102FF00085E0689FB001112440E050E080E0FA01D4
:10300000E60FF71FE056FE4F208130E0092E02C088
:10301000369527950A94E2F721703327042E01C0D4
:10302000220F0A94EAF7822B4F5F5F4F453051051C
:1030300031F70895BF92CF92DF92EF92FF920F93F4
:103040001F93CF93DF938C01C090C201D090C30136
:10305000E090C401F090C5018091BE019091BF0144
:10306000A091C001B091C101C82AD92AEA2AFB2A3D
:10307000CFE1D0E0D701C6010C2E04C0B695A795CC
:10308000979587950A94D2F780FF07C0BC2EB801A8
:103090008C2F0E94D908019719F4219758F7B12C69
:1030A0008B2DDF91CF911F910F91FF90EF90DF90CB
:1030B000CF90BF900895CF93DF93EC010E941A1830
:1030C000BE010E94D908DF91CF9108951F93CF933D
:1030D000DF93EB0190916701992321F0CB010E94CE
:1030E0005B1813C0882349F0CB010E941A18182FCF
:1030F000682FCE010E94BF1704C0CB010E94EE17BB
:10310000182FBE01812F0E94D908DF91CF911F9106
:1031100008958091C601859585958595089580913E
:10312000C601877008959091C601977081E009F4F7
:1031300080E008958091EA0108959091EA01892B39
:103140008093EA01089580959091EA018923809304
:10315000EA0108951092EA0108959091E901892BFE
:103160008093E901089580959091E90189238093E6
:10317000E90108951092E90108959091E801892BE1
:103180008093E801089580959091E80189238093C8
:10319000E80108951092E80108958091C70108950B
:1031A00008950C94D0189091C701981721F080933E
:1031B000C7010C94D11808958091C701882329F084
:1031C0001092C70180E00C94D1180895E09100019D
:1031D000F09101018091EA018083E0910001F0917A
:1031E000010190818091E901892B8083E0910001A8
:1031F000F091010190818091E801892B8083809179
:10320000C701882381F0E0910001F09101019081D4
:10321000892B808380910001909101010E94EF1918
:1032200081110E94DC1880910001909101010C94A1
:10323000C40C08950C94191998E0899F90011124E9
:10324000262B2093C6010E9421178091C6018595E7
:10325000859585950C941A191092C60180E00C94FE
:103260001A192091C601809582238093C601982F58
:10327000977079F430E0482F082E000C550B241776
:10328000350739F08595859585950E9442170C94F0
:103290002C19089590933D0180933C0108958295E7
:1032A000982F9C7C392F36953695282F237344E030
:1032B000249FC0011124932F982B292F2A7A269519
:1032C000892F8575880F822B08951F93CF93DF93E5
:1032D0001F92CDB7DEB799830E944F19182F99819D
:1032E000892F0E944F19212F30E0322F2227A90168
:1032F000482BCA010F90DF91CF911F91089580E074
:1033000090E00E94822A21E08D3E9E4F09F020E04D
:10331000822F089582E090E00C947A2A83E090E076
:103320000C947A2A84E090E00C947A2A682F84E046
:1033300090E00C94882AAB01BC018FE090E00C94E3
:103340009A2AAB01BC0183E190E00C949A2A60E0D8
:1033500070E0CB010C94A11960E070E0CB010E94F9
:103360009B190C94A7196DEE7EEF80E090E00E940F
:10337000A62A60E082E090E00E94882A60E083E074
:1033800090E00E94882A1092C2011092C30110920C
:10339000C4011092C50160E084E090E00E94882A98
:1033A00060E085E090E00E94882A60E086E090E09E
:1033B0000E94882A6FEF87E090E00E94882A40E010
:1033C00050E0BA0188E090E00E949A2A60E08DE027
:1033D00090E00E94882A0C94AC190C94B319FC015B
:1033E000329680911201882331F08091250287FF67
:1033F00002C09EE101C096E080E0915028F021914A
:103400002223D9F38F5FF9CF08959C01FC013296F6
:103410009FEF80E04191461789F09F3F19F44111D9
:1034200001C0982F8F5F8630A9F79F3F39F0F901CF
:10343000E90FF11D97FDFA95628308950895FC0147
:10344000329608962081261301C010823196E81723
:10345000F907C1F70895262F2695269526952E3132
:1034600070F4FC01E20FF11D677021E030E001C053
:10347000220F6A95EAF78281282B22830895809192
:10348000EB0180FF0CC01F926F938CED92E09F9335
:103490008F930E9406070F900F900F900F90089542
:1034A000262F2695269526952E3178F4FC01E20FDD
:1034B000F11D677021E030E001C0220F6A95EAF744
:1034C000209582812823228308958091EB0180FF3B
:1034D0000CC01F926F938EEB92E09F938F930E948C
:1034E00006070F900F900F900F90089520911201F2
:1034F000222329F02091250227FD0C942B1A0C94ED
:10350000051A20911201222329F02091250227FD7E
:103510000C94501A0C941F1A20911201FC0132963F
:10352000222331F08091250287FF02C08EE101C085
:1035300086E0DF011D928A95E9F7089508950C94BD
:103540009E1A0E949F1A80912B02843049F110929A
:10355000EC0120E488E190E00FB6F894A895809300
:1035600060000FBE2093600080E00E9422070E944E
:103570009F1A83B7817F846083BF83B7816083BFD5
:103580007894889583B78E7F83BF0FB6F894A895FB
:1035900080916000886180936000109260000FBE8F
:1035A000089508950895CF930E94D11A0E94940B14
:1035B0000E94D21AC0E08C2F0E942C0C892B29F477
:1035C000CF5FC430C1F780E001C081E0CF910895A2
:1035D00008950C94E81A0E94E5120E94B80C0E940B
:1035E00022070C94E91A1F920F920FB60F92112422
:1035F0008F939F93AF93BF938091EC01811113C080
:103600008091210290912202A0912302B091240284
:103610004196A11DB11D8093210290932202A09397
:103620002302B0932402BF91AF919F918F910F908D
:103630000FBE0F901F90189582E084BD93E095BD5A
:103640009AEF97BD80936E0008952FB7F8948091FC
:10365000210290912202A0912302B09124022FBF57
:1036600008952FB7F8946091210270912202809101
:103670002302909124022FBF0895CF92DF92EF9200
:10368000FF920F931F932FB7F8944091210250910E
:10369000220260912302709124022FBF6A017B01F4
:1036A000EE24FF248C0120E030E0C016D106E206B3
:1036B000F30610F4415051099A01281B390BC90136
:1036C0001F910F91FF90EF90DF90CF900895789425
:1036D0001F920F920FB60F9211248F939F93AF9367
:1036E000BF938091210290912202A0912302B09178
:1036F00024020196A11DB11D809321029093220204
:10370000A0932302B0932402BF91AF919F918F9118
:103710000F900FBE0F901F90189587E797E7909333
:103720000108809300089AE088E10FB6F894A89504
:10373000809360000FBE90936000FFCF0E947F19BE
:10374000811102C00E94ED190E948A198093EB0139
:103750000E94921990E090932602809325020E9485
:103760008E19682F70E080E090E00C94C016809174
:10377000EF0180FF0BC06091050185E0689FB001FB
:10378000112475956795759567952BC081FF09C0C4
:103790006091050185E0689FB001112475956795DA
:1037A00020C082FF07C06091050185E0689FB001DD
:1037B000112417C09091F0019923D1F06091040178
:1037C000961788F72091050185E0289F9001112424
:1037D000929FA001939F500D112470E0CA010E9496
:1037E0004C2A6038710540F46115710539F002C04A
:1037F00065E070E0862F08958FE7089581E00895D1
:103800008091EF0180FF08C06091030170E0759521
:1038100067957595679521C081FF06C0609103018A
:1038200070E07595679519C082FF04C0609103012F
:1038300070E010C09091F0019923C1F060910201F5
:103840009617A0F780910301899FC001112470E0B1
:103850000E944C2A6038710528F46115710521F029
:10386000862F08958FE7089581E0089561E070E064
:10387000F4CF803F21F40E94B71B819504C0813FA3
:1038800029F40E94B71B8093F4010895823F21F42C
:103890000E94B71B819504C0833F29F40E94B71B87
:1038A0008093F3010895893F19F40E94001C05C01C
:1038B0008A3F31F40E94001C81958093F5010895A0
:1038C0008B3F21F40E94001C819504C08C3F29F499
:1038D0000E94001C8093F6010895843F21F480919A
:1038E000F201816017C0853F21F48091F20182606E
:1038F00011C0863F21F48091F20184600BC0873FA4
:1039000021F48091F201886005C0883F31F48091F4
:10391000F20180618093F20108958D3F21F480913E
:10392000EF0181600BC08E3F21F48091EF01826036
:1039300005C08F3F29F48091EF0184608093EF01EF
:103940000895803F39F48091F40187FF6CC0109294
:10395000F40169C0813F29F48091F4011816BCF389
:1039600062C09091F301823F29F497FF5CC01092EE
:10397000F30159C0833F19F41916CCF354C0893FA1
:1039800041F48091F50118160CF04DC01092F5012C
:103990004AC08A3F29F48091F50187FF44C0F6CFE1
:1039A0008B3F39F48091F60187FF3DC01092F601FC
:1039B0003AC08C3F29F48091F6011816BCF333C04D
:1039C000843F21F48091F2018E7F17C0853F21F45E
:1039D0008091F2018D7F11C0863F21F48091F20128
:1039E0008B7F0BC0873F21F48091F201877F05C058
:1039F000883F31F48091F2018F7E8093F20113C0F1
:103A00008D3F21F48091EF018E7F0BC08E3F21F41A
:103A10008091EF018D7F05C08F3F29F48091EF01E8
:103A20008B7F8093EF018091F30181110EC0809113
:103A3000F40181110AC08091F501811106C08091C5
:103A4000F601811102C01092F00108958091EB01FE
:103A500083FF7EC081E293E00E946D068091F201B7
:103A60001F928F938CE193E09F938F930E940607A0
:103A70008AE193E00E946D068091F301282F082EC1
:103A8000000C330B3F938F9387E193E09F938F93C9
:103A90000E94060785E193E00E946D068091F40183
:103AA000282F082E000C330B3F938F9382E193E075
:103AB0009F938F930E94060780E193E00E946D061A
:103AC0008091F501282F082E000C330B3F938F9324
:103AD0008DE093E09F938F930E9406078BE093E025
:103AE0000E946D068091F601282F082E000C330BE2
:103AF0003F938F9388E093E09F938F930E940607F4
:103B000085E093E00E946D068091F0011F928F93F3
:103B100082E093E09F938F930E94060780E093E0FA
:103B20000E946D068091EF011F928F938DEF92E0BE
:103B30009F938F930E9406078AEF92E00E946D0682
:103B40008DB79EB74C960FB6F8949EBF0FBE8DBF33
:103B500081EF91E00E94190D0E94251B9093EE01C8
:103B60008093ED0108951F93CF93DF938091ED0132
:103B70009091EE010E943D1BAC019091F0019923C0
:103B800021F02091060130E006C0209107018AE073
:103B9000289F900111244217530708F47BC080919D
:103BA000F301C091F401D091F5011091F60181115A
:103BB00007C0C1116BC0D11169C0111167C06AC0C3
:103BC0009F3F19F09F5F9093F001181624F40E9414
:103BD000B71B8093F3018091F30187FF05C00E941A
:103BE000B71B81958093F3011C1624F40E94B71B28
:103BF0008093F4018091F40187FF05C00E94B71BF8
:103C000081958093F4013091F3013323E1F0209109
:103C1000F4012223C1F045EB3403C0011124892FA4
:103C2000990F990B009709F481E08093F30135EB2C
:103C30002303C0011124892F990F990B009709F4D0
:103C400081E08093F4011D1624F40E94001C8093EF
:103C5000F5018091F50187FF05C00E94001C819548
:103C60008093F501111624F40E94001C8093F60144
:103C70008091F60187FF05C00E94001C819580930A
:103C8000F601DF91CF911F910C94261D9F3F09F003
:103C900099CFA1CFDF91CF911F910895E1EFF1E08E
:103CA00086E0DF011D928A95E9F71092F0011092EB
:103CB000EF01089584E495E00E946D061F9281E073
:103CC0008F931F9285E08F9386EF94E09F938F935D
:103CD0000E9406070F900F900F900F900F900F907B
:103CE00008958330E9F128F4813061F0823009F1E0
:103CF0000895853009F462C008F449C0863009F49B
:103D000074C0089580910701262F30E0280F311DDF
:103D10002F3F310524F4680F6093070103C08FEF34
:103D200080930701809107011F928F938FE294E0A7
:103D300072C080910601262F30E0280F311D2F3FE1
:103D4000310524F4680F6093060103C08FEF809360
:103D50000601809106011F928F938DE194E05BC074
:103D600080910501262F30E0280F311D2F3F3105AE
:103D700024F4680F6093050103C08FEF8093050161
:103D8000809105011F928F938AE094E044C0809156
:103D90000401262F30E0280F311D2F3F310524F478
:103DA000680F6093040103C08FEF8093040180913A
:103DB00004011F928F9385EF93E02DC08091030142
:103DC000262F30E0280F311D2F3F310524F4680FD6
:103DD0006093030103C08FEF80930301809103017F
:103DE0001F928F938CED93E016C080910201262FD5
:103DF00030E0280F311D2F3F310524F4680F609308
:103E0000020103C08FEF80930201809102011F9293
:103E10008F9381EC93E09F938F930E9406070F90FE
:103E20000F900F900F900895833081F128F4813026
:103E300059F08230D1F00895853009F449C0B8F1C5
:103E4000863009F456C0089580910701681720F460
:103E5000861B8093070102C0109207018091070121
:103E60001F928F9382EB93E054C0809106016817F4
:103E700020F4861B8093060102C0109206018091F7
:103E800006011F928F9380EA93E043C08091050161
:103E9000681720F4861B8093050102C0109205016B
:103EA000809105011F928F938DE893E032C080913D
:103EB0000401681720F4861B8093040102C010924D
:103EC0000401809104011F928F9388E793E021C041
:103ED00080910301681720F4861B8093030102C0C0
:103EE00010920301809103011F928F938FE593E05D
:103EF00010C080910201681720F4861B8093020194
:103F000002C010920201809102011F928F9384E4FB
:103F100093E09F938F930E9406070F900F900F904E
:103F20000F900895CF93C82F1F928F9389E496E046
:103F30009F938F930E94060781E090E0A0E0B0E09D
:103F4000BC01CD0104C0660F771F881F991FCA9559
:103F5000D2F70E94C0160F900F900F900F90CF9144
:103F60000C94E512CF938732A8F58E3108F032C158
:103F7000803109F49FC0F8F4873009F465C0A8F4D3
:103F8000863009F02DC18091EB01817F8E7F809377
:103F9000EB018FED97E00E946D0680E49AE00E94AD
:103FA0006D0681E08093F8014DC08B30F1F18E30C9
:103FB00009F46CC015C1863109F4B0C020F4813118
:103FC00009F4F0C00DC1893109F491C08B3109F4B5
:103FD00049C006C1883349F150F4893209F4FCC064
:103FE000853309F4F9C0873209F4F6C0F9C0833487
:103FF00009F4F2C028F48A3308F4F2C08953EDC002
:10400000883409F0EDC00E94E51284E29AE00E9433
:104010006D062FEF83ED90E3215080409040E1F753
:1040200000C000000E948D1B0DC086E098E05CC0BF
:104030008BE09AE00E946D068091EB01897F877F7B
:104040008093EB01C1E0D1C08091EB01C82FC095F6
:10405000C170C0FB80F98093EB01CC2349F388E168
:104060009AE0B2C09091EB0191FBCC27C0F981E0BE
:10407000C827892FC0FB81F98093EB01CC2319F06D
:104080008EEF99E027C080EF99E02EC09091EB0170
:1040900092FBCC27C0F981E0C827892FC0FB82F9A9
:1040A0008093EB01CC2319F081EE99E013C081EDF0
:1040B00099E01AC09091EB0193FBCC27C0F981E005
:1040C000C827892FC0FB83F98093EB01CC2351F0E3
:1040D00085EC99E00E946D068091EB0181608093F0
:1040E000EB0183C088EB99E00E946D06ABCF80EDB9
:1040F00097E00E946D0685EA97E00E946D068BE6C8
:1041000097E00E946D0688E397E00E946D068DEFB0
:1041100096E00E946D068FEC96E0E6CF81EC96E08B
:104120000E946D060E94B80C1F928F9387EA96E05A
:104130009F938F930E940607809112011F928F9385
:1041400080E996E09F938F930E94060780911D025D
:104150001F928F938DE796E09F938F930E9406079F
:104160008091250287FB882780F91F928F9385E62F
:1041700096E09F938F930E9406070E94311B9F93A6
:104180008F937F936F938EE496E09F938F930E941B
:1041900006078DB79EB746960FB6F8949EBF0FBE22
:1041A0008DBF50CF0E94E5129091250297FBCC273E
:1041B000C0F981E0C827892FC0FB87F980932502C9
:1041C000CC2329F08EEA99E00E946D060EC083EAA6
:1041D00099E08ACF8D5101C080E00E94921F32CFBA
:1041E00081EA99E00E946D06C0E08C2FCF9108957E
:1041F00080E0089580E008958E518A3030F4E82FF1
:10420000F0E0EE5DFE4F8081089580E00895CF9349
:10421000C82F8091F801813059F020F0823009F4E4
:1042200045C039C10E949A18823209F036C104C0D3
:104230000E949A18823261F48C2F0E94F82081111A
:1042400004C08C2F0E94B21F2FC081E090E02CC0D0
:104250008C2F0E94FA20811126C0C431E1F070F445
:10426000CB3081F0C031D1F40E945A1E81E496E037
:104270000E946D0682E08093F80115C0C93259F0A2
:10428000C83361F48FED97E00E946D0685E496E0F7
:104290000E946D0608C01092F80101C18FE396E0FC
:1042A0000E946D06FCC081E08170FBC0C43228F51D
:1042B000CE3108F0C1C0CB30A1F1D0F4C73009F045
:1042C000D0C08EE18093070182E3809306018AE0EB
:1042D0008093050184E18093040188E080930301C9
:1042E00088E28093020185EE94E00E946D06BCC0D6
:1042F000C33149F1C431C1F0B4C0CB3409F4A6C014
:1043000028F4C93289F0C83361F0ABC0C13509F473
:104310009BC0C23509F496C0CE3409F0A2C06AE051
:104320009BC00E945A1EA0C08091F701882319F0FB
:104330001092F70199C082EF94E00E946D0681E02F
:104340008093F801AEC08CEC94E00E946D068AEB7D
:1043500094E00E946D06809107011F928F9387EB76
:1043600094E09F938F930E94060785EB94E00E9450
:104370006D0683EA94E00E946D06809106011F920B
:104380008F9380EA94E09F938F930E9406078EE9B3
:1043900094E00E946D068FE894E00E946D06809183
:1043A00005011F928F938CE894E09F938F930E9456
:1043B00006078AE894E00E946D0689E794E00E946F
:1043C0006D06809104011F928F9386E794E09F937E
:1043D0008F930E94060784E794E00E946D068FE5A4
:1043E00094E00E946D06809103011F928F938CE5EB
:1043F00094E09F938F930E9406078AE594E00E94C1
:104400006D0683E494E00E946D06809102011F9284
:104410008F9380E494E09F938F930E9406078EE32E
:1044200094E00E946D068DB79EB748960FB6F8943B
:104430009EBF0FBE8DBF18C08C2F0E94FC208093A2
:10444000F70112C061E003C061E006C06AE080913C
:10445000F7010E94711E08C08091F7010E94141F8D
:1044600003C083EE94E013C08091F701882369F0C4
:104470001F928F938DED94E09F938F930E94060778
:104480000F900F900F900F9004C08AED94E00E945F
:104490006D0681E006C01092F80180E002C080E065
:1044A00003CFCF91089580911C0208959FB7F8948F
:1044B0001092FB019FBF90912B02943009F057C0DE
:1044C0009091E9009F703091EC00232F217030FD16
:1044D00020E8922B23E02093E9002091EB0020FFBD
:1044E00043C02091EE0027FF3FC02091F901222315
:1044F00021F02091E80025FF37C01092F90126E055
:104500003091E80035FD15C030912B02343061F553
:104510003091EB0035FD28C0215021F481E08093DB
:10452000F90122C0EFE9FFE03197F1F700C0000088
:10453000E7CF8093F1008091E80085FD0AC080916B
:10454000E80080FFFCCF8091E8008E778093E80040
:1045500006C08FB7F89421E02093FB018FBF9F70B6
:104560009093E90080E008959F709093E9008FEFA9
:1045700008950F931F93CF93DF9300D01F92CDB771
:10458000DEB78C010E948825823011F0843021F53D
:1045900084E089831B830A8382E08093E9008FEFA4
:1045A0009091E800815095FD06C095ED9A95F1F740
:1045B00000008111F5CF8091E80085FF0DC040E03B
:1045C00050E063E070E0CE0101960E94A525809145
:1045D000E8008E778093E8000F900F900F90DF91A6
:1045E000CF911F910F910895CF93DF9300D01F9229
:1045F000CDB7DEB720912B02243031F523E029839B
:10460000805891099B838A8382E08093E9008FEF31
:104610009091E800815095FD06C095ED9A95F1F7CF
:1046200000008111F5CF8091E80085FF0DC040E0CA
:1046300050E063E070E0CE0101960E94A5258091D4
:10464000E8008E778093E8000F900F900F90DF9135
:10465000CF910895CF93DF93EC010E94882582309B
:1046600011F08430F9F482E08093E9009FEF8091AB
:10467000E800915085FD06C085ED8A95F1F70000B0
:104680009111F5CF8091E80085FF0CC040E050E02B
:1046900066E070E0CE010E94A5258091E8008E774B
:1046A0008093E800DF91CF910895CF93DF93EC01E1
:1046B0000E948825823011F08430D9F58091120152
:1046C000882339F08091250287FF03C060E282E0F1
:1046D00002C068E081E08093E9008FEF9091E800EC
:1046E000815095FD06C095ED9A95F1F70000811176
:1046F000F5CF8091E80085FF1CC0809112018111E7
:1047000005C040E050E068E070E003C070E040E0C9
:1047100050E0CE010E94A5258091E8008E7780931D
:10472000E80080E2FE01ACEFB1E001900D928A95C5
:10473000E1F7DF91CF91089589E69AE00E946D0636
:1047400080912A02811109C00E943A270E9497276E
:104750008091E20084608093E200089585E69AE00B
:104760000E946D0610922A02089581E69AE00C9448
:104770006D068DE59AE00C946D0689E59AE00E943D
:104780006D060C94EB1A2091FA012F5F822F62E3E1
:104790000E94402A992319F02093FA01089510925B
:1047A000FA018091FB01882371F180912B02843002
:1047B00041F58091E9008F702091EC00922F91706B
:1047C00020FD90E8892B93E09093E9009091EB0015
:1047D00090FF14C09091EE0097FF10C09091E800F8
:1047E00095FF03C01092F100F9CF9091E80090FF7F
:1047F00005C09091E8009E779093E8008F708093B9
:10480000E9001092FB01089542E061EC81E00E9412
:10481000B42642E261EC82E00E94B42642E261ECFE
:1048200083E00C94B42680912D02833009F460C09B
:1048300030F4813071F0823009F499C008958A30E3
:1048400009F485C08B3009F46BC0893009F0A7C02A
:1048500020C080912C02813A09F0A1C08091E8002B
:10486000877F8093E8008091300290913102892BFC
:1048700021F460E28CEF91E003C060E080E090E022
:1048800070E00E94F0258091E8008B778093E8002B
:10489000089580912C02813209F081C0809130020C
:1048A00090913102029708F07AC08091E800877FEA
:1048B0008093E8008091E80082FD05C080912B0282
:1048C0008111F8CF6CC02091F3008091F20090E04C
:1048D000922B029729F48091F1008B7F813021F493
:1048E0008091F10080931C028091E8008B7753C087
:1048F00080912C02813A09F052C08091300290914F
:104900003102892B09F04BC08091E800877F8093AA
:10491000E8008091E80080FFFCCF8091120136C052
:1049200080912C028132D9F5809130029091310230
:10493000892BA9F58091E800877F8093E8000E9489
:10494000E92680912E02809312010C94E512809149
:104950002C02813221F58091E800877F8093E80066
:104960000E94E92680912F0280931D020895809174
:104970002C02813AA1F48091E800877F8093E800BF
:104980008091E80080FFFCCF80911D028093F100B0
:104990008091E8008E778093E8000C94E9260895D2
:1049A00084B7877F84BF0FB6F894A8958091600084
:1049B000886180936000109260000FBE80E8809351
:1049C0006100109261000E945B0D0E943A270E94D4
:1049D00097278091E20084608093E20086E592E26E
:1049E0000E944A1978940E94252A0E94610D88E04D
:1049F00091E00E94B30C88E49AE00E946D068091D9
:104A00002B02853089F484E49AE00E946D060E94AE
:104A1000A11A80912902882391F30E94D31A882336
:104A200071F30E948F25EBCF0E948F0DE8CF0C947D
:104A30001925292F332723303105C9F064F421309B
:104A4000310581F02230310509F049C08BE590E055
:104A500021EA3AE048C02132310521F12232310504
:104A600071F13DC082E190E02CEF3AE03CC0992723
:104A70008130910571F02CF4892B89F5EDE9FAE08C
:104A80000DC08230910541F0039749F5EDE6FAE05B
:104A900005C0E3E8FAE002C0E3E7FAE0849190E0C1
:104AA0009F0121C063307105D0F4660F771FFB01B1
:104AB000EB5CFE4F2081318189E090E014C06330CF
:104AC000710568F4FB01EE0FFF1FE15DFE4F2081D1
:104AD0003181FB01E45DFE4F808190E004C080E005
:104AE00090E020E030E0FA013183208308950895BA
:104AF000CF93C82F0E947725C0931E02CF910895AF
:104B000080912B02843011F081E0089582E00895B5
:104B100080911E02811102C00C948025089580E1CD
:104B200089BD82E189BD09B400FEFDCF8091D80026
:104B30008F7D8093D8008091E00082608093E000B8
:104B40008091E00081FDFCCF0895CF92DF92EF923B
:104B5000FF920F931F93CF93DF93EC018B016A01B8
:104B60000E940827811133C0C114D10439F0F60125
:104B700080819181081B190BC80FD91FE12CF12CE2
:104B80000115110519F18091E80085FD16C080918D
:104B9000E8008E778093E800C114D10449F0F60153
:104BA00080819181E80EF91EF182E08285E00FC0DC
:104BB0000E940827882321F30AC089918093F1007D
:104BC00001501109FFEFEF1AFF0ADACF80E0DF9101
:104BD000CF911F910F91FF90EF90DF90CF900895AC
:104BE00020913202309133022617370748F06115C1
:104BF000710539F42091E8002E772093E80001C078
:104C0000B90140E061157105A9F120912B02222321
:104C100009F443C0253009F442C02091E80023FD87
:104C200040C02091E80022FD32C02091E80020FF22
:104C3000E9CF4091F3002091F20030E0342BFC01E9
:104C4000CF016115710559F02830310540F481918B
:104C50008093F100615071092F5F3F4FF1CF41E028
:104C60002830310509F040E02091E8002E772093AC
:104C7000E800C8CF4111C9CF0AC080912B02882318
:104C800061F0853061F08091E80083FD0AC0809179
:104C9000E80082FFF2CF80E0089582E0089583E08B
:104CA000089581E008952091320230913302261751
:104CB000370748F06115710539F42091E8002E7727
:104CC0002093E80001C0B901FC0120E061157105E5
:104CD00091F180912B02882309F440C0853009F4BA
:104CE0003FC08091E80083FD3DC08091E80082FDD7
:104CF0002FC08091E80080FFE9CF2091F3008091E0
:104D0000F20090E0922B6115710559F08830910501
:104D100040F424912093F10031966150710901967D
:104D2000F2CF21E0089709F020E08091E8008E772B
:104D30008093E800CBCF2111CCCF0AC080912B0209
:104D4000882361F0853061F08091E80083FD0AC01E
:104D50008091E80082FFF2CF80E0089582E008951C
:104D600083E0089581E00895982F973058F5909347
:104D7000E900981739F07091EC002091ED00509106
:104D8000F00003C0242F762F50E021FF19C030918E
:104D9000EB003E7F3093EB003091ED003D7F309390
:104DA000ED003091EB0031603093EB007093EC003C
:104DB0002093ED005093F0002091EE0027FF07C0F4
:104DC0009F5FD3CF8F708093E90081E0089580E0EA
:104DD000089580912C0287FF11C08091E80082FD28
:104DE00005C080912B028111F8CF11C08091E8009D
:104DF0008B770BC080912B02882349F08091E800CB
:104E000080FFF8CF8091E8008E778093E8000895C6
:104E10002091E4003091E50095E64091EC00842F6C
:104E2000817040FF22C08091E80080FD1CC080910D
:104E30002B02882391F0853091F08091EB0085FD65
:104E400010C04091E4005091E5004217530729F348
:104E50009A01915011F784E0089582E0089583E06B
:104E6000089581E0089580E008954091E80042FFB0
:104E7000DECF08950E94A8270E94B027E0EEF0E060
:104E8000808181608083E8EDF0E080818F7780838E
:104E900019BCA7EDB0E08C918E7F8C9380818F7EC2
:104EA000808310922A0208950F931F93CF93DF936C
:104EB0000E94A8270E94B027C8EDD0E088818F7794
:104EC000888388818068888388818F7D888319BCE6
:104ED00010922B021092270210922902109228029F
:104EE00000EE10E0F80180818B7F808388818160F3
:104EF000888342E060E080E00E94B426E1EEF0E0CA
:104F000080818E7F8083E2EEF0E08081816080830B
:104F1000808188608083F80180818E7F8083888192
:104F200080618883DF91CF911F910F910895E8ED03
:104F3000F0E080818F7E8083E7EDF0E0808181600A
:104F4000808384E082BF81E080932A020C945427FE
:104F5000E8EDF0E080818E7F80831092E20008957A
:104F60001092DA001092E10008951F920F920FB68E
:104F70000F9211242F933F934F935F936F937F93DF
:104F80008F939F93AF93BF93EF93FF938091E10033
:104F900082FF0BC08091E20082FF07C08091E10098
:104FA0008B7F8093E1000E94C3238091DA0080FF11
:104FB0001FC08091D80080FF1BC08091DA008E7FD7
:104FC0008093DA008091D90080FF0DC080E189BD17
:104FD00082E189BD09B400FEFDCF81E080932B0200
:104FE0000E949C2305C019BC10922B020E94AE2384
:104FF0008091E10080FF19C08091E20080FF15C020
:105000008091E2008E7F8093E2008091E2008061D7
:105010008093E2008091D80080628093D80019BC10
:1050200085E080932B020E94B9238091E10084FFE8
:1050300030C08091E20084FF2CC080E189BD82E114
:1050400089BD09B400FEFDCF8091D8008F7D80938B
:10505000D8008091E1008F7E8093E1008091E20092
:105060008F7E8093E2008091E20081608093E20075
:1050700080912702882311F084E007C08091E3002B
:1050800087FD02C081E001C083E080932B020E9473
:10509000BD238091E10083FF29C08091E20083FF5E
:1050A00025C08091E100877F8093E10082E08093BA
:1050B0002B02109227028091E1008E7F8093E10005
:1050C0008091E2008E7F8093E2008091E200806117
:1050D0008093E20042E060E080E00E94B42680918C
:1050E000F00088608093F0000E94B523FF91EF915B
:1050F000BF91AF919F918F917F916F915F914F91F0
:105100003F912F910F900FBE0F901F9018951F92F7
:105110000F920FB60F9211242F933F934F935F93EB
:105120006F937F938F939F93AF93BF93CF93DF93AF
:10513000EF93FF93C091E900CF708091EC00D82FDE
:10514000D17080FDD0E81092E9008091F000877F57
:105150008093F00078940E94CB281092E90080910F
:10516000F00088608093F000CD2BCF70C093E900F1
:10517000FF91EF91DF91CF91BF91AF919F918F916F
:105180007F916F915F914F913F912F910F900FBE43
:105190000F901F9018951F93CF93DF93CDB7DEB775
:1051A000AA970FB6F894DEBF0FBECDBFECE2F2E0D7
:1051B00088E08E0F9091F10091938E13FBCF0E94A7
:1051C00013248091E80083FF28C180912C029091E4
:1051D0002D02492F50E04A30510508F01EC1FA0156
:1051E000E556FF4F0C94602A803821F0823809F090
:1051F00014C108C08091280290912902992389F056
:1052000082600FC0809130028F70873008F005C136
:105210008093E9008091EB0085FB882780F910924C
:10522000E9009091E800977F9093E8008093F10067
:105230001092F100D0C0282F2D7F09F0EEC08823F6
:1052400019F0823061F0E9C080912E02813009F0BE
:10525000E4C0933009F080E0809329022EC0809151
:105260002E0281112AC0809130028F702FEF280FFB
:10527000263008F0D2C08093E9002091EB0020FF97
:105280001CC0933021F48091EB00806214C0909197
:10529000EB0090619093EB0021E030E0A90102C0A7
:1052A000440F551F8A95E2F74093EA001092EA00F6
:1052B0008091EB0088608093EB001092E900809170
:1052C000E800877F8093E8000E94E926A6C081114C
:1052D000A4C010912E021F778091E3008078812B6B
:1052E0008093E3008091E800877F8093E8000E942C
:1052F000E9268091E80080FFFCCF8091E300806880
:105300008093E300111102C082E001C083E080932A
:105310002B0283C08058823008F07FC080912E021B
:1053200090912F028C3D53E0950779F583E08A83B5
:105330008AE289834FB7F894DE01139620E03EE0BD
:1053400051E2E32FF0E050935700E49120FF03C0B7
:10535000E295EF703F5FEF708E2F90E0EA3010F033
:10536000C79601C0C0968D939D932F5F243149F756
:105370004FBF8091E800877F8093E8006AE270E089
:10538000CE0101960E94F02515C060913002709107
:105390003102AE014F5F5F4F0E941725BC01892B80
:1053A000E1F19091E800977F9093E80089819A81DC
:1053B0000E9453268091E8008B778093E8002DC0EF
:1053C000803859F58091E800877F8093E8008091CC
:1053D00027028093F1008091E8008E7773CF8111CE
:1053E0001CC090912E029230C0F48091E800877F1B
:1053F0008093E800909327020E94E926809127027B
:10540000811106C08091E30087FD02C081E001C0E8
:1054100084E080932B020E9404248091E80083FFA3
:105420000AC08091E800877F8093E8008091EB00BC
:1054300080628093EB00AA960FB6F894DEBF0FBE91
:10544000CDBFDF91CF911F910895CF9380912B0213
:105450008823A1F0C091E900CF709091EC00892FD2
:10546000817090FD80E8C82B1092E9008091E800DF
:1054700083FD0E94CB28CF70C093E900CF9108959F
:10548000991B79E004C0991F961708F0961B881F96
:105490007A95C9F78095089597FB072E16F4009426
:1054A00007D077FD09D00E94662A07FC05D03EF49C
:1054B000909581959F4F0895709561957F4F0895C0
:1054C000EE0FFF1F0590F491E02D0994AA1BBB1B62
:1054D00051E107C0AA1FBB1FA617B70710F0A61BF4
:1054E000B70B881F991F5A95A9F780959095BC0115
:1054F000CD010895F999FECF92BD81BDF89A992703
:1055000080B50895A8E1B0E042E050E00C94AE2AE6
:10551000262FF999FECF92BD81BDF89A019700B46C
:10552000021639F01FBA20BD0FB6F894FA9AF99A0C
:105530000FBE08950396272F0E94892A0E94882A69
:10554000252F0E94892A242F0C94892A0196272F1F
:105550000E94892A0C94882ADC01CB01FC01F9996C
:10556000FECF06C0F2BDE1BDF89A319600B40D92AF
:0C55700041505040B8F70895F894FFCF68
:10557C00C8012808140A321E532255232A23F42268
:10558C00B9220197663534C69436F6F79637909162
:10559C0093920102030405060708090040C022F09B
:0C55AC000B300B0E0BB30ACC0AE50A0012
:00000001FF
